:020000040800F2
:1000000090060020950500089D0500089F05000842
:10001000A1050008A3050008A505000800000000D0
:10002000000000000000000000000000A70500081C
:10003000A905000800000000AB050008AD05000898
:10004000AF050008AF050008AF050008AF050008C0
:10005000AF050008AF050008AF050008AF050008B0
:10006000AF050008AF050008AF050008AF050008A0
:10007000AF050008AF050008AF050008AF05000890
:10008000AF050008AF050008AF050008AF05000880
:10009000AF050008AF050008AF050008AF05000870
:1000A000AF050008AF050008AF050008AF05000860
:1000B000B9050008050600084D060008AF05000850
:1000C000AF050008AF050008AF050008AF05000840
:1000D000AF050008DD06000861070008E507000815
:1000E000AF050008AF050008AF050008AF05000820
:1000F000AF050008AF050008AF050008AF05000810
:10010000AF050008AF05000895060008AF05000818
:10011000AF050008AF050008AF050008AF050008EF
:10012000AF050008AF050008AF050008AF050008DF
:10013000DFF80CD000F098FB0048004745010008AC
:100140009006002000F030F900BFFEE710B56FF018
:10015000040000F0ADF82A4800682A49B0FBF1F02D
:1001600029490870084600784FF47A7148432749B6
:10017000086010BD0146244A12784A434FF0E0233C
:100180005A6100229A611A46126942F001021A610C
:1001900000BF4FF0E022106910F0010F02D010F400
:1001A000803FF6D04FF0E022126922F001024FF0BA
:1001B000E0231A6100229A6170470146134A1268CF
:1001C0004A434FF0E0235A6100229A611A461269AD
:1001D00042F001021A6100BF4FF0E022106910F0F6
:1001E000010F02D010F4803FF6D04FF0E0221269E8
:1001F00022F001024FF0E0231A6100229A61704759
:100200000800002000127A000000002004000020F6
:1002100031490143314A1160704770B50021002314
:100220000F22C4780CB32D4C246804F4E064C4F5A8
:10023000E064210AC1F10403CA40447804FA03F1DE
:100240008478144021430901254C0678A15504788F
:1002500004F01F050124AC4005786D114FF0E02635
:1002600006EB8505C5F8004109E0047804F01F0598
:100270000124AC401B4D0678761145F8264070BD30
:10028000194A0A400243154B1B1F1A60704739B1C7
:10029000124A121D12680243104B1B1D1A6006E021
:1002A0000E4A121D126882430C4B1B1D1A607047C8
:1002B000042808D14FF0E021096941F004014FF012
:1002C000E022116107E04FF0E021096921F004010B
:1002D0004FF0E022116170470000FA050CED00E0DC
:1002E00000E400E080E100E080FFFF1F08B54FF46C
:1002F000C060FFF78DFF32208DF8000001208DF8DF
:10030000010000208DF8020001208DF803006846EE
:10031000FFF783FF25208DF8000001208DF80100F4
:100320008DF802008DF803006846FFF776FF26205F
:100330008DF8000001208DF8010002208DF80200E8
:1003400001208DF803006846FFF767FF27208DF82E
:10035000000001208DF8010003208DF8020001202B
:100360008DF803006846FFF758FF34208DF8000031
:1003700001208DF8010004208DF8020001208DF885
:1003800003006846FFF749FF35208DF80000012083
:100390008DF8010005208DF8020001208DF8030082
:1003A0006846FFF73AFF08BD10B500F073F8FFF795
:1003B000CDFEFFF79BFF10BD0CB500200190009013
:1003C0006B48006840F480306949086000BF6848A5
:1003D000006800F4003000900198401C01900098E3
:1003E00018B90198B0F5A06FF1D16148006810F418
:1003F000003F02D00120009001E000200090009812
:10040000012842D15B48006840F01000594908605B
:100410000846006820F0030008600846006840F0C5
:1004200002000860524840685149486008464068E8
:1004300048600846406840F480604860084640686C
:1004400020F47C1048600846406840F4E81048609A
:100450000846006840F08070086000BF44480068AB
:1004600010F0007FFAD04248406820F00300404975
:1004700048600846406840F00200486000BF3C48C1
:10048000406800F00C000828F9D10CBD10B5FFF74A
:1004900093FF10BD10B53648006840F001003449A4
:1004A00008600846406834490840314948600846B9
:1004B0000068324908402E4908600846006820F468
:1004C000802008600846406820F4FE0048604FF431
:1004D0001F008860FFF7DAFF4FF0006028490860CE
:1004E00010BD10B5002100200022214B5B6803F0F5
:1004F0000C0121B1042906D0082928D107E0214B9D
:10050000214C236027E01F4B1F4C236023E0184B36
:100510005B6803F47010164B5B6803F480320223AF
:1005200003EB904022B9194B4343174C23600DE075
:100530000F4B5B6813F4003F04D0144B4343124C41
:10054000236003E00F4B43430F4C236003E00D4B4C
:100550000D4C236000BF00BF054B5B68C3F3031362
:100560000B4CE15C084B1B68CB40074C236010BD73
:1005700000100240002002400000FFF8FFFFF6FEDE
:1005800008ED00E000127A000800002000093D009C
:100590000C0000200648804706480047FEE7FEE7BB
:1005A000FEE7FEE7FEE7FEE7FEE7FEE7FEE7FEE723
:1005B00095040008310100084FF08040008A10F0D7
:1005C000010F19D04FF08040008A20F001004FF059
:1005D000804108820948006838B90020084908604D
:1005E0004FF001000549086006E001200449086059
:1005F0004FF0000001490860704700001C00002017
:10060000800121420E48008810F0010F17D00C48DD
:10061000008820F001000A4908800A48006838B9BB
:100620000020094908604FF001000649086006E013
:100630000120054908604FF000000249086070473A
:100640001004004020000020800121420E48008854
:1006500010F0010F17D00C48008820F001000A4963
:1006600008800A48006838B90020094908604FF03E
:1006700001000649086006E00120054908604FF0C6
:100680000000024908607047100800402400002064
:10069000800121420E48008810F0010F17D00C484D
:1006A000008820F001000A4908800A48006838B92B
:1006B0000020094908604FF001000649086006E083
:1006C0000120054908604FF00000024908607047AA
:1006D000100C004028000020800121421D4909889B
:1006E00011F0200F34D01B49091D0988C8B21A49DE
:1006F000098811F4004F2BD11749098811F4804F54
:100700000CD00A2803D00021134A118020E012499E
:10071000098841F40041104A118019E00D2806D1E2
:100720000D49098841F480410B4A118010E00A49C3
:100730000988C1F30D01094A505407490988491C29
:10074000054A118011460988C72901DD0021118061
:1007500070470000003801402C00002034000020C9
:100760001D49098811F0200F34D01B49091D098843
:10077000C8B21A49098811F4004F2BD117490988CA
:1007800011F4804F0CD00A2803D00021134A1180A5
:1007900020E01249098841F40041104A118019E013
:1007A0000D2806D10D49098841F480410B4A11807A
:1007B00010E00A490988C1F30D01094A505407495C
:1007C0000988491C054A118011460988C72901DD9D
:1007D0000021118070470000003801402E000020E9
:1007E000FC0000201D49098811F0200F34D01B495E
:1007F000091D0988C8B21A49098811F4004F2BD184
:100800001749098811F4804F0CD00A2803D0002121
:10081000134A118020E01249098841F40041104A2E
:10082000118019E00D2806D10D49098841F4804155
:100830000B4A118010E00A490988C1F30D01094AE9
:10084000505407490988491C054A118011460988F6
:10085000C72901DD002111807047000000380140E8
:1008600030000020C4010020064C074D06E0E0687F
:1008700040F0010394E8070098471034AC42F6D3E7
:10088000FFF75AFCAC080008CC08000802E008C8D2
:10089000121F08C1002AFAD170477047002001E0FA
:1008A00001C1121F002AFBD170470000CC080008CC
:1008B00000000020340000008C0800080009000837
:1008C000340000205C0600009C08000800000000C6
:1008D0000000000000A24A04000000000000000028
:1008E00001020304060708090000000000000000E0
:1008F00000000000000000000000000000000000F8
:0400000508000131BD
:00000001FF
