:020000040800F2
:10000000E00600207D2400088524000887240008DD
:10001000892400088B2400088D24000800000000BB
:100020000000000000000000000000008F24000815
:100030009124000800000000932400089524000883
:1000400097240008972400089724000897240008A4
:1000500097240008972400088D2B0008952B000892
:100060009D2B0008A52B0008AD2B00089724000845
:100070009724000897240008972400089724000874
:100080009724000897240008972400089724000864
:10009000972400089724000897240008B52B00082F
:1000A0009724000897240008972400089724000844
:1000B000F92B000897240008112C00089724000849
:1000C0009724000897240008972400089724000824
:1000D00097240008252D0008A92D00082D2E0008C2
:1000E000BD2B0008972400089724000897240008D7
:1000F00097240008972400089724000897240008F4
:1001000097240008972400089724000897240008E3
:1001100097240008972400089724000897240008D3
:1001200097240008972400089724000897240008C3
:10013000DFF80CD003F090FA0048004745010008B2
:10014000E006002002F02AF81148806940F0200003
:100150000F4988610F48006820F470000D4908605D
:100160000846006840F4000008600A48083000684B
:1001700040F400500749083108604FF4E13148204D
:1001800001F04BFD0D21032002F010F800BFFEE747
:1001900000100240041401400146DB48006820F0D2
:1001A0001F00D94A10601046006808431060D64806
:1001B0002C38006840F48000D34A2C3A106000BF0D
:1001C000D1483438006810F0020FF9D0CE4818300A
:1001D000006880B27047102815D2DFE800F00815DB
:1001E000222F3C495663707D8A97A4B1BECBC74984
:1001F000896941F00401C54A9161C549096821F046
:100200000F01C34A1160C2E0C049896941F004018D
:10021000BE4A9161BE49096821F0F001BC4A1160F3
:10022000B5E0BA49896941F00401B84A9161B84919
:10023000096821F47061B64A1160A8E0B349896980
:1002400041F00401B14A9161B149096821F470415A
:10025000AF4A11609BE0AD49896941F00401AB4AA6
:100260009161AB49096821F47021A94A11608EE0BF
:10027000A649896941F00401A44A9161A449096829
:1002800021F47001A24A116081E0A049896941F01E
:1002900004019E4A91619E49096821F070619C4A5F
:1002A000116074E09949896941F00401974A9161AC
:1002B0009749096821F07041954A116067E09349B8
:1002C000896941F00401914A91619249096821F0DC
:1002D0000F01904A11605AE08C49896941F0080188
:1002E0008A4A91618B49096821F0F001894A1160BD
:1002F0004DE08649896941F01001844A916186493F
:10030000096821F00F01844A116040E07F49896942
:1003100041F010017D4A91617F49096821F0F001A7
:100320007D4A116033E07949896941F01001774ACB
:1003300091617949096821F47061774A116026E07A
:100340007249896941F01001704A916172490968E6
:1003500021F47041704A116019E06C49896941F0DB
:1003600010016A4A91616C49096821F470216A4A56
:1003700011600CE06549896941F01001634A91619F
:100380006549096821F47001634A116000BF00BF2C
:100390005E49896941F400715C4A91611146C968FE
:1003A00041F40071D1601146C96821F40071D16037
:1003B0001146496821F4404151601146496841F4B1
:1003C00000415160504930390968544A11404E4A41
:1003D000303A11601146096811601146096821F42C
:1003E00080711160111D096821F00201121D116058
:1003F0001146096821F4602111601146096841F431
:10040000602111601146096841F4801111601146A4
:10041000096821F4006111603B490839096821F439
:100420007001394A083A11601146096800211160CB
:100430000A2811DA00EB400307229A40D143324ADE
:10044000243A12680A40304B243B1A601A4612685C
:1004500042F460021A6021E00A2290FBF2F302FBF0
:10046000130202EB420307229A40D143264A283A5C
:1004700012680A40244B283B1A600A2290FBF2F3D0
:1004800002FB130202EB420307229A401E4B283B59
:100490001B681A431C4B283B1A6000BF1A492C39B1
:1004A000096841F00101184A2C3A116011460968A7
:1004B00041F00801116000BF13492C39096811F09F
:1004C000080FF9D110492C39096841F004010E4A8E
:1004D0002C3A116000BF0C492C39096811F0040F47
:1004E000F9D1704770B506460B460024002505E09B
:1004F0003046FFF751FE0444681CC5B29D42F7DB4D
:10050000B4FBF3F080B270BD34240140001002400F
:1005100000080140000C014000100140FFFFF00006
:1005200010B56FF0040000F0ADF82A4800682A49C1
:10053000B0FBF1F029490870084600784FF47A7151
:1005400048432749086010BD0146244A12784A43AF
:100550004FF0E0235A6100229A611A46126942F074
:1005600001021A6100BF4FF0E022106910F0010F84
:1005700002D010F4803FF6D04FF0E022126922F052
:1005800001024FF0E0231A6100229A617047014690
:10059000134A12684A434FF0E0235A6100229A61DD
:1005A0001A46126942F001021A6100BF4FF0E022C0
:1005B000106910F0010F02D010F4803FF6D04FF018
:1005C000E022126922F001024FF0E0231A610022BA
:1005D0009A6170470800002000127A000000002095
:1005E0000400002031490143314A1160704770B561
:1005F000002100230F22C4780CB32D4C246804F48E
:10060000E064C4F5E064210AC1F10403CA404478FF
:1006100004FA03F18478144021430901254C06783B
:10062000A155047804F01F050124AC4005786D1134
:100630004FF0E02606EB8505C5F8004109E0047897
:1006400004F01F050124AC401B4D0678761145F8D7
:10065000264070BD194A0A400243154B1B1F1A6001
:10066000704739B1124A121D12680243104B1B1D0C
:100670001A6006E00E4A121D126882430C4B1B1DC5
:100680001A607047042808D14FF0E021096941F051
:1006900004014FF0E022116107E04FF0E021096909
:1006A00021F004014FF0E022116170470000FA05CB
:1006B0000CED00E000E400E080E100E080FFFF1FBF
:1006C000FE4A926942F40062FC4B9A61FC4A108037
:1006D000121F1180FA4A1832128842F40042F84B75
:1006E00018331A808022F64B2C3B1A801A46128847
:1006F00042F001021A807047F04AD26942F00102CA
:10070000EE4BDA619A04908511858022D3051A8018
:10071000D205128842F001021A807047E74AD26976
:1007200042F00202E54BDA61E64A1080121F1180A6
:100730008022E44B2C3B1A801A46128842F00102B8
:100740001A807047DD4AD26942F00402DB4BDA615D
:10075000DD4A1080121F11808022DB4B2C3B1A8057
:100760001A46128842F001021A807047012806D00A
:1007700002282BD0032850D0042826D172E0CF497C
:10078000896941F00401CD4A9161D049096821F09D
:100790000F01CE4A11601146096841F00B0111604A
:1007A000C7491439098841F06001C54A143A1180DB
:1007B0001146098841F008011180C1490C390988A6
:1007C00041F00101BE4A0C3A118070E0BB498969D1
:1007D00041F00401B94A9161BC49096821F0F00176
:1007E000BA4A11601146096841F0B0011160B4497C
:1007F0001439098841F4C041B14A143A11801146B4
:10080000098841F400611180AD490C39098841F033
:100810001001AB4A0C3A118049E0A849896941F0BE
:100820000401A64A9161A949096821F47061A74AA7
:1008300011601146096841F430611160A049103916
:10084000098841F060019E4A103A118011460988DA
:1008500041F008011180111D098841F48071121DB9
:10086000118024E09549896941F00401934A91611E
:100870009649096821F47041944A1160114609684B
:1008800041F4304111608E491039098841F4C0416A
:100890008B4A103A11801146098841F40061118099
:1008A000111D098841F48051121D118000BF00BF45
:1008B00070472DE9F84F81468A4614461D46DDF8FB
:1008C00028B00020009000268149484602F0F4FD3F
:1008D0000BD840F2CF7000907E49484602F040FBB2
:1008E000074602F073FD86B22DE07B49484602F0D0
:1008F000E3FD0AD8772000907849484602F030FBA3
:10090000074602F063FD86B21DE0484602F091FD05
:100910000746734A734B02F09FFD0AD80B200090E4
:100920007149484602F01CFB074602F04FFD86B2B3
:1009300009E0002000906D49484602F011FB07468F
:1009400002F044FD86B2711E88B20099FFF7B8FE2E
:10095000012C0FD10120FFF709FF304602F007FDFF
:100960008046514602F0FCFA074602F02FFD54493A
:1009700008310880012D0FD10220FFF7F7FE304625
:1009800002F0F5FC8046514602F0EAFA074602F012
:100990001DFD4B490C310880BBF1010F0FD1032025
:1009A000FFF7E4FE304602F0E2FC8046514602F0DA
:1009B000D7FA074602F00AFD4149103108800B982A
:1009C00001280FD10420FFF7D1FE304602F0CFFC02
:1009D0008046514602F0C4FA074602F0F7FC384957
:1009E00014310880BDE8F88F012806D0022828D0ED
:1009F00003284AD0042823D186E03049896941F090
:100A000004012E4A91613149091F096821F00F0143
:100A10002E4A121F11601146096841F00B01116046
:100A2000D104098B41F06001D20411831146098B76
:100A300041F0080111831146098C41F00101118434
:100A400084E01E49896941F004011C4A91611F49F3
:100A5000091F096821F0F0011C4A121F116011469C
:100A6000096841F0B0011160D104098B41F4C04123
:100A7000D20411831146098B41F4006111831146A0
:100A8000098C41F01001118460E00C49896941F042
:100A900004010A4A91610D49091F096821F4706136
:100AA0000A4A121F11601146096841F43061116051
:100AB000D104898B41F06001D20419E0001002409A
:100AC0002C2C01402C0400402C080040040801405C
:100AD0000000C842000010420000204100001644FF
:100AE0004A0C022B8716ED3F0080BB4500A08C47C7
:100AF00091831146898B41F0080191831146098C3D
:100B000041F48071118421E0FA49896941F00401BE
:100B1000F84A9161F849096821F47041F64A116078
:100B20001146096841F430411160D104898B41F4C8
:100B3000C041D20491831146898B41F400619183B5
:100B40001146098C41F48051118400BF00BF7047E9
:100B50002DE9F84F81468A4614461D46DDF828B037
:100B6000002000900026E549484602F0A5FC0BD87D
:100B700040F2CF700090E249484602F0F1F9074692
:100B800002F024FC86B22DE0DE49484602F094FCD7
:100B90000AD877200090DC49484602F0E1F9074680
:100BA00002F014FC86B21DE0484602F042FC074603
:100BB000D64AD74B02F050FC0AD80B200090D549FA
:100BC000484602F0CDF9074602F000FC86B209E083
:100BD00000200090D049484602F0C2F9074602F0D2
:100BE000F5FB86B2711E88B20099FFF785FD012CD6
:100BF0000ED10120FFF7F8FE304602F0B8FB804628
:100C0000514602F0ADF9074602F0E0FBA1078886E5
:100C1000012D0ED10220FFF7E7FE304602F0A7FBC0
:100C20008046514602F09CF9074602F0CFFBA90727
:100C30000887BBF1010F0FD10320FFF7D5FE304627
:100C400002F095FB8046514602F08AF9074602F011
:100C5000BDFB4FF0804188870B9801280ED10420FE
:100C6000FFF7C2FE304602F082FB8046514602F09A
:100C700077F9074602F0AAFBA8490880BDE8F88F7B
:100C8000012806D0022829D003284CD0042824D1DA
:100C90006EE09849896941F00401964A916196494C
:100CA000096821F07061944A11601146096841F0A9
:100CB000306111609A49098841F06001984A1180B9
:100CC0001146098841F008011180954908310988C9
:100CD00041F00101924A083211806EE0854989692C
:100CE00041F00401834A91618349096821F0704110
:100CF000814A11601146096841F03041116088490C
:100D0000098841F4C041864A11801146098841F49E
:100D10000061118082490831098841F01001804A40
:100D20000832118049E07349896941F00801714A2C
:100D300091617C49096821F00F017A4A11601146DE
:100D4000096841F00B0111607549091D098841F0DE
:100D50006001734A121D11801146098841F0080193
:100D60001180111D098841F48071121D118024E049
:100D70006049896941F008015E4A916169490968E1
:100D800021F0F001674A11601146096841F0B00195
:100D900011606349091D098841F4C041604A121D70
:100DA00011801146098841F400611180111D0988E4
:100DB00041F48051121D118000BF00BF70472DE922
:100DC000F84F81468A4614461D46DDF828B00020BB
:100DD000009000264949484602F06EFB0BD840F2CD
:100DE000CF7000904649484602F0BAF8074602F034
:100DF000EDFA86B22DE04349484602F05DFB0AD881
:100E0000772000904049484602F0AAF8074602F0D1
:100E1000DDFA86B21DE0484602F00BFB07463B4A6E
:100E20003B4B02F019FB0AD80B2000903949484689
:100E300002F096F8074602F0C9FA86B209E00020EF
:100E400000903549484602F08BF8074602F0BEFA9A
:100E500086B2711E88B20099FFF760FC012C0FD199
:100E60000120FFF70DFF304602F081FA804651461F
:100E700002F076F8074602F0A9FA29491C310880E9
:100E8000012D0FD10220FFF7FBFE304602F06FFA72
:100E90008046514602F064F8074602F097FA20496E
:100EA00020310880BBF1010F0FD10320FFF7E8FECE
:100EB000304602F05CFA8046514602F051F807468F
:100EC00002F084FA1649243108800B9801280FD1CA
:100ED0000420FFF7D5FE304602F049FA804651461D
:100EE00002F03EF8074602F071FA0D4928310880F9
:100EF000BDE8F88F00100240000801400000C84221
:100F00000000104200002041000016444A0C022B51
:100F10008716ED3F0080BB4500A08C474000004095
:100F200018040040000C0140012806D0022829D0F6
:100F300003284CD0042824D170E0FE49896941F08F
:100F40000801FC4A9161FC49096821F07061FA4A84
:100F500011601146096841F030611160F749098854
:100F600041F06001F54A11801146098841F00801FD
:100F70001180F2490831098841F00101EF4A083235
:100F8000118072E0EB49896941F00801E94A9161F9
:100F9000E949096821F07041E74A11601146096882
:100FA00041F030411160E549098841F4C041E34A0C
:100FB00011801146098841F400611180DF49083130
:100FC000098841F01001DD4A083211804DE0D9490D
:100FD000896941F00801D74A9161D749091D09681B
:100FE00021F00F01D44A121D11601146096841F029
:100FF0000B011160D149091D098841F06001CF4AF8
:10100000121D11801146098841F008011180111D3F
:10101000098841F48071121D118026E0C549896953
:1010200041F00801C34A9161C349091D096821F0D3
:10103000F001C14A121D11601146096841F0B0016A
:101040001160BE49091D098841F4C041BB4A121D07
:1010500011801146098841F400611180111D098831
:1010600041F48051121D118000BF00BF70472DE96F
:10107000F84F81468A4614461D46DDF828B0002008
:1010800000900026AE49484602F016FA0BD840F20E
:10109000CF700090AB49484601F062FF074602F06E
:1010A00095F986B22DE0A849484602F005FA0AD81B
:1010B00077200090A549484601F052FF074602F00C
:1010C00085F986B21DE0484602F0B3F90746A04A0A
:1010D000A04B02F0C1F90AD80B2000909E49484667
:1010E00001F03EFF074602F071F986B209E00020E8
:1010F00000909A49484601F033FF074602F066F92E
:1011000086B2711E88B20099FFF71CFB012C0FD12B
:101110000120FFF709FF304602F029F980465146C9
:1011200001F01EFF074602F051F984491C31088086
:10113000012D0FD10220FFF7F7FE304602F017F91C
:101140008046514601F00CFF074602F03FF97B490B
:1011500020310880BBF1010F0FD10320FFF7E4FE1F
:10116000304602F004F98046514601F0F9FE074688
:1011700002F02CF97149243108800B9801280FD115
:101180000420FFF7D1FE304602F0F1F880465146C8
:1011900001F0E6FE074602F019F968492831088097
:1011A000BDE8F88F2DE9FC5F0446884615461E46CB
:1011B000DDE90C9A0020019000270A2C07D840F2A4
:1011C000CF70019048F6A040B0FBF4F719E0642C12
:1011D00006D8772001906248B0FBF4F087B210E0A7
:1011E00040F24C40844206D80B2001905D48B0FB91
:1011F000F4F087B205E0002001905B48B0FBF4F00A
:1012000087B2791E88B20199FFF75AFA012D0ED1E3
:101210000120FFF7ABFA384602F0A9F841460090EA
:1012200001F09EFE834602F0D1F850490880012E5D
:101230000FD10220FFF79AFA384602F098F841469B
:10124000009001F08DFE834602F0C0F84749091D69
:101250000880B9F1010F0FD10320FFF787FA384654
:1012600002F085F84146009001F07AFE834602F0D4
:10127000ADF83E4908310880BAF1010F0FD10420C2
:10128000FFF774FA384602F072F84146009001F018
:1012900067FE834602F09AF834490C310880BDE8B5
:1012A000FC9F2DE9FC5F0446884615461E46DDE995
:1012B0000C9A0020019000270A2C07D840F2CF702A
:1012C000019048F6A040B0FBF4F719E0642C06D872
:1012D000772001902248B0FBF4F087B210E040F292
:1012E0004C40844206D80B2001901E48B0FBF4F01D
:1012F00087B205E0002001901B48B0FBF4F087B2F4
:10130000791E88B20199FFF7F7F9012D0ED101205E
:10131000FFF76AFB384602F02AF84146009001F0D8
:101320001FFE834602F052F8A9078886012E2DD1B0
:1013300002201DE000100240000C0140180800408F
:101340000000C84200001042000020410000164486
:101350004A0C022B8716ED3F0080BB4500A08C474E
:10136000C0270900808D5B0000A24A04342C014094
:10137000FFF73AFB384601F0FAFF4146009001F0D2
:10138000EFFD834602F022F8B1070887B9F1010F9B
:101390000FD10320FFF728FB384601F0E8FF414654
:1013A000009001F0DDFD834602F010F84FF080411F
:1013B0008887BAF1010F0ED10420FFF715FB3846DC
:1013C00001F0D5FF4146009001F0CAFD834601F0CF
:1013D000FDFFF9490880BDE8FC9F2DE9FC5F04464C
:1013E000884615461E46DDE90C9A0020019000272C
:1013F0000A2C07D840F2CF70019048F6A040B0FB0D
:10140000F4F719E0642C06D877200190EB48B0FB84
:10141000F4F087B210E040F24C40844206D80B2032
:101420000190E748B0FBF4F087B205E0002001909E
:10143000E448B0FBF4F087B2791E88B20199FFF757
:101440006DF9012D0ED10120FFF71AFC384601F08D
:101450008EFF4146009001F083FD834601F0B6FF08
:10146000D9490880012E0FD10220FFF709FC384628
:1014700001F07DFF4146009001F072FD834601F0CE
:10148000A5FFD149091D0880B9F1010F0FD1032033
:10149000FFF7F6FB384601F06AFF4146009001F085
:1014A0005FFD834601F092FFC74908310880BAF119
:1014B000010F0FD10420FFF7E3FB384601F057FF7F
:1014C0004146009001F04CFD834601F07FFFBE498C
:1014D0000C310880BDE8FC9F2DE9FC5F044688467E
:1014E00015461E46DDE90C9A0020019000270A2CC3
:1014F00007D840F2CF70019048F6A040B0FBF4F757
:1015000019E0642C06D877200190AC48B0FBF4F0C9
:1015100087B210E040F24C40844206D80B20019084
:10152000A748B0FBF4F087B205E000200190A54881
:10153000B0FBF4F087B2791E88B20199FFF702F987
:10154000012D0ED10120FFF7EFFC384601F00FFF0F
:101550004146009001F004FD834601F037FF9B49AE
:101560000880012E0FD10220FFF7DEFC384601F083
:10157000FEFE4146009001F0F3FC834601F026FF99
:101580009249091D0880B9F1010F0FD10320FFF71F
:10159000CBFC384601F0EBFE4146009001F0E0FC48
:1015A000834601F013FF894908310880BAF1010F21
:1015B0000FD10420FFF7B8FC384601F0D8FE4146B1
:1015C000009001F0CDFC834601F000FF7F490C3113
:1015D0000880BDE8FC9F2DE9F04705460C461646FD
:1015E0004FF0000800270A2C07DC40F2CF7848F6BD
:1015F000A04090FBF4F087B219E0642C06DC4FF0B9
:1016000077086E4890FBF4F087B210E040F24C404F
:10161000844206DC4FF00B08694890FBF4F087B277
:1016200005E04FF00008674890FBF4F087B2781EA1
:1016300067490880081FA0F80080012D0CD13846AA
:1016400001F095FE8246314601F08AFC814601F0A8
:10165000BDFE5F4908310880022D0CD1384601F0EB
:1016600086FE8246314601F07BFC814601F0AEFEEB
:1016700057490C310880032D0CD1384601F077FE14
:101680008246314601F06CFC814601F09FFE5049D4
:1016900010310880042D0CD1384601F068FE8246D6
:1016A000314601F05DFC814601F090FE484914315D
:1016B0000880BDE8F0872DE9F04705460C46164640
:1016C0004FF0000800270A2C07DC40F2CF7848F6DC
:1016D000A04090FBF4F087B219E0642C06DC4FF0D8
:1016E0007708364890FBF4F087B210E040F24C40A7
:1016F000844206DC4FF00B08314890FBF4F087B2CF
:1017000005E04FF000082F4890FBF4F087B2781EF8
:101710004FF0804188850846A0F82880012D0BD124
:10172000384601F024FE8246314601F019FC81461C
:1017300001F04CFEA9078886022D0BD1384601F036
:1017400016FE8246314601F00BFC814601F03EFE5A
:1017500069070887032D0CD1384601F008FE824640
:10176000314601F0FDFB814601F030FE4FF0804133
:101770008887042D0BD1384601F0F9FD82463146A9
:1017800001F0EEFB814601F021FE0B490880BDE827
:10179000F0872DE9F04705460C4616464FF0000845
:1017A00000270A2C16DC40F2CF7848F6A04090FBC8
:1017B000F4F087B228E0000040000040C027090094
:1017C000808D5B0000A24A043404004034080040CD
:1017D0002C2C0140642C06DC4FF07708644890FB09
:1017E000F4F087B210E040F24C40844206DC4FF047
:1017F0000B08604890FBF4F087B205E04FF000085A
:101800005D4890FBF4F087B2781E5C490880081FA1
:10181000A0F80080012D0CD1384601F0A8FD8246C9
:10182000314601F09DFB814601F0D0FD534908315E
:101830000880022D0CD1384601F099FD82463146D0
:1018400001F08EFB814601F0C1FD4C490C3108804E
:10185000032D0CD1384601F08AFD8246314601F055
:101860007FFB814601F0B2FD444910310880042D10
:101870000CD1384601F07BFD8246314601F070FB09
:10188000814601F0A3FD3D4914310880BDE8F08791
:101890002DE9F04705460C4616464FF00008002794
:1018A0000A2C07DC40F2CF7848F6A04090FBF4F019
:1018B00087B219E0642C06DC4FF077082C4890FBC7
:1018C000F4F087B210E040F24C40844206DC4FF066
:1018D0000B08284890FBF4F087B205E04FF00008B1
:1018E000254890FBF4F087B2781E25490880081F30
:1018F000A0F80080012D0CD1384601F038FD824659
:10190000314601F02DFB814601F060FD1C49083194
:101910000880022D0CD1384601F029FD824631465F
:1019200001F01EFB814601F051FD15490C31088084
:10193000032D0CD1384601F01AFD8246314601F0E4
:101940000FFB814601F042FD0D4910310880042D46
:101950000CD1384601F00BFD8246314601F000FB08
:10196000814601F033FD064914310880BDE8F08757
:10197000C0270900808D5B0000A24A042C040040AF
:101980002C080040062835D2DFE800F034030D179C
:10199000212B00BFFE4A128812F0400FFAD0FC4AF9
:1019A000121D118026E000BFFA4A128812F0400F83
:1019B000FAD0F84A121D11801CE000BFF64A1288C6
:1019C00012F0400FFAD0F44A121D118012E000BF4D
:1019D000F24A128812F0400FFAD0F04A121D11801C
:1019E00008E000BFEE4A128812F0400FFAD0EC4A2D
:1019F000918000BF00BF704770B505460C4604B922
:101A000070BD0A2094FBF0F631462846FFF7F4FF3C
:101A10000A2094FBF0F100FB11403030C6B2314691
:101A20002846FFF7AFFF00BFEAE730B505460C4692
:101A300004E014F8011B2846FFF7A4FF20780028D3
:101A4000F7D130BD30B505460C4624B9D5A128469E
:101A5000FFF7EBFF30BD21092846FFF7F3FF04F045
:101A60000F000A2807D204F00F0000F130012846C9
:101A7000FFF788FF06E004F00F005730C1B2284698
:101A8000FFF780FF00BFE5E72DE9F04781461446E8
:101A90001D464FF000062046294601F0ABFC0646E5
:101AA00031464846FFF7A8FF2E214846FFF76AFF58
:101AB000304601F061FC074622462B4601F06AFBE6
:101AC00004460D460022B84B2046294601F065FB2E
:101AD000074601F08FFC064631464846FFF78CFF6B
:101AE000BDE8F08770B506460C4624B9AFA1304674
:101AF000FFF79BFF70BD254604EBD57041103046C3
:101B0000FFF7F0FF04EBD5704010A4EB400030303D
:101B1000C1B23046FFF736FF00BFEBE70FB42DE947
:101B2000F84F074600BF4FF00008C146C2460024E8
:101B30000CA800900B9C68E02078252860D1601CE0
:101B400004460078632812D008DC25284FD04228AC
:101B50003AD0582842D062284ED134E0642811D0BF
:101B6000662818D0732825D0782845D135E000980C
:101B700010F8041B01F0FF0A009051463846FFF7A9
:101B800001FF3AE0009850F8048B00904146384637
:101B9000FFF732FF31E00098C01D20F007000090F1
:101BA000D0E90056083000902A4633463846FFF701
:101BB0006BFF22E0009850F8049B0090494638469D
:101BC000FFF733FF19E000BF009850F8048B009036
:101BD00041463846FFF786FF0FE000BF009850F8F7
:101BE000048B009041463846FFF72CFF05E0252185
:101BF0003846FFF7C7FE00E000BF00BF641C04E0EA
:101C000014F8011B3846FFF7BDFE2078002893D159
:101C10000090BDE8F80F5DF814FB2DE9F05F054674
:101C20000E46300101F0A3FB8146614905FB01F03E
:101C300001F09DFB8246494601F0C8F90746384647
:101C400001F0C4FB84B2204601F091FB8346394683
:101C500001F083F982464FF0834101F081F981461A
:101C600001F0B4FB80464FF6FF7000EA041404EB69
:101C7000080084B24F48806940F004004D498861F3
:101C80000846806940F4804088614B48006820F035
:101C9000F000494908600846006840F0B00008605C
:101CA0000846006820F4706008600846006840F448
:101CB0000060086040480830006840F480603E4999
:101CC000083108603B48C06840F480403949C8602A
:101CD0000846C06820F48040C8602D480830048061
:101CE000001D008842F20C01084329490C3108808C
:101CF0000846008840F020000880BDE8F09F2DE9EC
:101D0000F05F05460E46300101F031FB814628495F
:101D100005FB01F001F02BFB8246494601F056F924
:101D20000746384601F052FB84B2204601F01FFB03
:101D30008346394601F011F982464FF0834101F0A4
:101D40000FF9814601F042FB80464FF6FF7000EA32
:101D5000041404EB080084B21648806940F00400C3
:101D6000144988610846806940F40030886112484F
:101D7000001F006820F470600F49091F08600846C2
:101D8000006840F4306008600846006816E0000013
:101D9000003801400044004000480040004C004032
:101DA000005000403078000080842E4130620000F6
:101DB00040420F00001002400408014020F470402F
:101DC00008600846006840F400400860BA480068AF
:101DD00040F00800B8490860B848006940F4003095
:101DE000B64908610846006920F400300861B4482B
:101DF0000480001D008842F20C010843B049091D0F
:101E000008800846008840F020000880BDE8F09F68
:101E10002DE9F05F05460E46300101F0A8FA814633
:101E2000A84905FB01F001F0A2FA8246494601F0FB
:101E3000CDF80746384601F0C9FA84B2204601F0D1
:101E400096FA8346394601F088F882464FF083417E
:101E500001F086F8814601F0B9FA80464FF6FF702E
:101E600000EA041404EB080084B29448806940F04E
:101E70000800924988610846806940F480208861A2
:101E80009148006820F470608F4908600846006837
:101E900040F4306008600846006820F47040086034
:101EA0000846006840F40040086087480830006831
:101EB00040F400608449083108608048C06840F4FC
:101EC00080207E49C8600846C06820F48020C86031
:101ED0007E480480001D008842F20C0108437B49C3
:101EE000091D08800846008840F020000880BDE8F1
:101EF000F09F2DE9F05F05460E46300101F037FAFC
:101F00008146704905FB01F001F031FA82464946ED
:101F100001F05CF80746384601F058FA84B22046D2
:101F200001F025FA8346394601F017F882464FF052
:101F3000834101F015F8814601F048FA80464FF6DA
:101F4000FF7000EA041404EB080084B25B48806967
:101F500040F01000594988610846806940F400202B
:101F600088615B48406820F47060594948600846C1
:101F7000406840F4306048600846406820F4704093
:101F800048600846406840F4004048600846C06821
:101F900040F40060C8604948C06840F400204749E8
:101FA000C8600846C06820F40020C8604948048022
:101FB000001D008842F20C0108434649091D0880B3
:101FC0000846008840F020000880BDE8F09F2DE919
:101FD000F05F05460E46300101F0C9F981463949E6
:101FE00005FB01F001F0C3F98246494600F0EEFF1F
:101FF0000746384601F0EAF984B2204601F0B7F905
:102000008346394600F0A9FF82464FF0834100F035
:10201000A7FF814601F0DAF980464FF6FF7000EA2B
:10202000041404EB080084B22448806940F01000D6
:10203000224988610846806940F02000886108468E
:10204000C06940F48010C8612148406820F47020C5
:102050001F4948600846406840F4302048601E48E8
:10206000006820F470601C4908600846006840F46D
:102070000060086018480C30006840F00400164901
:102080000C3108600D48006940F480100B4908616C
:102090000846006920F48010086110480481808996
:1020A00042F20C0108430D4988810846808940F0BE
:1020B00020008881BDE8F09F0C080140001002401C
:1020C0000844004040420F00040C01400848004012
:1020D00000100140084C0040001401400050004036
:1020E00008B54FF4C060FEF77DFA1E208DF80000A1
:1020F00001208DF8010000208DF8020001208DF8EC
:1021000003006846FEF773FA1C208DF800000120DA
:102110008DF801008DF802008DF803006846FEF787
:1021200066FA25208DF8000001208DF801000220BC
:102130008DF8020001208DF803006846FEF757FA7B
:1021400027208DF8000001208DF8010003208DF874
:10215000020001208DF803006846FEF748FA34209B
:102160008DF8000001208DF8010004208DF8020098
:1021700001208DF803006846FEF739FA28208DF813
:10218000000001208DF8010005208DF802000120DB
:102190008DF803006846FEF72AFA08BD10B500F076
:1021A000EDF8FEF7BDF9FFF79BFF10BD30B5034614
:1021B0000A46CD1701EB9575C5F38700CD1701EBE6
:1021C0009575AD10A1EB8505AD062C0E314A9269CF
:1021D00042F001022F4DAA614FEAB53252F8202099
:1021E0000F25A540AA432C4D45F820202A4652F839
:1021F000202003FA04F51543274A42F82050274AC5
:10220000126801258D402A43244D2A60234A0C324E
:10221000126801258D402A43204D0C352A6030BDBF
:1022200030B503460A46CD1701EB9575C5F3870017
:10223000CD1701EB9575AD10A1EB8505AD062C0E04
:10224000144A926942F00102124DAA61124A52F8F0
:1022500020200F25A540AA430F4D45F820202A46EF
:1022600052F8202003FA04F515430B4A42F8205097
:102270000A4A126801258D402A43084D2A60074A00
:102280000832126801258D402A43044D08352A6022
:1022900030BD000000100240080001400004014071
:1022A0000CB50020019000906B48006840F480302D
:1022B0006949086000BF6848006800F40030009079
:1022C0000198401C0190009818B90198B0F5A06FD2
:1022D000F1D16148006810F4003F02D00120009065
:1022E00001E0002000900098012842D15B4800687E
:1022F00040F01000594908600846006820F00300CB
:1023000008600846006840F00200086052484068D3
:10231000514948600846406848600846406840F4B3
:10232000806048600846406820F47C104860084699
:10233000406840F4E81048600846006840F080704B
:10234000086000BF4448006810F0007FFAD042489F
:10235000406820F00300404948600846406840F06B
:102360000200486000BF3C48406800F00C000828AC
:10237000F9D10CBD10B5FFF793FF10BD10B536486D
:10238000006840F00100344908600846406834495C
:1023900008403149486008460068324908402E49E3
:1023A00008600846006820F48020086008464068FD
:1023B00020F4FE0048604FF41F008860FFF7DAFF4A
:1023C0004FF000602849086010BD10B500210020C2
:1023D0000022214B5B6803F00C0121B1042906D0D7
:1023E000082928D107E0214B214C236027E01F4B0F
:1023F0001F4C236023E0184B5B6803F47010164BEE
:102400005B6803F48032022303EB904022B9194B3E
:102410004343174C23600DE00F4B5B6813F4003F00
:1024200004D0144B4343124C236003E00F4B43434F
:102430000F4C236003E00D4B0D4C236000BF00BF29
:10244000054B5B68C3F303130B4CE15C084B1B6843
:10245000CB40074C236010BD00100240002002401A
:102460000000FFF8FFFFF6FE08ED00E000127A0022
:102470000800002000093D000C00002006488047AD
:1024800006480047FEE7FEE7FEE7FEE7FEE7FEE759
:10249000FEE7FEE7FEE7FEE77D23000831010008C6
:1024A000DB48806940F40060D9498861084680694A
:1024B00040F004008861D748006820F0FF00D5494B
:1024C000086008460068D4490843D2490860D348E8
:1024D000008840F00100D14908800846008840F09B
:1024E000400008800020CD491C3108804EF6602055
:1024F000091D0880C9480C38008820F44070C7497D
:102500000C3908800846008820F060000880C34825
:102510000C30008840F00100C0490C3108800846AA
:10252000008840F480700880BC481430008820F097
:102530000200BA49143108800846008820F02000C3
:102540000880B6480C30008840F03000B3490C31A8
:102550000880B248001F008840F00300AF49091FFF
:10256000088042F21070AD4918310880AB480C3831
:10257000008840F00100A9490C3908807047A44840
:10258000C06940F00100A249C8610846806940F076
:1025900004008861A248006820F0FF00A04908609C
:1025A0000846006840F044000860C804808940F094
:1025B0000100C90488810846808940F04000888174
:1025C000002008854EF6602088850846008820F4A3
:1025D000407008800846008820F0600008800846A7
:1025E000008B40F0010008830846008B40F48070A7
:1025F00008830846008C20F0020008840846008CFE
:1026000020F0200008840846008B40F0300008834A
:102610000846008940F00300088142F21070888467
:102620008006008840F00100088070477848C06943
:1026300040F002007649C8610846806940F0040015
:10264000886177480068764908600846006840F06D
:10265000884008607348008840F001007149088094
:102660000846008840F04000088000206D491C3179
:1026700008804EF66020091D08806A480C380088E2
:1026800020F4407067490C3908800846008820F023
:102690006000088063480C30008840F00100614908
:1026A0000C3108800846008840F4807008805D483E
:1026B0001430008820F002005A491431088008467E
:1026C000008820F0200008804806008B40F0300091
:1026D000490608830846008940F00300088142F259
:1026E000107088848006008840F0010008807047E0
:1026F0004748C06940F004004549C8610846806900
:1027000040F0080088614348001F00684149091FE4
:1027100008600846006840F0884008604248008829
:1027200040F00100404908800846008840F0400021
:10273000088000203C491C3108804EF66020091DAD
:10274000088039480C38008820F4407036490C392C
:1027500008800846008820F06000088032480C306D
:10276000008840F0010030490C310880084600889C
:1027700040F4807008802C481430008820F002005B
:102780002949143108800846008820F0200008807C
:1027900025480C30008840F0300023490C31088077
:1027A0002148001F008840F003001F49091F0880CE
:1027B00042F210701C49183108801B480C38008800
:1027C00040F0010018490C39088070470146012982
:1027D00006D0022909D003290CD0042914D10EE017
:1027E0000E4A1832128810B210E04FF08042928CDC
:1027F00010B20BE00B4A1832128810B206E00A4AF7
:102800001832128810B201E0002000BF00BF7047EC
:1028100000100240040C0140440000FF0C2C014059
:10282000000801400C0400400C08004070B505464B
:102830000C460121284600F00DF90221204600F047
:1028400009F9022000F055F96D49087000206D4922
:10285000087011E000BF6C48008810F0400FFAD0FB
:102860006A4868490978405C6749091D08806548DD
:102870000078401C63490870624800786049097814
:102880008842E7DB70BD1CB56148806940F00800F4
:102890005F4988615F48006820F470205D490860E6
:1028A0000846006840F4403008600846006820F49C
:1028B000700008600846006840F44010086001207D
:1028C00000210B460A46CDE900104FF07C51C8208C
:1028D000FEF783FD5049088800214F4A14321180C9
:1028E0001CBD0146002901DA484270470846FCE752
:1028F0002DE9F04F85B00446002004902046FFF7F4
:10290000F0FF03904548006800F036FDCDE9000176
:10291000039800F031FD07460022414B00F03DFCDA
:102920008246DDE9002300F0AAFC054600F0A8FD80
:1029300002903C48006800F011FD8046029900F0CA
:102940000FFB06463848006800F008FD0746314690
:1029500000F0AEFA054600F020FD8146002C19DBA0
:10296000484600F009FD824600222D4B00F015FC80
:10297000074600222D4B00F082FC054600F080FD4A
:10298000049001202A4908604FF000002949C1F84D
:10299000B40119E0C9F1000000F0EEFC0546002288
:1029A0001F4B00F0FAFB07460022204B00F067FCAB
:1029B000824600F065FD049000201D4908604FF03C
:1029C00001001C49C1F8B4011348058805F1010054
:1029D00000F0C4FC0746049900F0C2FA064600F075
:1029E000F5FC0D491431088005B0BDE8F08F704743
:1029F00010B5FFF748FF0720FDF7EDFB10BD000005
:102A00003000002031000020003801405800002034
:102A100000100240040C01402C040040240000205F
:102A20000000F03F2C0000202800002000408F40D4
:102A3000B08121420080214230B503461C788C547D
:102A40005D78541C0D559D78941C0D55DD78D41C73
:102A50000D5530BD13B50C460A2C00DC04B91CBD65
:102A60000B2C43D2DFE804F042060C12181E242A75
:102A700030363C00012244496846FFF7DDFF35E06F
:102A8000052241496846FFF7D7FF2FE009223E495A
:102A90006846FFF7D1FF29E00D223B496846FFF762
:102AA000CBFF23E0112238496846FFF7C5FF1DE040
:102AB000152235496846FFF7BFFF17E01922324952
:102AC0006846FFF7B9FF11E01D222F496846FFF75E
:102AD000B3FF0BE021222C496846FFF7ADFF05E06C
:102AE000252229496846FFF7A7FF00BF00BF00BFA6
:102AF000B5E701460A2900DC09B900207047242007
:102B0000214A10700B293CD2DFE801F03B060B1084
:102B1000151A1F24292F350005201B4A5071062045
:102B2000ECE70920184A50720A20E7E70D20164A00
:102B300050730E20E2E71120134A50741220DDE793
:102B40001520114A50751620D8E719200E4A5076E4
:102B50001A20D3E71D200C4A50771E20CEE72120F3
:102B6000094A82F821002220C8E72520064A82F877
:102B700025002620C2E72920034A82F829002A20BE
:102B8000BCE70020BAE700005800002001201649E9
:102B900008607047022014490860704704201249F9
:102BA00008607047082010490860704710200E49DF
:102BB0000860704720200C490860704710B50B482A
:102BC000006860B9C820FDF7E2FC00BF0748006854
:102BD0000028FBD006A14FF00100FEF79FFF4FF445
:102BE00000500149086010BD1404014034812242A4
:102BF00068656C6C6F0000004FF08040008A4FF0F9
:102C00008040008A20F001004FF080410882704728
:102C10002DE9F0413748008810F0010F68D03548A1
:102C2000008820F00100334908800F210720FDF7BC
:102C300059FC314908600220FFF7C8FD2F490860A0
:102C40002D4800682E490968401A2E4908602E4810
:102C50000068096808442C4908602A480068B0F5F3
:102C6000487F04DC2748006810F5487F06DA2749CA
:102C700008880021254A1432118035E0214909686D
:102C8000234A1268881A00F069FB07462148016848
:102C9000384600F065F905461A48006800F05EFB0A
:102CA00007461D480168384600F05AF9064629468D
:102CB00000F0FEF8044600F070FB18490860084672
:102CC0000068B0F5487F03DB4FF44870086007E008
:102CD0001248006810F5487F02DC11480F4908606F
:102CE0000E480068FFF704FE0648006808490860BF
:102CF000BDE8F081100800401C00002020000020EA
:102D000034000020400000204C0000202C04004033
:102D1000480000203C000020380000204400002033
:102D2000E0FCFFFF1D49098811F0200F34D01B493A
:102D3000091D0988C8B21A49098811F4004F2BD11E
:102D40001749098811F4804F0CD00A2803D00021BC
:102D5000134A118020E01249098841F40041104AC9
:102D6000118019E00D2806D10D49098841F48041F0
:102D70000B4A118010E00A490988C1F30D01094A84
:102D8000505407490988491C054A11801146098891
:102D9000C72901DD00211180704700000038014083
:102DA00050000020820000201D49098811F0200FEA
:102DB00034D01B49091D0988C8B21A49098811F481
:102DC000004F2BD11749098811F4804F0CD00A28E5
:102DD00003D00021134A118020E01249098841F4F0
:102DE0000041104A118019E00D2806D10D490988CB
:102DF00041F480410B4A118010E00A490988C1F36F
:102E00000D01094A505407490988491C054A118097
:102E100011460988C72901DD002111807047000093
:102E200000380140520000204A0100201D49098855
:102E300011F0200F34D01B49091D0988C8B21A4966
:102E4000098811F4004F2BD11749098811F4804FDC
:102E50000CD00A2803D00021134A118020E0124927
:102E6000098841F40041104A118019E00D2806D16B
:102E70000D49098841F480410B4A118010E00A494C
:102E80000988C1F30D01094A505407490988491CB2
:102E9000054A118011460988C72901DD00211180EA
:102EA000704700000038014054000020120200204A
:102EB000F0B480EA0102D40F4200B2EB410F02D21B
:102EC0000246084611464A0042D0C30DDDB2C1F3A6
:102ED000C752AD1A202D35DAC1F3160141F40002B4
:102EE00004B15242C5F1200602FA06F12A4110440B
:102EF000B3EBD05F23D0C4B1012DA0EBC35009DCEC
:102F0000F0BC4FF0004202EAC35200F50000DBB211
:102F100000F016BB400000F1807000EBC350A0F140
:102F2000807040EAD170490009E0490841EAC07167
:102F3000A0EBC35000F50000400800EBC350F0BC0C
:102F400000F0F5BA6142012202EB4101001BF6E7F5
:102F5000F0BC704781F00041AAE780F00040A7E78D
:102F600080EA010210B502F00043400026D04A007A
:102F700023D04FEA106101EB1261C0F35600C2F397
:102F8000560240F4000042F40002A0FB0220A1F12E
:102F90007F014FEA0040140401D000F1010050EA23
:102FA000124001D44000491EC2B20C0604EBD010FE
:102FB000401C4008802A02D003E0002010BD20F011
:102FC0000100002900DA0020184310BD30B480EA67
:102FD000010202F0004530F0004221F0004015D01F
:102FE000A0B1C0F3C753C2F3C754C2F31601C0F374
:102FF0001600E41A41F4000140F400027D349142CD
:1030000001D3641C00E04900002C02DA30BC00202F
:1030100070474FF400000023914201D3891A034303
:1030200040084FEA4101F7D151B1914202D14FF02E
:10303000004105E002D24FF0010101E06FF0010113
:1030400003EBC450284430BC00F071BA2DE9FE4FA8
:10305000804681EA0300C00F0C46009021F0004139
:1030600023F00045B8EB0200A94105D240462146B5
:1030700090461C460B46024623F00040104304D104
:103080004046214603B0BDE8F08F270DC7F30A0084
:10309000C3F30A510290401A0190402866DAC3F344
:1030A000130040F4801B0098924620B10023D2EB1D
:1030B000030A63EB0B0B01985946C0F140025046DE
:1030C00000F004FA06460D4650465946019A00F0B3
:1030D0001CFA10EB08006141002487EA115284EACF
:1030E000E7731A433BD0009A3AB3019A012A4FEA98
:1030F000075210DC001B61EB02014FF0004202EAB4
:103100000752CDE90042001C41F5801132462B46A2
:1031100000F050FAB6E7001B61EB0201001C41F51C
:10312000801300185B412018A2F5001747EB03013C
:1031300040EAD570B6196D4111E06D084FEA3606C8
:1031400045EAC0754FEA0752001B61EB0201001C03
:1031500041F5801149084FEA3000001951413246CB
:103160002B4603B0BDE8F04F00F017BA00980122DB
:1031700040000023D0EB020263EBE073009821468D
:103180004FEAE074B8EB000061EB0401E9E783F07B
:1031900000435BE781F0004158E72DE9FE4F81EAEB
:1031A000030404F0004421F0004100944FF0000BB0
:1031B00023F0004350EA010402D052EA030404D190
:1031C0000020014603B0BDE8F08FC3F30A54C1F3F9
:1031D0000A552C44A4F2F3340194A0FB0254C1F329
:1031E000130141F48011C3F3130343F4801301FB73
:1031F000024400FB034E840A970A44EA815447EADA
:103200008357A4FB076802958D0A05FB07854FEAE3
:10321000932C04FB0C542705029D4FEA065847EAFD
:103220001637B5EB08056EEB070C870E920E47EAD2
:10323000811742EA8312A7FB0201B6EB0B0164EB94
:1032400000042B0D43EA0C335E1844EB1C50DA46A5
:103250005146E7FB0201C5F313044FEA0B3343EA7F
:1032600014534FEA0432019C43EA0603A4F10C0410
:103270000294009CCDE900B400F09CF9A2E72DE98E
:10328000F04D81EA030404F0004B21F000451446A0
:103290004FF0000A23F0004150EA050220D054EA22
:1032A00001021DD0C5F30A570246C5F31303C1F34B
:1032B0001300C1F30A5640F4801543F48013A7EBC2
:1032C0000608101BD64608F2FD3873EB050002D342
:1032D00008F1010801E092185B41B8F1000F03DA30
:1032E00000200146BDE8F08D00204FF48011064615
:1032F00084460EE0171B73EB050705D3121B63EB27
:10330000050306434CEA010C49084FEA30009218C5
:103310005B4150EA0107EDD152EA030012D082EA84
:10332000040083EA0501084303D100224FF0004363
:1033300008E0101BAB4102D20122002302E06FF033
:10334000010253101AEB06004CEB085110EB0A0077
:1033500041EB0B01BDE8F04D00F01FB9C10F80EA51
:10336000E0700844CA079623002100F0E9B89623CC
:103370000022114600F0E4B80EB5C10F80EAE070FB
:103380000844CA07002140F233438DE80E000A4684
:103390000B4600F00FF903B000BD00F0004220F032
:1033A0000040C10DC0F3160040F400007F2901DA8F
:1033B00000207047962903DCC1F19601C84001E066
:1033C00096398840002AF4D04042704720F00040EF
:1033D000C10DC0F3160040F400007F2901DA00207F
:1033E0007047962903DCC1F19601C84070479639B1
:1033F0008840704770B5C1F30A5201F000450024BF
:10340000C1F3130140F2FF3341F480119A4201DA13
:10341000002070BD40F233439A42A2F2334203DCF3
:10342000524200F062F800E090402C43F1D040425C
:1034300070BD00F0004230F000400AD0C10D01F52F
:103440006071C0F3160042EA0151C20840071143FF
:10345000704700200146704730B5002904DB4FF06B
:103460000044404264EB0101002B04DB4FF00044B8
:10347000524264EB0303994208BF904230BD000002
:1034800001F0004330B421F0004150EA010206D0BF
:103490000A0DA2F56072C1F31301002A02DC30BCF0
:1034A00000207047440F44EAC104C100E01830BC5A
:1034B00000EBC25000F03BB8002801DBC0F1004037
:1034C000002901DBC1F1004188427047202A04DB5A
:1034D000203A00FA02F1002070479140C2F1200327
:1034E00020FA03F3194390407047202A04DB203A66
:1034F00021FA02F00021704721FA02F3D040C2F114
:1035000020029140084319467047202A06DBCB175A
:10351000203A41FA02F043EAE07306E041FA02F38E
:10352000D040C2F12002914008431946704700295B
:10353000A8BF7047401C490008BF20F00100704739
:1035400010B4B0FA80FC00FA0CF050EA010404BF99
:1035500010BC704749B1CCF1200421FA04F411FAEF
:103560000CF118BF012121430843A3EB0C01CB1D33
:103570000106000A002BBEBF002010BC704700EB04
:10358000C35010440029A4BF10BC7047401C490020
:1035900008BF20F0010010BC704710B5002B08DAFE
:1035A000401C41F1000192185B411A4301D120F007
:1035B000010010BD2DE9F04D92469B4611B1B1FAC4
:1035C00081F202E0B0FA80F220329046FFF77EFFEF
:1035D00004460F4640EA0A0041EA0B0153465A46A8
:1035E000084303D120463946BDE8F08D114653EA21
:1035F000010015D0C8F140025046FFF776FF05469E
:103600000E46504659464246FFF760FF084301D038
:10361000012000E00020054346EAE0762C433743D2
:103620000A984FEA4453A0EB08004FEAD4240A302A
:103630004FF0000244EA47544FEAD72502D5002054
:103640000146D1E7010510196941DDE90845001976
:103650006941BDE8F04DA0E7064C074D06E0E06883
:1036600040F0010394E8070098471034AC42F6D3C9
:10367000FCF762FD9C360008BC36000802E008C872
:10368000121F08C1002AFAD170477047002001E0DC
:1036900001C1121F002AFBD170470000BC36000890
:1036A00000000020580000007C3600081437000895
:1036B00058000020880600008C360008000000003A
:1036C0000000000000A24A0400000000000000000A
:1036D00001020304060708090A00000009000000AF
:1036E000E803000090010000580200000000000004
:1036F000350C00000000A042000048C2000000009D
:1037000000000000000000000000000000000000B9
:0437100000000000B5
:0400000508000131BD
:00000001FF
