:020000040800F2
:10000000B8060020A52A0008AD2A0008AF2A00087B
:10001000B12A0008B32A0008B52A00080000000031
:10002000000000000000000000000000B72A0008E7
:10003000B92A000800000000BB2A0008BD2A0008F9
:10004000BF2A0008BF2A0008BF2A0008BF2A0008EC
:10005000BF2A0008BF2A0008BF2A0008BF2A0008DC
:10006000BF2A0008BF2A0008BF2A0008BF2A0008CC
:10007000BF2A0008BF2A0008BF2A0008BF2A0008BC
:10008000BF2A0008BF2A0008BF2A0008BF2A0008AC
:10009000BF2A0008BF2A0008BF2A0008BF2A00089C
:1000A000BF2A0008BF2A0008BF2A0008BF2A00088C
:1000B00035310008BF2A00084D310008BF2A00086A
:1000C000BF2A0008BF2A0008BF2A0008BF2A00086C
:1000D000BF2A0008E131000865320008E932000853
:1000E000BF2A0008BF2A0008BF2A0008BF2A00084C
:1000F000BF2A0008BF2A0008BF2A0008BF2A00083C
:10010000BF2A0008BF2A0008BF2A0008BF2A00082B
:10011000BF2A0008BF2A0008BF2A0008BF2A00081B
:10012000BF2A0008BF2A0008BF2A0008BF2A00080B
:10013000DFF80CD003F0EEFC004800474501000852
:10014000B806002002F0B8FB042000F0B6FB4FF424
:10015000E131482002F0EFF802F024FF02F023FD25
:10016000074801F0A6FE09E00648006803F05DFBC1
:10017000044602F06FFE0A2000F007FAF4E70000E0
:10018000000020411C0000200146DE48006820F0ED
:100190001F00DC4A10601046006808431060D94810
:1001A0002C38006840F48000D64A2C3A106000BF1A
:1001B000D4483438006810F0020FF9D0D148183014
:1001C000006880B27047102815D2DFE800F00815EB
:1001D000222F3C495663707D8A97A4B1BECBCA4991
:1001E000896941F00401C84A9161C849096821F050
:1001F0000F01C64A1160C2E0C349896941F0040198
:10020000C14A9161C149096821F0F001BF4A1160FA
:10021000B5E0BD49896941F00401BB4A9161BB4920
:10022000096821F47061B94A1160A8E0B64989698A
:1002300041F00401B44A9161B449096821F4704164
:10024000B24A11609BE0B049896941F00401AE4AAD
:100250009161AE49096821F47021AC4A11608EE0C9
:10026000A949896941F00401A74A9161A749096830
:1002700021F47001A54A116081E0A349896941F028
:100280000401A14A9161A149096821F070619F4A66
:10029000116074E09C49896941F004019A4A9161B6
:1002A0009A49096821F07041984A116067E09649BF
:1002B000896941F00401944A91619549096821F0E6
:1002C0000F01934A11605AE08F49896941F0080192
:1002D0008D4A91618E49096821F0F0018C4A1160C4
:1002E0004DE08949896941F01001874A9161894946
:1002F000096821F00F01874A116040E0824989694D
:1003000041F01001804A91618249096821F0F001B1
:10031000804A116033E07C49896941F010017A4AD2
:1003200091617C49096821F470617A4A116026E084
:100330007549896941F01001734A916175490968ED
:1003400021F47041734A116019E06F49896941F0E5
:1003500010016D4A91616F49096821F470216D4A5D
:1003600011600CE06849896941F01001664A9161A9
:100370006849096821F47001664A116000BF00BF36
:100380006149896941F400715F4A91611146C96808
:1003900041F40071D1601146C96821F40071D16047
:1003A0001146496821F4404151601146496841F4C1
:1003B00000415160534930390968574A1140514A48
:1003C000303A11601146096811601146096821F43C
:1003D00080711160111D096821F00201121D116068
:1003E0001146096821F4602111601146096841F441
:1003F000602111601146096841F4801111601146B5
:10040000096821F4006111603E490839096821F446
:1004100070013C4A083A11601146096800211160D8
:100420000A2811DA00EB400307229A40D143354AEB
:10043000243A12680A40334B243B1A601A46126869
:1004400042F460021A6021E00A2290FBF2F302FB00
:10045000130202EB420307229A40D143294A283A69
:1004600012680A40274B283B1A600A2290FBF2F3DD
:1004700002FB130202EB420307229A40214B283B66
:100480001B681A431F4B283B1A6000BF1D492C39BB
:10049000096841F001011B4A2C3A116011460968B4
:1004A00041F00801116000BF16492C39096811F0AC
:1004B000080FF9D113492C39096841F00401114A98
:1004C0002C3A116000BF0F492C39096811F0040F54
:1004D000F9D170472DE9F04107460C46002500266A
:1004E00008E03846FFF750FE0544C82000F02AF81F
:1004F000701CC6B2A642F4DBB5FBF4F080B2BDE8D6
:10050000F081000034240140001002400008014046
:10051000000C014000100140FFFFF00010B56FF02B
:10052000040000F03FFA2A4800682A49B0FBF1F0C5
:1005300029490870084600784FF47A7148432749E2
:10054000086010BD0146244A12784A434FF0E02368
:100550005A6100229A611A46126942F001021A6138
:1005600000BF4FF0E022106910F0010F02D010F42C
:10057000803FF6D04FF0E022126922F001024FF0E6
:10058000E0231A6100229A6170470146134A1268FB
:100590004A434FF0E0235A6100229A611A461269D9
:1005A00042F001021A6100BF4FF0E022106910F022
:1005B000010F02D010F4803FF6D04FF0E022126914
:1005C00022F001024FF0E0231A6100229A61704785
:1005D0000800002000127A00000000200400002023
:1005E00070B5BF4B9B69012484402343BC4CA3617D
:1005F000841E072C36D2DFE804F004366897C9FD64
:10060000FB00072911DC8D000F24AC40E343B54CFF
:1006100024681C40B34D2C602C4624688D0002FADF
:1006200005F52C43AF4D2C601CE00B46CE1701EBBB
:100630005676F610A1EBC606F4B2A6000F23B3401F
:10064000DD43A84B1B1D1B682B40A64E361D336097
:1006500033461B68A60002FA06F63343A14E361D48
:10066000336000BF27E1072911DC8D000F24AC4067
:10067000E3439D4C24681C409B4D2C602C46246811
:100680008D0002FA05F52C43974D2C601CE00B46BB
:10069000CE1701EB5676F610A1EBC606F4B2A60013
:1006A0000F23B340DD43904B1B1D1B682B408E4E28
:1006B000361D336033461B68A60002FA06F6334344
:1006C000894E361D336000BFF5E0072911DC8D002F
:1006D0000F24AC40E343854C24681C40834D2C60C0
:1006E0002C4624688D0002FA05F52C437F4D2C60C2
:1006F00019E00B46CE1701EB5676F610A1EBC606B5
:10070000F4B2A6000F23B340DD43784B5B682B4067
:10071000764E736033465B68A60002FA06F63343F2
:10072000724E736000BFC6E0072911DC8D000F24F4
:10073000AC40E3436E4C24681C406D4D2C602C464D
:1007400024688D0002FA05F52C43694D2C601CE0ED
:100750000B46CE1701EB5676F610A1EBC606F4B2A7
:10076000A6000F23B340DD43614B1B1D1B682B40CC
:100770005F4E361D336033461B68A60002FA06F64C
:1007800033435B4E361D336000BF94E0072911DC14
:100790008D000F24AC40E343564C24681C40554D5B
:1007A0002C602C4624688D0002FA05F52C43514D2F
:1007B0002C601CE00B46CE1701EB5676F610A1EB31
:1007C000C606F4B2A6000F23B340DD43494B1B1D00
:1007D0001B682B40474E361D336033461B68A6000E
:1007E00002FA06F63343434E361D336000BF62E023
:1007F00032E0FFE7072911DC8D000F24AC40E34312
:100800003D4C24681C403C4D2C602C4624688D00D7
:1008100002FA05F52C43384D2C601CE00B46CE1730
:1008200001EB5676F610A1EBC606F4B2A6000F2334
:10083000B340DD43304B1B1D1B682B402E4E361D35
:10084000336033461B68A60002FA06F633432A4E8D
:10085000361D336000BF2EE0072911DC8D000F2408
:10086000AC40E343254C24681C40244D2C602C46AE
:1008700024688D0002FA05F52C43204D2C6019E008
:100880000B46CE1701EB5676F610A1EBC606F4B276
:10089000A6000F23B340DD43184B5B682B40174E77
:1008A000736033465B68A60002FA06F63343134EC4
:1008B000736000BF00BF00BF70BD0949896941F086
:1008C0000101074A91610E49496821F0E0610C4A33
:1008D00051601146496841EA00615160704700006B
:1008E0000010024000080140000C014000100140CF
:1008F0000014014000180140001C0140002001408C
:100900000000014031490143314A1160704770B520
:10091000002100230F22C4780CB32D4C246804F46A
:10092000E064C4F5E064210AC1F10403CA404478DC
:1009300004FA03F18478144021430901254C067818
:10094000A155047804F01F050124AC4005786D1111
:100950004FF0E02606EB8505C5F8004109E0047874
:1009600004F01F050124AC401B4D0678761145F8B4
:10097000264070BD194A0A400243154B1B1F1A60DE
:10098000704739B1124A121D12680243104B1B1DE9
:100990001A6006E00E4A121D126882430C4B1B1DA2
:1009A0001A607047042808D14FF0E021096941F02E
:1009B00004014FF0E022116107E04FF0E0210969E6
:1009C00021F004014FF0E022116170470000FA05A8
:1009D0000CED00E000E400E080E100E080FFFF1F9C
:1009E000FE4A926942F40062FC4B9A61FC4A108014
:1009F000121F1180FA4A1832128842F40042F84B52
:100A000018331A808022F64B2C3B1A801A46128823
:100A100042F001021A807047F04AD26942F00102A6
:100A2000EE4BDA619A04908511858022D3051A80F5
:100A3000D205128842F001021A807047E74AD26953
:100A400042F00202E54BDA61E64A1080121F118083
:100A50008022E44B2C3B1A801A46128842F0010295
:100A60001A807047DD4AD26942F00402DB4BDA613A
:100A7000DD4A1080121F11808022DB4B2C3B1A8034
:100A80001A46128842F001021A807047012806D0E7
:100A900002282BD0032850D0042826D172E0CF4959
:100AA000896941F00401CD4A9161D049096821F07A
:100AB0000F01CE4A11601146096841F00B01116027
:100AC000C7491439098841F06001C54A143A1180B8
:100AD0001146098841F008011180C1490C39098883
:100AE00041F00101BE4A0C3A118070E0BB498969AE
:100AF00041F00401B94A9161BC49096821F0F00153
:100B0000BA4A11601146096841F0B0011160B44958
:100B10001439098841F4C041B14A143A1180114690
:100B2000098841F400611180AD490C39098841F010
:100B30001001AB4A0C3A118049E0A849896941F09B
:100B40000401A64A9161A949096821F47061A74A84
:100B500011601146096841F430611160A0491039F3
:100B6000098841F060019E4A103A118011460988B7
:100B700041F008011180111D098841F48071121D96
:100B8000118024E09549896941F00401934A9161FB
:100B90009649096821F47041944A11601146096828
:100BA00041F4304111608E491039098841F4C04147
:100BB0008B4A103A11801146098841F40061118076
:100BC000111D098841F48051121D118000BF00BF22
:100BD00070472DE9F84F81468A4614461D46DDF8D8
:100BE00028B00020009000268149484602F0C2FE4D
:100BF0000BD840F2CF7000907E49484602F00EFCC0
:100C0000074602F041FE86B22DE07B49484602F0DD
:100C1000B1FE0AD8772000907849484602F0FEFBE2
:100C2000074602F031FE86B21DE0484602F05FFE44
:100C30000746734A734B02F06DFE0AD80B200090F2
:100C40007149484602F0EAFB074602F01DFE86B2F3
:100C500009E0002000906D49484602F0DFFB07469E
:100C600002F012FE86B2711E88B20099FFF7B8FE3C
:100C7000012C0FD10120FFF709FF304602F0D5FD0E
:100C80008046514602F0CAFB074602F0FDFD54497A
:100C900008310880012D0FD10220FFF7F7FE304602
:100CA00002F0C3FD8046514602F0B8FB074602F051
:100CB000EBFD4B490C310880BBF1010F0FD1032034
:100CC000FFF7E4FE304602F0B0FD8046514602F0E8
:100CD000A5FB074602F0D8FD4149103108800B986A
:100CE00001280FD10420FFF7D1FE304602F09DFD10
:100CF0008046514602F092FB074602F0C5FD384996
:100D000014310880BDE8F88F012806D0022828D0C9
:100D100003284AD0042823D186E03049896941F06C
:100D200004012E4A91613149091F096821F00F0120
:100D30002E4A121F11601146096841F00B01116023
:100D4000D104098B41F06001D20411831146098B53
:100D500041F0080111831146098C41F00101118411
:100D600084E01E49896941F004011C4A91611F49D0
:100D7000091F096821F0F0011C4A121F1160114679
:100D8000096841F0B0011160D104098B41F4C04100
:100D9000D20411831146098B41F40061118311467D
:100DA000098C41F01001118460E00C49896941F01F
:100DB00004010A4A91610D49091F096821F4706113
:100DC0000A4A121F11601146096841F4306111602E
:100DD000D104898B41F06001D20419E00010024077
:100DE0002C2C01402C0400402C0800400408014039
:100DF0000000C842000010420000204100001644DC
:100E00004A0C022B8716ED3F0080BB4500A08C47A3
:100E100091831146898B41F0080191831146098C19
:100E200041F48071118421E0FA49896941F004019B
:100E3000F84A9161F849096821F47041F64A116055
:100E40001146096841F430411160D104898B41F4A5
:100E5000C041D20491831146898B41F40061918392
:100E60001146098C41F48051118400BF00BF7047C6
:100E70002DE9F84F81468A4614461D46DDF828B014
:100E8000002000900026E549484602F073FD0BD88B
:100E900040F2CF700090E249484602F0BFFA0746A0
:100EA00002F0F2FC86B22DE0DE49484602F062FD17
:100EB0000AD877200090DC49484602F0AFFA07468E
:100EC00002F0E2FC86B21DE0484602F010FD074643
:100ED000D64AD74B02F01EFD0AD80B200090D54908
:100EE000484602F09BFA074602F0CEFC86B209E0C3
:100EF00000200090D049484602F090FA074602F0E0
:100F0000C3FC86B2711E88B20099FFF785FD012CE3
:100F10000ED10120FFF7F8FE304602F086FC804635
:100F2000514602F07BFA074602F0AEFCA107888624
:100F3000012D0ED10220FFF7E7FE304602F075FCCE
:100F40008046514602F06AFA074602F09DFCA90766
:100F50000887BBF1010F0FD10320FFF7D5FE304604
:100F600002F063FC8046514602F058FA074602F050
:100F70008BFC4FF0804188870B9801280ED104200C
:100F8000FFF7C2FE304602F050FC8046514602F0A8
:100F900045FA074602F078FCA8490880BDE8F88FBA
:100FA000012806D0022829D003284CD0042824D1B7
:100FB0006EE09849896941F00401964A9161964929
:100FC000096821F07061944A11601146096841F086
:100FD000306111609A49098841F06001984A118096
:100FE0001146098841F008011180954908310988A6
:100FF00041F00101924A083211806EE08549896909
:1010000041F00401834A91618349096821F07041EC
:10101000814A11601146096841F0304111608849E8
:10102000098841F4C041864A11801146098841F47B
:101030000061118082490831098841F01001804A1D
:101040000832118049E07349896941F00801714A09
:1010500091617C49096821F00F017A4A11601146BB
:10106000096841F00B0111607549091D098841F0BB
:101070006001734A121D11801146098841F0080170
:101080001180111D098841F48071121D118024E026
:101090006049896941F008015E4A916169490968BE
:1010A00021F0F001674A11601146096841F0B00172
:1010B00011606349091D098841F4C041604A121D4D
:1010C00011801146098841F400611180111D0988C1
:1010D00041F48051121D118000BF00BF70472DE9FF
:1010E000F84F81468A4614461D46DDF828B0002098
:1010F000009000264949484602F03CFC0BD840F2DB
:10110000CF7000904649484602F088F9074602F041
:10111000BBFB86B22DE04349484602F02BFC0AD8BF
:10112000772000904049484602F078F9074602F0DF
:10113000ABFB86B21DE0484602F0D9FB07463B4AAE
:101140003B4B02F0E7FB0AD80B2000903949484698
:1011500002F064F9074602F097FB86B209E000202E
:1011600000903549484602F059F9074602F08CFBD9
:1011700086B2711E88B20099FFF760FC012C0FD176
:101180000120FFF70DFF304602F04FFB804651462D
:1011900002F044F9074602F077FB29491C31088028
:1011A000012D0FD10220FFF7FBFE304602F03DFB80
:1011B0008046514602F032F9074602F065FB2049AD
:1011C00020310880BBF1010F0FD10320FFF7E8FEAB
:1011D000304602F02AFB8046514602F01FF90746CE
:1011E00002F052FB1649243108800B9801280FD1D8
:1011F0000420FFF7D5FE304602F017FB804651462B
:1012000002F00CF9074602F03FFB0D492831088037
:10121000BDE8F88F00100240000801400000C842FD
:101220000000104200002041000016444A0C022B2E
:101230008716ED3F0080BB4500A08C474000004072
:1012400018040040000C0140012806D0022829D0D3
:1012500003284CD0042824D170E0FE49896941F06C
:101260000801FC4A9161FC49096821F07061FA4A61
:1012700011601146096841F030611160F749098831
:1012800041F06001F54A11801146098841F00801DA
:101290001180F2490831098841F00101EF4A083212
:1012A000118072E0EB49896941F00801E94A9161D6
:1012B000E949096821F07041E74A1160114609685F
:1012C00041F030411160E549098841F4C041E34AE9
:1012D00011801146098841F400611180DF4908310D
:1012E000098841F01001DD4A083211804DE0D949EA
:1012F000896941F00801D74A9161D749091D0968F8
:1013000021F00F01D44A121D11601146096841F005
:101310000B011160D149091D098841F06001CF4AD4
:10132000121D11801146098841F008011180111D1C
:10133000098841F48071121D118026E0C549896930
:1013400041F00801C34A9161C349091D096821F0B0
:10135000F001C14A121D11601146096841F0B00147
:101360001160BE49091D098841F4C041BB4A121DE4
:1013700011801146098841F400611180111D09880E
:1013800041F48051121D118000BF00BF70472DE94C
:10139000F84F81468A4614461D46DDF828B00020E5
:1013A00000900026AE49484602F0E4FA0BD840F21D
:1013B000CF700090AB49484602F030F8074602F083
:1013C00063FA86B22DE0A849484602F0D3FA0AD85B
:1013D00077200090A549484602F020F8074602F021
:1013E00053FA86B21DE0484602F081FA0746A04A49
:1013F000A04B02F08FFA0AD80B2000909E49484675
:1014000002F00CF8074602F03FFA86B209E000202D
:1014100000909A49484602F001F8074602F034FA73
:1014200086B2711E88B20099FFF71CFB012C0FD108
:101430000120FFF709FF304602F0F7F980465146D8
:1014400001F0ECFF074602F01FFA84491C310880C6
:10145000012D0FD10220FFF7F7FE304602F0E5F92B
:101460008046514601F0DAFF074602F00DFA7B494B
:1014700020310880BBF1010F0FD10320FFF7E4FEFC
:10148000304602F0D2F98046514601F0C7FF0746C8
:1014900002F0FAF97149243108800B9801280FD124
:1014A0000420FFF7D1FE304602F0BFF980465146D6
:1014B00001F0B4FF074602F0E7F9684928310880D7
:1014C000BDE8F88F2DE9FC5F0446884615461E46A8
:1014D000DDE90C9A0020019000270A2C07D840F281
:1014E000CF70019048F6A040B0FBF4F719E0642CEF
:1014F00006D8772001906248B0FBF4F087B210E084
:1015000040F24C40844206D80B2001905D48B0FB6D
:10151000F4F087B205E0002001905B48B0FBF4F0E6
:1015200087B2791E88B20199FFF75AFA012D0ED1C0
:101530000120FFF7ABFA384602F077F941460090F8
:1015400001F06CFF834602F09FF950490880012E9C
:101550000FD10220FFF79AFA384602F066F94146A9
:10156000009001F05BFF834602F08EF94749091DA8
:101570000880B9F1010F0FD10320FFF787FA384631
:1015800002F053F94146009001F048FF834602F013
:101590007BF93E4908310880BAF1010F0FD10420D0
:1015A000FFF774FA384602F040F94146009001F026
:1015B00035FF834602F068F934490C310880BDE8F4
:1015C000FC9F2DE9FC5F0446884615461E46DDE972
:1015D0000C9A0020019000270A2C07D840F2CF7007
:1015E000019048F6A040B0FBF4F719E0642C06D84F
:1015F000772001902248B0FBF4F087B210E040F26F
:101600004C40844206D80B2001901E48B0FBF4F0F9
:1016100087B205E0002001901B48B0FBF4F087B2D0
:10162000791E88B20199FFF7F7F9012D0ED101203B
:10163000FFF76AFB384602F0F8F84146009001F0E7
:10164000EDFE834602F020F9A9078886012E2DD1F0
:1016500002201DE000100240000C0140180800406C
:101660000000C84200001042000020410000164463
:101670004A0C022B8716ED3F0080BB4500A08C472B
:10168000C0270900808D5B0000A24A04342C014071
:10169000FFF73AFB384602F0C8F84146009001F0E7
:1016A000BDFE834602F0F0F8B1070887B9F1010FDB
:1016B0000FD10320FFF728FB384602F0B6F8414669
:1016C000009001F0ABFE834602F0DEF84FF080415F
:1016D0008887BAF1010F0ED10420FFF715FB3846B9
:1016E00002F0A3F84146009001F098FE834602F014
:1016F000CBF8F9490880BDE8FC9F2DE9FC5F044662
:10170000884615461E46DDE90C9A00200190002708
:101710000A2C07D840F2CF70019048F6A040B0FBE9
:10172000F4F719E0642C06D877200190EB48B0FB61
:10173000F4F087B210E040F24C40844206D80B200F
:101740000190E748B0FBF4F087B205E0002001907B
:10175000E448B0FBF4F087B2791E88B20199FFF734
:101760006DF9012D0ED10120FFF71AFC384602F069
:101770005CF84146009001F051FE834602F084F887
:10178000D9490880012E0FD10220FFF709FC384605
:1017900002F04BF84146009001F040FE834602F013
:1017A00073F8D149091D0880B9F1010F0FD1032049
:1017B000FFF7F6FB384602F038F84146009001F09A
:1017C0002DFE834602F060F8C74908310880BAF15F
:1017D000010F0FD10420FFF7E3FB384602F025F894
:1017E0004146009001F01AFE834602F04DF8BE49D2
:1017F0000C310880BDE8FC9F2DE9FC5F044688465B
:1018000015461E46DDE90C9A0020019000270A2C9F
:1018100007D840F2CF70019048F6A040B0FBF4F733
:1018200019E0642C06D877200190AC48B0FBF4F0A6
:1018300087B210E040F24C40844206D80B20019061
:10184000A748B0FBF4F087B205E000200190A5485E
:10185000B0FBF4F087B2791E88B20199FFF702F964
:10186000012D0ED10120FFF7EFFC384601F0DDFF1E
:101870004146009001F0D2FD834602F005F89B49F5
:101880000880012E0FD10220FFF7DEFC384601F060
:10189000CCFF4146009001F0C1FD834601F0F4FF0A
:1018A0009249091D0880B9F1010F0FD10320FFF7FC
:1018B000CBFC384601F0B9FF4146009001F0AEFD87
:1018C000834601F0E1FF894908310880BAF1010F30
:1018D0000FD10420FFF7B8FC384601F0A6FF4146BF
:1018E000009001F09BFD834601F0CEFF7F490C3153
:1018F0000880BDE8FC9F2DE9F04705460C461646DA
:101900004FF0000800270A2C07DC40F2CF7848F699
:10191000A04090FBF4F087B219E0642C06DC4FF095
:1019200077086E4890FBF4F087B210E040F24C402C
:10193000844206DC4FF00B08694890FBF4F087B254
:1019400005E04FF00008674890FBF4F087B2781E7E
:1019500067490880081FA0F80080012D0CD1384687
:1019600001F063FF8246314601F058FD814601F0E7
:101970008BFF5F4908310880022D0CD1384601F0F9
:1019800054FF8246314601F049FD814601F07CFF5B
:1019900057490C310880032D0CD1384601F045FF22
:1019A0008246314601F03AFD814601F06DFF504913
:1019B00010310880042D0CD1384601F036FF8246E4
:1019C000314601F02BFD814601F05EFF484914319C
:1019D0000880BDE8F0872DE9F04705460C4616461D
:1019E0004FF0000800270A2C07DC40F2CF7848F6B9
:1019F000A04090FBF4F087B219E0642C06DC4FF0B5
:101A00007708364890FBF4F087B210E040F24C4083
:101A1000844206DC4FF00B08314890FBF4F087B2AB
:101A200005E04FF000082F4890FBF4F087B2781ED5
:101A30004FF0804188850846A0F82880012D0BD101
:101A4000384601F0F2FE8246314601F0E7FC81465D
:101A500001F01AFFA9078886022D0BD1384601F044
:101A6000E4FE8246314601F0D9FC814601F00CFFCC
:101A700069070887032D0CD1384601F0D6FE82464F
:101A8000314601F0CBFC814601F0FEFE4FF0804173
:101A90008887042D0BD1384601F0C7FE82463146B7
:101AA00001F0BCFC814601F0EFFE0B490880BDE867
:101AB000F0872DE9F04705460C4616464FF0000822
:101AC00000270A2C16DC40F2CF7848F6A04090FBA5
:101AD000F4F087B228E0000040000040C027090071
:101AE000808D5B0000A24A043404004034080040AA
:101AF0002C2C0140642C06DC4FF07708644890FBE6
:101B0000F4F087B210E040F24C40844206DC4FF023
:101B10000B08604890FBF4F087B205E04FF0000836
:101B20005D4890FBF4F087B2781E5C490880081F7E
:101B3000A0F80080012D0CD1384601F076FE8246D7
:101B4000314601F06BFC814601F09EFE534908319D
:101B50000880022D0CD1384601F067FE82463146DE
:101B600001F05CFC814601F08FFE4C490C3108808D
:101B7000032D0CD1384601F058FE8246314601F063
:101B80004DFC814601F080FE444910310880042D4F
:101B90000CD1384601F049FE8246314601F03EFC48
:101BA000814601F071FE3D4914310880BDE8F0879F
:101BB0002DE9F04705460C4616464FF00008002771
:101BC0000A2C07DC40F2CF7848F6A04090FBF4F0F6
:101BD00087B219E0642C06DC4FF077082C4890FBA4
:101BE000F4F087B210E040F24C40844206DC4FF043
:101BF0000B08284890FBF4F087B205E04FF000088E
:101C0000254890FBF4F087B2781E25490880081F0C
:101C1000A0F80080012D0CD1384601F006FE824666
:101C2000314601F0FBFB814601F02EFE1C490831D4
:101C30000880022D0CD1384601F0F7FD824631466E
:101C400001F0ECFB814601F01FFE15490C310880C4
:101C5000032D0CD1384601F0E8FD8246314601F0F3
:101C6000DDFB814601F010FE0D4910310880042D86
:101C70000CD1384601F0D9FD8246314601F0CEFB49
:101C8000814601F001FE064914310880BDE8F08765
:101C9000C0270900808D5B0000A24A042C0400408C
:101CA0002C080040F24AD26942F00102F04BDA619E
:101CB0009A0411859085928942F001029B049A81D1
:101CC0001A46128842F001021A8070472DE9F0414D
:101CD00004460025A846E749204601F04BFE0BD8F4
:101CE00040F2CF75E449204601F098FB064601F02A
:101CF000CBFD1FFA80F82DE0E049204601F03AFEC6
:101D00000AD87725DE49204601F088FB064601F017
:101D1000BBFD1FFA80F81DE0204601F0E8FD0646F5
:101D2000D84AD94B01F0F6FD0AD80B25D7492046F1
:101D300001F074FB064601F0A7FD1FFA80F809E0E8
:101D40000025D349204601F069FB064601F09CFDC1
:101D50001FFA80F8A8F1010188B22946FFF7A2FF17
:101D6000BDE8F0814FF0804080894FF6FE71084059
:101D70004FF080418881084600884FF6FE71084088
:101D80004FF0804108807047B94AD26942F00202A0
:101D9000B74BDA61BF4A1180121D1080BD4A1C3A50
:101DA000128842F00102BB4B1C3B1A80B94A283A08
:101DB000128842F00102B74B283B1A8070472DE988
:101DC000F04104460025A846AA49204601F0D2FD6C
:101DD0000BD840F2CF75A849204601F01FFB0646FC
:101DE00001F052FD1FFA80F82DE0A449204601F0D1
:101DF000C1FD0AD87725A249204601F00FFB06460F
:101E000001F042FD1FFA80F81DE0204601F06FFD51
:101E100006469C4A9C4B01F07DFD0AD80B259B4948
:101E2000204601F0FBFA064601F02EFD1FFA80F86D
:101E300009E000259649204601F0F0FA064601F037
:101E400023FD1FFA80F8A8F1010188B22946FFF7A7
:101E50009BFFBDE8F0818F481C3800884FF6FE716B
:101E600008408C491C3908808A48283800884FF679
:101E7000FE71084087492839088070477C4AD2693A
:101E800042F004027A4BDA61834A1180121D1080FD
:101E9000814A1C3A128842F001027F4B1C3B1A8097
:101EA0007D4A283A128842F001027B4B283B1A8077
:101EB00070472DE9F04104460025A8466D492046AB
:101EC00001F058FD0BD840F2CF756B49204601F068
:101ED000A5FA064601F0D8FC1FFA80F82DE0674904
:101EE000204601F047FD0AD877256549204601F0D4
:101EF00095FA064601F0C8FC1FFA80F81DE020465E
:101F000001F0F5FC06465F4A5F4B01F003FD0AD87D
:101F10000B255E49204601F081FA064601F0B4FC2B
:101F20001FFA80F809E000255949204601F076FAA9
:101F3000064601F0A9FC1FFA80F8A8F1010188B259
:101F40002946FFF79BFFBDE8F08153481C38008805
:101F50004FF6FE71084050491C3908804E48283819
:101F600000884FF6FE7108404B49283908807047B9
:101F70003F4AD26942F008023D4BDA61474A11807C
:101F8000121D1080454A1C3A128842F00102434B50
:101F90001C3B1A80414A283A128842F080023F4B8B
:101FA000283B1A801A46128842F001021A807047B4
:101FB0002DE9F04104460025A8462E49204601F0AF
:101FC000D9FC0BD840F2CF752B49204601F026FAF8
:101FD000064601F059FC1FFA80F82DE027492046FB
:101FE00001F0C8FC0AD877252549204601F016FAE9
:101FF000064601F049FC1FFA80F81DE0204601F07A
:1020000076FC06461F4A204B01F084FC0AD80B25BB
:102010001E49204601F002FA064601F035FC1FFA7F
:1020200080F809E000251A49204601F0F7F9064634
:1020300001F02AFC1FFA80F8A8F1010188B22946B4
:10204000FFF796FFBDE8F08114481C3800884FF672
:10205000FE71084011491C39088010482838008852
:102060004FF6FE7108400D4928390880704700007E
:10207000001002400000C842000010420000204151
:10208000000016444A0C022B8716ED3F0080BB452A
:1020900000A08C472804004028080040280C00407D
:1020A000062835D2DFE800F034030D17212B00BFDE
:1020B000FE4A128812F0400FFAD0FC4A121D11801D
:1020C00026E000BFFA4A128812F0400FFAD0F84A10
:1020D000121D11801CE000BFF64A128812F0400F5A
:1020E000FAD0F44A121D118012E000BFF24A1288A1
:1020F00012F0400FFAD0F04A121D118008E000BF24
:10210000EE4A128812F0400FFAD0EC4A918000BFDC
:1021100000BF704770B505460C4604B970BD0A2073
:1021200094FBF0F631462846FFF7F4FF0A2094FBB3
:10213000F0F100FB11403030C6B231462846FFF7BF
:10214000AFFF00BFEAE730B505460C4604E014F8DF
:10215000011B2846FFF7A4FF20780028F7D130BDE7
:1021600030B505460C4624B9D5A12846FFF7EBFF4C
:1021700030BD21092846FFF7F3FF04F00F000A28BD
:1021800007D204F00F0000F130012846FFF788FF66
:1021900006E004F00F005730C1B22846FFF780FF79
:1021A00000BFE5E72DE9F047814614461D464FF094
:1021B00000062046294601F07BFB0646314648468C
:1021C000FFF7A8FF2E214846FFF76AFF304601F0CF
:1021D00031FB074622462B4601F03AFA04460D46EB
:1021E0000022B84B2046294601F035FA074601F097
:1021F0005FFB064631464846FFF78CFFBDE8F08797
:1022000070B506460C4624B9AFA13046FFF79BFFD8
:1022100070BD254604EBD57041103046FFF7F0FF46
:1022200004EBD5704010A4EB40003030C1B2304612
:10223000FFF736FF00BFEBE70FB42DE9F84F074675
:1022400000BF4FF00008C146C24600240CA8009011
:102250000B9C68E02078252860D1601C044600783B
:10226000632812D008DC25284FD042283AD05828BD
:1022700042D062284ED134E0642811D0662818D0AC
:10228000732825D0782845D135E0009810F8041B34
:1022900001F0FF0A009051463846FFF701FF3AE08F
:1022A000009850F8048B009041463846FFF732FF03
:1022B00031E00098C01D20F007000090D0E90056E2
:1022C000083000902A4633463846FFF76BFF22E07D
:1022D000009850F8049B009049463846FFF733FFBA
:1022E00019E000BF009850F8048B00904146384632
:1022F000FFF786FF0FE000BF009850F8048B0090B6
:1023000041463846FFF72CFF05E025213846FFF708
:10231000C7FE00E000BF00BF641C04E014F8011B0E
:102320003846FFF7BDFE2078002893D10090BDE825
:10233000F80F5DF814FB2DE9F05F05460E463001FD
:1023400001F073FA8146614905FB01F001F06DFA75
:102350008246494601F098F80746384601F094FA5B
:1023600084B2204601F061FA8346394601F053F801
:1023700082464FF0834101F051F8814601F084FA22
:1023800080464FF6FF7000EA041404EB080084B2A4
:102390004F48806940F004004D49886108468069D3
:1023A00040F4804088614B48006820F0F0004949C3
:1023B00008600846006840F0B00008600846006801
:1023C00020F4706008600846006840F4006008600F
:1023D00040480830006840F480603E490831086099
:1023E0003B48C06840F480403949C8600846C0682E
:1023F00020F48040C8602D4808300480001D00880B
:1024000042F20C01084329490C3108800846008833
:1024100040F020000880BDE8F09F2DE9F05F054600
:102420000E46300101F001FA8146284905FB01F012
:1024300001F0FBF98246494601F026F80746384686
:1024400001F022FA84B2204601F0EFF983463946C2
:1024500000F0E1FF82464FF0834100F0DFFF81464C
:1024600001F012FA80464FF6FF7000EA041404EB04
:10247000080084B21648806940F00400144988615D
:102480000846806940F4003088611248001F0068E7
:1024900020F470600F49091F08600846006840F486
:1024A000306008600846006816E00000003801400F
:1024B0000044004000480040004C004000500040F4
:1024C0003078000080842E413062000040420F00CE
:1024D000001002400408014020F4704008600846E3
:1024E000006840F400400860BA48006840F0080006
:1024F000B8490860B848006940F40030B64908613E
:102500000846006920F400300861B4480480001DCA
:10251000008842F20C010843B049091D08800846B2
:10252000008840F020000880BDE8F09F2DE9F05FB2
:1025300005460E46300101F078F98146A84905FBB1
:1025400001F001F072F98246494600F09DFF07460E
:10255000384601F099F984B2204601F066F98346C5
:10256000394600F058FF82464FF0834100F056FF95
:10257000814601F089F980464FF6FF7000EA0414A5
:1025800004EB080084B29448806940F00800924946
:1025900088610846806940F480208861914800681D
:1025A00020F470608F4908600846006840F430608D
:1025B00008600846006820F470400860084600681B
:1025C00040F40040086087480830006840F400602C
:1025D0008449083108608048C06840F480207E4902
:1025E000C8600846C06820F48020C8607E48048027
:1025F000001D008842F20C0108437B49091D088038
:102600000846008840F020000880BDE8F09F2DE9D2
:10261000F05F05460E46300101F007F9814670492A
:1026200005FB01F001F001F98246494600F02CFF5C
:102630000746384601F028F984B2204601F0F5F843
:102640008346394600F0E7FE82464FF0834100F0B2
:10265000E5FE814601F018F980464FF6FF7000EA6A
:10266000041404EB080084B25B48806940F0100059
:10267000594988610846806940F4002088615B48B8
:10268000406820F47060594948600846406840F44A
:10269000306048600846406820F470404860084652
:1026A000406840F4004048600846C06840F400605C
:1026B000C8604948C06840F400204749C8600846DF
:1026C000C06820F40020C86049480480001D0088CC
:1026D00042F20C0108434649091D0880084600885B
:1026E00040F020000880BDE8F09F2DE9F05F05462E
:1026F0000E46300101F099F88146394905FB01F099
:1027000001F093F88246494600F0BEFE074638467F
:1027100001F0BAF884B2204601F087F883463946C2
:1027200000F079FE82464FF0834100F077FE81464B
:1027300001F0AAF880464FF6FF7000EA041404EB9B
:10274000080084B22448806940F010002249886162
:102750000846806940F0200088610846C06940F45E
:102760008010C8612148406820F470201F494860EB
:102770000846406840F4302048601E48006820F455
:1027800070601C4908600846006840F400600860FA
:1027900018480C30006840F0040016490C310860FD
:1027A0000D48006940F480100B4908610846006933
:1027B00020F48010086110480481808942F20C01E5
:1027C00008430D4988810846808940F020008881AF
:1027D000BDE8F09F0C080140001002400844004092
:1027E00040420F00040C0140084800400010014026
:1027F000084C0040001401400050004008B54FF460
:10280000C060FEF77FF81E208DF8000001208DF8D3
:10281000010000208DF8020001208DF803006846B9
:10282000FEF775F81C208DF8000001208DF80100DE
:102830008DF802008DF803006846FEF768F8252041
:102840008DF8000001208DF8010002208DF80200B3
:1028500001208DF803006846FEF759F827208DF80F
:10286000000001208DF8010003208DF802000120F6
:102870008DF803006846FEF74AF834208DF8000012
:1028800001208DF8010004208DF8020001208DF850
:1028900003006846FEF73BF835208DF80000012064
:1028A0008DF8010005208DF8020001208DF803004D
:1028B0006846FEF72CF808BD10B500F073F8FDF778
:1028C0002DFEFFF79BFF10BD0CB50020019000907E
:1028D0006B48006840F480306949086000BF684870
:1028E000006800F4003000900198401C01900098AE
:1028F00018B90198B0F5A06FF1D16148006810F4E3
:10290000003F02D00120009001E0002000900098DC
:10291000012842D15B48006840F010005949086026
:102920000846006820F0030008600846006840F090
:1029300002000860524840685149486008464068B3
:1029400048600846406840F4806048600846406837
:1029500020F47C1048600846406840F4E810486065
:102960000846006840F08070086000BF4448006876
:1029700010F0007FFAD04248406820F00300404940
:1029800048600846406840F00200486000BF3C488C
:10299000406800F00C000828F9D10CBD10B5FFF715
:1029A00093FF10BD10B53648006840F0010034496F
:1029B0000860084640683449084031494860084684
:1029C0000068324908402E4908600846006820F433
:1029D000802008600846406820F4FE0048604FF4FC
:1029E0001F008860FFF7DAFF4FF000602849086099
:1029F00010BD10B5002100200022214B5B6803F0C0
:102A00000C0121B1042906D0082928D107E0214B67
:102A1000214C236027E01F4B1F4C236023E0184B01
:102A20005B6803F47010164B5B6803F4803202237A
:102A300003EB904022B9194B4343174C23600DE040
:102A40000F4B5B6813F4003F04D0144B4343124C0C
:102A5000236003E00F4B43430F4C236003E00D4B17
:102A60000D4C236000BF00BF054B5B68C3F303132D
:102A70000B4CE15C084B1B68CB40074C236010BD3E
:102A800000100240002002400000FFF8FFFFF6FEA9
:102A900008ED00E000127A000800002000093D0067
:102AA0000C0000200648804706480047FEE7FEE786
:102AB000FEE7FEE7FEE7FEE7FEE7FEE7FEE7FEE7EE
:102AC000A529000831010008DB48806940F4006056
:102AD000D94988610846806940F004008861D74878
:102AE000006820F0FF00D549086008460068D44916
:102AF0000843D2490860D348008840F00100D1491A
:102B000008800846008840F0400008800020CD4939
:102B10001C3108804EF66020091D0880C9480C3819
:102B2000008820F44070C7490C39088008460088A6
:102B300020F060000880C3480C30008840F001009D
:102B4000C0490C3108800846008840F48070088035
:102B5000BC481430008820F00200BA4914310880C3
:102B60000846008820F020000880B6480C30008815
:102B700040F03000B3490C310880B248001F008893
:102B800040F00300AF49091F088042F21070AD49C0
:102B900018310880AB480C38008840F00100A94982
:102BA0000C3908807047A448C06940F00100A24970
:102BB000C8610846806940F004008861A248006846
:102BC00020F0FF00A04908600846006840F044007B
:102BD0000860C804808940F00100C9048881084663
:102BE000808940F040008881002008854EF66020F2
:102BF00088850846008820F44070088008460088D0
:102C000020F0600008800846008B40F00100088337
:102C10000846008B40F4807008830846008C20F042
:102C2000020008840846008C20F020000884084632
:102C3000008B40F0300008830846008940F0030014
:102C4000088142F2107088848006008840F00100FC
:102C5000088070477848C06940F002007649C86132
:102C60000846806940F0040088617748006876492A
:102C700008600846006840F0884008607348008893
:102C800040F00100714908800846008840F040008B
:102C9000088000206D491C3108804EF66020091D17
:102CA00008806A480C38008820F4407067490C3965
:102CB00008800846008820F06000088063480C30D7
:102CC000008840F0010061490C3108800846008806
:102CD00040F4807008805D481430008820F00200C5
:102CE0005A49143108800846008820F020000880E6
:102CF0004806008B40F030004906088308460089EA
:102D000040F00300088142F2107088848006008839
:102D100040F00100088070474748C06940F0040057
:102D20004549C8610846806940F008008861434809
:102D3000001F00684149091F08600846006840F00C
:102D4000884008604248008840F0010040490880FF
:102D50000846008840F04000088000203C491C31B3
:102D600008804EF66020091D088039480C3800881C
:102D700020F4407036490C3908800846008820F05D
:102D80006000088032480C30008840F00100304973
:102D90000C3108800846008840F4807008802C4878
:102DA0001430008820F002002949143108800846B8
:102DB000008820F02000088025480C30008840F072
:102DC000300023490C3108802148001F008840F062
:102DD00003001F49091F088042F210701C49183176
:102DE00008801B480C38008840F0010018490C3955
:102DF000088070470146012906D0022909D003291D
:102E00000CD0042914D10EE00E4A1832128810B2E8
:102E100010E04FF08042928C10B20BE00B4A183257
:102E2000128810B206E00A4A1832128810B201E085
:102E3000002000BF00BF704700100240040C01409A
:102E4000440000FF0C2C0140000801400C0400402D
:102E50000C08004010B504460121204600F0CEF8D1
:102E6000012000F01AF953490870002052490870F7
:102E700011E000BF5148008810F0400FFAD05048D0
:102E80004D490978405C4D49091D08804A48007841
:102E9000401C4949087048480078464909788842EA
:102EA000E7DB10BD1CB54748806940F00800454984
:102EB00088614548006820F470204349086008464E
:102EC000006840F4403008600846006820F4700054
:102ED00008600846006840F44010086001200021A6
:102EE0000B460A46CDE900104FF07C51C820FEF792
:102EF00004FC0020354908603549C1F8B4011CBD07
:102F00002DE9F84F82464FF0000B00200090BAF1F7
:102F1000000F1ADBD346584600F08CFC8046002296
:102F20002C4B00F098FB064600222B4B00F005FCD2
:102F3000044600F003FD00900120244908604FF092
:102F400000002349C1F8B4011AE0CAF1000B584649
:102F500000F070FC064600221E4B00F07CFB04468D
:102F600000221D4B00F0E9FB804600F0E7FC0090DA
:102F70000020164908604FF001001549C1F8B4015E
:102F80001648048804F1010000F046FC064600994A
:102F900000F044FA054600F077FC1049143108802F
:102FA000BDE8F88F10B5FFF77DFF0720FDF70BF99F
:102FB00010BD00002000002021000020003801404A
:102FC0003400002000100240040C0140B081214276
:102FD000008021420000F03F00408F402C04004060
:102FE00030B503461C788C545D78541C0D559D7883
:102FF000941C0D55DD78D41C0D5530BD13B50C4611
:103000000A2C00DC04B91CBD0B2C43D2DFE804F011
:1030100042060C12181E242A30363C000122444974
:103020006846FFF7DDFF35E0052241496846FFF7B6
:10303000D7FF2FE009223E496846FFF7D1FF29E07C
:103040000D223B496846FFF7CBFF23E011223849A8
:103050006846FFF7C5FF1DE0152235496846FFF7B2
:10306000BFFF17E0192232496846FFF7B9FF11E0A8
:103070001D222F496846FFF7B3FF0BE021222C49A0
:103080006846FFF7ADFF05E0252229496846FFF7AE
:10309000A7FF00BF00BF00BFB5E701460A2900DC5B
:1030A00009B9002070472420214A10700B293CD216
:1030B000DFE801F03B060B10151A1F24292F3500FD
:1030C00005201B4A50710620ECE70920184A50726F
:1030D0000A20E7E70D20164A50730E20E2E7112080
:1030E000134A50741220DDE71520114A507516203E
:1030F000D8E719200E4A50761A20D3E71D200C4A33
:1031000050771E20CEE72120094A82F82100222094
:10311000C8E72520064A82F825002620C2E7292094
:10312000034A82F829002A20BCE70020BAE7000001
:10313000340000204FF08040008A4FF08040008A29
:1031400020F001004FF08041088270472DE9F041E6
:10315000002400251D48008810F0010F34D01B48C2
:10316000008820F00100194908800A210720FDF796
:10317000B1F9174908600846006816490968441AF9
:10318000B4F5967F02DC14F5967F03DA2846FFF744
:10319000B7FE19E0204600F03FFB07460E480168E5
:1031A000384600F03BF9064600F055FB0546B5F5FC
:1031B0007A7F02DB4FF47A7503E015F57A7F00DC45
:1031C000064D2846FFF79CFEBDE8F0811008004040
:1031D0001C000020240000202800002018FCFFFF15
:1031E0001D49098811F0200F34D01B49091D098899
:1031F000C8B21A49098811F4004F2BD11749098820
:1032000011F4804F0CD00A2803D00021134A1180FA
:1032100020E01249098841F40041104A118019E068
:103220000D2806D10D49098841F480410B4A1180CF
:1032300010E00A490988C1F30D01094A50540749B1
:103240000988491C054A118011460988C72901DDF2
:103250000021118070470000003801402C00002040
:103260005E0000201D49098811F0200F34D01B4951
:10327000091D0988C8B21A49098811F4004F2BD1D9
:103280001749098811F4804F0CD00A2803D0002177
:10329000134A118020E01249098841F40041104A84
:1032A000118019E00D2806D10D49098841F48041AB
:1032B0000B4A118010E00A490988C1F30D01094A3F
:1032C000505407490988491C054A1180114609884C
:1032D000C72901DD0021118070470000003801403E
:1032E0002E000020260100201D49098811F0200F22
:1032F00034D01B49091D0988C8B21A49098811F43C
:10330000004F2BD11749098811F4804F0CD00A289F
:1033100003D00021134A118020E01249098841F4AA
:103320000041104A118019E00D2806D10D49098885
:1033300041F480410B4A118010E00A490988C1F329
:103340000D01094A505407490988491C054A118052
:1033500011460988C72901DD00211180704700004E
:103360000038014030000020EE010020F0B480EA77
:103370000102D40F4200B2EB410F02D202460846CE
:1033800011464A0042D0C30DDDB2C1F3C752AD1A97
:10339000202D35DAC1F3160141F4000204B1524286
:1033A000C5F1200602FA06F12A411044B3EBD05FC2
:1033B00023D0C4B1012DA0EBC35009DCF0BC4FF009
:1033C000004202EAC35200F50000DBB200F016BB77
:1033D000400000F1807000EBC350A0F1807040EA23
:1033E000D170490009E0490841EAC071A0EBC3501F
:1033F00000F50000400800EBC350F0BC00F0F5BA47
:103400006142012202EB4101001BF6E7F0BC70476C
:1034100081F00041AAE780F00040A7E780EA0102BE
:1034200010B502F00043400026D04A0023D04FEAF6
:10343000106101EB1261C0F35600C2F3560240F472
:10344000000042F40002A0FB0220A1F17F014FEA3C
:103450000040140401D000F1010050EA124001D4F0
:103460004000491EC2B20C0604EBD010401C4008BC
:10347000802A02D003E0002010BD20F001000029C6
:1034800000DA0020184310BD30B480EA010202F0D7
:10349000004530F0004221F0004015D0A0B1C0F34B
:1034A000C753C2F3C754C2F31601C0F31600E41A9F
:1034B00041F4000140F400027D34914201D3641CC8
:1034C00000E04900002C02DA30BC002070474FF4C5
:1034D00000000023914201D3891A034340084FEAB8
:1034E0004101F7D151B1914202D14FF0004105E0C5
:1034F00002D24FF0010101E06FF0010103EBC45073
:10350000284430BC00F071BA2DE9FE4F804681EAB4
:103510000300C00F0C46009021F0004123F000454D
:10352000B8EB0200A94105D24046214690461C4610
:103530000B46024623F00040104304D1404621468A
:1035400003B0BDE8F08F270DC7F30A00C3F30A519B
:103550000290401A0190402866DAC3F3130040F449
:10356000801B0098924620B10023D2EB030A63EB44
:103570000B0B01985946C0F14002504600F004FA86
:1035800006460D4650465946019A00F01CFA10EBCB
:1035900008006141002487EA115284EAE7731A4364
:1035A0003BD0009A3AB3019A012A4FEA075210DC45
:1035B000001B61EB02014FF0004202EA0752CDE925
:1035C0000042001C41F5801132462B4600F050FAB3
:1035D000B6E7001B61EB0201001C41F580130018E7
:1035E0005B412018A2F5001747EB030140EAD570B4
:1035F000B6196D4111E06D084FEA360645EAC0750F
:103600004FEA0752001B61EB0201001C41F58011DB
:1036100049084FEA30000019514132462B4603B0A9
:10362000BDE8F04F00F017BA0098012240000023D7
:10363000D0EB020263EBE073009821464FEAE0749E
:10364000B8EB000061EB0401E9E783F000435BE7BE
:1036500081F0004158E72DE9FE4F81EA030404F0B0
:10366000004421F0004100944FF0000B23F0004390
:1036700050EA010402D052EA030404D100200146BA
:1036800003B0BDE8F08FC3F30A54C1F30A552C44CC
:10369000A4F2F3340194A0FB0254C1F3130141F4EA
:1036A0008011C3F3130343F4801301FB024400FBB6
:1036B000034E840A970A44EA815447EA8357A4FBDD
:1036C000076802958D0A05FB07854FEA932C04FBDA
:1036D0000C542705029D4FEA065847EA1637B5EB0A
:1036E00008056EEB070C870E920E47EA811742EA37
:1036F0008312A7FB0201B6EB0B0164EB00042B0D58
:1037000043EA0C335E1844EB1C50DA465146E7FBA3
:103710000201C5F313044FEA0B3343EA14534FEA93
:103720000432019C43EA0603A4F10C040294009CB9
:10373000CDE900B400F09CF9A2E72DE9F04D81EA53
:10374000030404F0004B21F0004514464FF0000A3A
:1037500023F0004150EA050220D054EA01021DD0B6
:10376000C5F30A570246C5F31303C1F31300C1F3AF
:103770000A5640F4801543F48013A7EB0608101B8B
:10378000D64608F2FD3873EB050002D308F10108B4
:1037900001E092185B41B8F1000F03DA0020014606
:1037A000BDE8F08D00204FF48011064684460EE0FF
:1037B000171B73EB050705D3121B63EB05030643C9
:1037C0004CEA010C49084FEA300092185B4150EA7C
:1037D0000107EDD152EA030012D082EA040083EA25
:1037E0000501084303D100224FF0004308E0101BFD
:1037F000AB4102D20122002302E06FF0010253101C
:103800001AEB06004CEB085110EB0A0041EB0B01E0
:10381000BDE8F04D00F01FB9C10F80EAE070084428
:10382000CA079623002100F0E9B89623002211462A
:1038300000F0E4B80EB5C10F80EAE0700844CA0792
:10384000002140F233438DE80E000A460B4600F09B
:103850000FF903B000BD00F0004220F00040C10DA0
:10386000C0F3160040F400007F2901DA0020704701
:10387000962903DCC1F19601C84001E096398840E1
:10388000002AF4D04042704720F00040C10DC0F340
:10389000160040F400007F2901DA002070479629C5
:1038A00003DCC1F19601C8407047963988407047E3
:1038B00070B5C1F30A5201F000450024C1F31301B1
:1038C00040F2FF3341F480119A4201DA002070BDCA
:1038D00040F233439A42A2F2334203DC524200F0F8
:1038E00062F800E090402C43F1D0404270BD00F0FF
:1038F000004230F000400AD0C10D01F56071C0F304
:10390000160042EA0151C2084007114370470020E7
:103910000146704730B5002904DB4FF000444042B7
:1039200064EB0101002B04DB4FF00044524264EBD6
:103930000303994208BF904230BD000001F00043EC
:1039400030B421F0004150EA010206D00A0DA2F580
:103950006072C1F31301002A02DC30BC0020704702
:10396000440F44EAC104C100E01830BC00EBC2506F
:1039700000F03BB8002801DBC0F10040002901DB6A
:10398000C1F1004188427047202A04DB203A00FA46
:1039900002F1002070479140C2F1200320FA03F3A6
:1039A000194390407047202A04DB203A21FA02F0A4
:1039B0000021704721FA02F3D040C2F12002914069
:1039C000084319467047202A06DBCB17203A41FAF4
:1039D00002F043EAE07306E041FA02F3D040C2F19C
:1039E000200291400843194670470029A8BF70473C
:1039F000401C490008BF20F00100704710B4B0FA25
:103A000080FC00FA0CF050EA010404BF10BC7047BF
:103A100049B1CCF1200421FA04F411FA0CF118BFD9
:103A2000012121430843A3EB0C01CB1D0106000A31
:103A3000002BBEBF002010BC704700EBC3501044E9
:103A40000029A4BF10BC7047401C490008BF20F0EB
:103A5000010010BC704710B5002B08DA401C41F182
:103A6000000192185B411A4301D120F0010010BD02
:103A70002DE9F04D92469B4611B1B1FA81F202E078
:103A8000B0FA80F220329046FFF77EFF04460F46E0
:103A900040EA0A0041EA0B0153465A46084303D163
:103AA00020463946BDE8F08D114653EA010015D095
:103AB000C8F140025046FFF776FF05460E465046D5
:103AC00059464246FFF760FF084301D0012000E05D
:103AD0000020054346EAE0762C4337430A984FEA34
:103AE0004453A0EB08004FEAD4240A304FF0000200
:103AF00044EA47544FEAD72502D500200146D1E7D2
:103B0000010510196941DDE9084500196941BDE861
:103B1000F04DA0E7064C074D06E0E06840F00103D9
:103B200094E8070098471034AC42F6D3FCF704FB46
:103B3000583B0008783B000802E008C8121F08C183
:103B4000002AFAD170477047002001E001C1121F1E
:103B5000002AFBD170470000783B000800000020DD
:103B600034000000383B0008AC3B00083400002063
:103B700084060000483B0008000000000000000030
:103B800000A24A040000000000000000010203043B
:103B9000060708090A00000000000000350C0000BC
:0C3BA00000004041000000000000000098
:0400000508000131BD
:00000001FF
