:020000040800F2
:1000000080060020C11B0008C91B0008CB1B00088C
:10001000CD1B0008CF1B0008D11B0008000000000A
:10002000000000000000000000000000D31B0008DA
:10003000D51B000800000000D71B0008D91B0008D2
:10004000DB1B0008DB1B0008DB1B0008DB1B0008B8
:10005000DB1B0008DB1B0008DB1B0008DB1B0008A8
:10006000DB1B0008DB1B0008DB1B0008DB1B000898
:10007000DB1B0008DB1B0008DB1B0008DB1B000888
:10008000DB1B0008DB1B0008DB1B0008DB1B000878
:10009000DB1B0008DB1B0008DB1B0008DB1B000868
:1000A000DB1B0008DB1B0008DB1B0008DB1B000858
:1000B0006D1F0008851F00089D1F0008DB1B00083E
:1000C000DB1B0008DB1B0008DB1B0008DB1B000838
:1000D000DB1B0008D11F000855200008D9200008AC
:1000E000DB1B0008DB1B0008DB1B0008DB1B000818
:1000F000DB1B0008DB1B0008DB1B0008DB1B000808
:10010000DB1B0008DB1B0008DB1B0008DB1B0008F7
:10011000DB1B0008DB1B0008DB1B0008DB1B0008E7
:10012000DB1B0008DB1B0008DB1B0008DB1B0008D7
:10013000DFF80CD002F042FB004800474501000800
:10014000800600201CB501F045FC4FF4E131482049
:1001500001F07FF901200090034602464FF07C51E8
:100160000190024800F012FA00BFFEE71F856B3EC7
:1001700010B56FF0040000F0ADF82A4800682A4975
:10018000B0FBF1F029490870084600784FF47A7105
:1001900048432749086010BD0146244A12784A4363
:1001A0004FF0E0235A6100229A611A46126942F028
:1001B00001021A6100BF4FF0E022106910F0010F38
:1001C00002D010F4803FF6D04FF0E022126922F006
:1001D00001024FF0E0231A6100229A617047014644
:1001E000134A12684A434FF0E0235A6100229A6191
:1001F0001A46126942F001021A6100BF4FF0E02274
:10020000106910F0010F02D010F4803FF6D04FF0CB
:10021000E022126922F001024FF0E0231A6100226D
:100220009A6170470800002000127A000000002048
:100230000400002031490143314A1160704770B514
:10024000002100230F22C4780CB32D4C246804F441
:10025000E064C4F5E064210AC1F10403CA404478B3
:1002600004FA03F18478144021430901254C0678EF
:10027000A155047804F01F050124AC4005786D11E8
:100280004FF0E02606EB8505C5F8004109E004784B
:1002900004F01F050124AC401B4D0678761145F88B
:1002A000264070BD194A0A400243154B1B1F1A60B5
:1002B000704739B1124A121D12680243104B1B1DC0
:1002C0001A6006E00E4A121D126882430C4B1B1D79
:1002D0001A607047042808D14FF0E021096941F005
:1002E00004014FF0E022116107E04FF0E0210969BD
:1002F00021F004014FF0E022116170470000FA057F
:100300000CED00E000E400E080E100E080FFFF1F72
:10031000FE4A926942F40062FC4B9A61FC4A1080EA
:10032000121F1180FA4A1832128842F40042F84B28
:1003300018331A808022F64B2C3B1A801A461288FA
:1003400042F001021A807047F0B506460C46B4F53B
:100350007A7F12D841F61F4742F21070B0FBF4F5D5
:1003600039462846FFF7D4FF284605EBD071C1F384
:100370004F01E74A083211802AE042F210708442AD
:1003800011D84721E34AB2FBF4F290B2E04A121FBF
:100390001180121D1080024600EBD2735B10DC4D01
:1003A00008352B8014E0DC48844211D8012142003A
:1003B000B2FBF4F290B2D64A121F1180121D1080C7
:1003C000024600EBD2735B10D14D08352B8000BF85
:1003D000F0BDCE4AD26942F00102CC4BDA619A04F8
:1003E000908511858022D3051A80D205128842F0AB
:1003F00001021A807047C54AD26942F00202C34B1B
:10040000DA61C64A1080121F11808022C34B2C3B38
:100410001A801A46128842F001021A807047BB4ABD
:10042000D26942F00402B94BDA61BD4A1080121F52
:1004300011808022BA4B2C3B1A801A46128842F057
:1004400001021A807047012806D002282BD0032809
:1004500050D0042826D172E0AC49896941F00401EA
:10046000AA4A9161AF49096821F00F01AD4A1160B4
:100470001146096841F00B011160A549143909883A
:1004800041F06001A24A143A11801146098841F0F6
:10049000080111809E490C39098841F001019C4AEC
:1004A0000C3A118070E09949896941F00401974A3A
:1004B00091619C49096821F0F0019A4A1160114646
:1004C000096841F0B001116091491439098841F47B
:1004D000C0418F4A143A11801146098841F40061E5
:1004E00011808B490C39098841F01001884A0C3A77
:1004F000118049E08549896941F00401834A91618D
:100500008849096821F47061864A116011460968BA
:1005100041F4306111607E491039098841F0600171
:100520007B4A103A11801146098841F00801118078
:10053000111D098841F48071121D118024E0734956
:10054000896941F00401714A91617649096821F491
:100550007041744A11601146096841F430411160DC
:100560006B491039098841F4C041694A103A118039
:100570001146098841F400611180111D098841F478
:100580008051121D118000BF00BF70472DE9F84F48
:10059000814615461E46DDE90AAB00200090002486
:1005A0006149484602F03AF80BD840F2CF7000900B
:1005B0005E49484601F02AFE074601F0D5FF84B2A5
:1005C0002DE05B49484602F029F80AD877200090D0
:1005D0005849484601F01AFE074601F0C5FF84B2AB
:1005E0001DE0484601F0F3FF0746534A534B02F023
:1005F00001F80AD80B2000905149484601F006FE48
:10060000074601F0B1FF84B209E0002000904D4997
:10061000484601F0FBFD074601F0A6FF84B2611ECB
:1006200088B20099FFF774FE012D0AD10120FFF76F
:100630000AFF204604EBD071C1F34F01344A08325F
:100640001180012E0AD10220FFF7FDFE204604EBA7
:10065000D071C1F34F012E4A0C321180BAF1010F53
:100660000AD10320FFF7EFFE204604EBD071C1F35F
:100670004F01274A10321180BBF1010F0AD104202B
:10068000FFF7E1FE204604EBD071C1F34F01204A91
:1006900014321180BDE8F88F012806D0022822D03C
:1006A00003285DD004281DD176E01E49091F096882
:1006B00021F00F011B4A121F11601146096841F019
:1006C0000B011160D104098B41F06001D204118348
:1006D0001146098B41F0080111831146098C41F044
:1006E0000101118474E00F49091F096821F0F0012C
:1006F0000C4A121F11601146096841F0B0011160E7
:10070000D104098B41F4C041D2041DE00010024025
:100710002C2C014040420F0000366E012C0400409A
:100720002C080040040801400000C84200001042AC
:1007300000002041000016444A0C022B8716ED3FB2
:100740000080BB4500A08C4711831146098B41F402
:10075000006111831146098C41F01001118437E0CA
:10076000F849096821F47061F64A11601146096878
:1007700041F430611160D104898B41F06001D204F1
:1007800091831146898B41F0080191831146098CB0
:1007900041F4807111841BE0EA49096821F4704139
:1007A000E84A11601146096841F430411160D104F2
:1007B000898B41F4C041D20491831146898B41F465
:1007C000006191831146098C41F48051118400BF6E
:1007D00000BF70472DE9F84F814615461E46DDE9FA
:1007E0000AAB002000900024D749484601F016FFCC
:1007F0000BD840F2CF700090D449484601F006FD76
:10080000074601F0B1FE84B22DE0D149484601F01F
:1008100005FF0AD877200090CE49484601F0F6FC43
:10082000074601F0A1FE84B21DE0484601F0CFFE6C
:100830000746C94AC94B01F0DDFE0AD80B200090DB
:10084000C749484601F0E2FC074601F08DFE84B23C
:1008500009E000200090C349484601F0D7FC074654
:1008600001F082FE84B2611E88B20099FFF7B1FDEB
:10087000012D09D10120FFF70FFF204604EBD071B5
:10088000C1F34F01AA079186012E09D10220FFF77B
:1008900003FF204604EBD071C1F34F01B20711876B
:1008A000BAF1010F0AD10320FFF7F6FE204604EB50
:1008B000D071C1F34F014FF080429187BBF1010F1E
:1008C00009D10420FFF7E8FE204604EBD071C1F304
:1008D0004F01A54A1180BDE8F88F012806D00228F3
:1008E00023D0032840D004287CD15CE095490968D6
:1008F00021F07061934A11601146096841F030613E
:1009000011609A49098841F06001984A11801146A6
:10091000098841F00801118094490831098841F0A3
:100920000101924A083211805CE08649096821F091
:100930007041844A11601146096841F030411160EC
:100940008A49098841F4C041884A118011460988C2
:1009500041F40061118085490831098841F0100196
:10096000824A083211803DE08149096821F00F0177
:100970007F4A11601146096841F00B0111607B4903
:10098000091D098841F06001784A121D1180114645
:10099000098841F008011180111D098841F4807116
:1009A000121D11801EE07249096821F0F001704AA1
:1009B00011601146096841F0B00111606B49091DD1
:1009C000098841F4C041694A121D11801146098805
:1009D00041F400611180111D098841F48051121DFC
:1009E000118000BF00BF70472DE9F84F81461546C2
:1009F0001E46DDE90AAB002000900024524948461B
:100A000001F00CFE0BD840F2CF7000904F494846E1
:100A100001F0FCFB074601F0A7FD84B22DE04C4934
:100A2000484601F0FBFD0AD8772000904949484626
:100A300001F0ECFB074601F097FD84B21DE048464B
:100A400001F0C5FD0746444A444B01F0D3FD0AD8E6
:100A50000B2000904249484601F0D8FB074601F0C0
:100A600083FD84B209E0002000903E49484601F031
:100A7000CDFB074601F078FD84B2611E88B2009973
:100A8000FFF7B9FC012D0AD10120FFF726FF204610
:100A900004EBD071C1F34F01344A1C321180012E96
:100AA0000AD10220FFF719FF204604EBD071C1F3F1
:100AB0004F012E4A20321180BAF1010F0AD10320D2
:100AC000FFF70BFF204604EBD071C1F34F01274A1B
:100AD00024321180BBF1010F0AD10420FFF7FDFE83
:100AE000204604EBD071C1F34F01204A2832118017
:100AF000BDE8F88F012806D002283DD003285AD03F
:100B000004281ED178E01A49096821F07061184A5A
:100B100011601146096841F030611160154909887A
:100B200041F06001134A11801146098841F0080123
:100B3000118010490831098841F001010D4A08323D
:100B400011807AE0000801400000C8420000104215
:100B500000002041000016444A0C022B8716ED3F8E
:100B60000080BB4500A08C474000004018040040B6
:100B7000000C014018080040FE49096821F070414E
:100B8000FC4A11601146096841F030411160FA4990
:100B9000098841F4C041F84A11801146098841F49E
:100BA00000611180F4490831098841F01001F24ACE
:100BB0000832118041E0EF49091D096821F00F0159
:100BC000EC4A121D11601146096841F00B011160D9
:100BD000E949091D098841F06001E74A121D1180A9
:100BE0001146098841F008011180111D098841F45E
:100BF0008071121D118020E0DE49091D096821F075
:100C0000F001DC4A121D11601146096841F0B00183
:100C10001160D949091D098841F4C041D64A121D05
:100C200011801146098841F400611180111D098865
:100C300041F48051121D118000BF00BF70472DE9A3
:100C4000F84F814615461E46DDE90AAB00200090AC
:100C50000024CA49484601F0E1FC0BD840F2CF70AD
:100C60000090C749484601F0D1FA074601F07CFCE4
:100C700084B22DE0C349484601F0D0FC0AD8772061
:100C80000090C149484601F0C1FA074601F06CFCEA
:100C900084B21DE0484601F09AFC0746BB4ABC4BB3
:100CA00001F0A8FC0AD80B200090BA49484601F090
:100CB000ADFA074601F058FC84B209E0002000902C
:100CC000B549484601F0A2FA074601F04DFC84B24E
:100CD000611E88B20099FFF7A2FB012D0AD1012005
:100CE000FFF708FF204604EBD071C1F34F01A24A81
:100CF0001C321180012E0AD10220FFF7FBFE204694
:100D000004EBD071C1F34F019B4A20321180BAF13C
:100D1000010F0AD10320FFF7EDFE204604EBD0714E
:100D2000C1F34F01944A24321180BBF1010F0AD163
:100D30000420FFF7DFFE204604EBD071C1F34F0122
:100D40008D4A28321180BDE8F88F2DE9F0418046A8
:100D50000C4692480588681C01F0E7FB07462146CF
:100D600001F054FA064601F0FFFB8C490831088077
:100D7000BDE8F0812DE9F041044689480588681CEA
:100D800001F0D3FB0746214601F040FA064601F088
:100D9000EBFB834908310880BDE8F0812DE9F04183
:100DA00004467F480588681C01F0BFFB07462146C2
:100DB00001F02CFA064601F0D7FB79490C31088086
:100DC000BDE8F0812DE9F041044675480588681CAE
:100DD00001F0ABFB8046214601F018FA074601F00E
:100DE000C3FB86B26E4810300680BDE8F0812DE965
:100DF000F04104466A480588681C01F096FB0746E6
:100E0000214601F003FA064601F0AEFB64491431B5
:100E10000880BDE8F0812DE9F04F05468B46164667
:100E20001F46DDE909894FF0000A00240A2D06D883
:100E300040F2CF7A48F6A040B0FBF5F419E0642DFB
:100E400006D84FF0770A5748B0FBF5F084B210E0AF
:100E500040F24C40854206D84FF00B0A5248B0FB96
:100E6000F5F084B205E04FF0000A5048B0FBF5F011
:100E700084B2611E88B25146FFF74AFA012E0AD1A8
:100E80000120FFF7E0FA204604EBD071C1F34F01D7
:100E9000424A08321180012F0AD10220FFF7D3FA0B
:100EA000204604EBD071C1F34F013C4A0C32118053
:100EB000B8F1010F0AD10320FFF7C5FA204604EB71
:100EC000D071C1F34F01354A10321180B9F1010FD1
:100ED0000AD10420FFF7B7FA204604EBD071C1F322
:100EE0004F012E4A14321180BDE8F08F2DE9F04FEA
:100EF00005468B4616461F46DDE909894FF0000A74
:100F000000240A2D06D840F2CF7A48F6A040B0FB64
:100F1000F5F419E0642D06D84FF0770A2148B0FBAC
:100F2000F5F084B210E040F24C40854206D84FF014
:100F30000B0A1D48B0FBF5F084B205E04FF0000A43
:100F40001A48B0FBF5F084B2611E88B25146FFF733
:100F500040FA012E09D10120FFF79EFB204604EB49
:100F6000D071C1F34F01B2079186012F29D1022020
:100F70001EE00000000C0140180800400000C842BC
:100F80000000104200002041000016444A0C022BD1
:100F90008716ED3F0080BB4500A08C472C2C0140FC
:100FA0002C040040C0270900808D5B0000A24A0489
:100FB000FFF772FB204604EBD071C1F34F01BA0773
:100FC0001187B8F1010F0AD10320FFF765FB204616
:100FD00004EBD071C1F34F014FF080429187B9F11A
:100FE000010F09D10420FFF757FB204604EBD07115
:100FF000C1F34F016B4A1180BDE8F08F2DE9F04F2E
:1010000005468B4616461F46DDE909894FF0000A62
:1010100000240A2D06D840F2CF7A48F6A040B0FB53
:10102000F5F419E0642D06D84FF0770A5E48B0FB5E
:10103000F5F084B210E040F24C40854206D84FF003
:101040000B0A5A48B0FBF5F084B205E04FF0000AF5
:101050005748B0FBF5F084B2611E88B25146FFF7E5
:10106000CAF9012E09D10120FFF737FC204604EB15
:10107000D071C1F34F014F4A1180012F0AD10220D4
:10108000FFF72BFC204604EBD071C1F34F01494A16
:10109000121D1180B8F1010F0AD10320FFF71DFCCA
:1010A000204604EBD071C1F34F01424A083211804F
:1010B000B9F1010F0AD10420FFF70FFC204604EB21
:1010C000D071C1F34F013B4A0C321180BDE8F08F63
:1010D0002DE9F04F05468B4616461F46DDE9098986
:1010E0004FF0000A00240A2D06D840F2CF7A48F6C5
:1010F000A040B0FBF5F419E0642D06D84FF0770A54
:101100002948B0FBF5F084B210E040F24C40854233
:1011100006D84FF00B0A2548B0FBF5F084B205E085
:101120004FF0000A2248B0FBF5F084B2611E88B28D
:101130005146FFF774F9012E09D10120FFF7DAFCBF
:10114000204604EBD071C1F34F011B4A1180012FDF
:101150000AD10220FFF7CEFC204604EBD071C1F388
:101160004F01154A121D1180B8F1010F0AD1032059
:10117000FFF7C0FC204604EBD071C1F34F010E4ACB
:1011800008321180B9F1010F0AD10420FFF7B2FC37
:10119000204604EBD071C1F34F01074A0C32118095
:1011A000BDE8F08F40000040C0270900808D5B0043
:1011B00000A24A043404004034080040062835D216
:1011C000DFE800F034030D17212B00BFFE4A128820
:1011D00012F0400FFAD0FC4A121D118026E000BF29
:1011E000FA4A128812F0400FFAD0F84A121D118004
:1011F0001CE000BFF64A128812F0400FFAD0F44A01
:10120000121D118012E000BFF24A128812F0400F46
:10121000FAD0F04A121D118008E000BFEE4A128891
:1012200012F0400FFAD0EC4A918000BF00BF704727
:1012300070B505460C4604B970BD0A2094FBF0F663
:1012400031462846FFF7F4FF0A2094FBF0F100FB3B
:1012500011403030C6B231462846FFF7AFFF00BF1D
:10126000EAE730B505460C4604E014F8011B2846B1
:10127000FFF7A4FF20780028F7D130BD30B5054630
:101280000C4624B9D5A12846FFF7EBFF30BD210954
:101290002846FFF7F3FF04F00F000A2807D204F0F6
:1012A0000F0000F130012846FFF788FF06E004F048
:1012B0000F005730C1B22846FFF780FF00BFE5E7B7
:1012C0002DE9F047814614461D464FF000062046A2
:1012D000294601F05DF9064631464846FFF7A8FF6A
:1012E0002E214846FFF76AFF304601F02CF90746E9
:1012F00022462B4601F0A4F804460D460022B84BC6
:101300002046294601F09FF8074601F041F90646BC
:1013100031464846FFF78CFFBDE8F08770B50646BA
:101320000C4624B9AFA13046FFF79BFF70BD2546A0
:1013300004EBD57041103046FFF7F0FF04EBD57099
:101340004010A4EB40003030C1B23046FFF736FF0A
:1013500000BFEBE70FB42DE9F84F074600BF4FF091
:101360000008C146C24600240CA800900B9C68E00F
:101370002078252860D1601C04460078632812D0AC
:1013800008DC25284FD042283AD0582842D062287D
:101390004ED134E0642811D0662818D0732825D0A7
:1013A000782845D135E0009810F8041B01F0FF0AB9
:1013B000009051463846FFF701FF3AE0009850F898
:1013C000048B009041463846FFF732FF31E0009829
:1013D000C01D20F007000090D0E9005608300090B2
:1013E0002A4633463846FFF76BFF22E0009850F854
:1013F000049B009049463846FFF733FF19E000BFD1
:10140000009850F8048B009041463846FFF786FF5D
:101410000FE000BF009850F8048B0090414638461A
:10142000FFF72CFF05E025213846FFF7C7FE00E057
:1014300000BF00BF641C04E014F8011B3846FFF72E
:10144000BDFE2078002893D10090BDE8F80F5DF82C
:1014500014FB2DE9F05F05460E46300101F06EF8F1
:101460008146614905FB01F001F068F88246494672
:1014700000F002FF0746384601F076F884B22046B5
:1014800001F05CF88346394600F0BDFE82464FF01D
:10149000834100F0BBFE814601F066F880464FF6BE
:1014A000FF7000EA041404EB080084B24F4880691E
:1014B00040F004004D4988610846806940F480404E
:1014C00088614B48006820F0F000494908600846F0
:1014D000006840F0B00008600846006820F47060C2
:1014E00008600846006840F4006008604048083022
:1014F000006840F480603E49083108603B48C0689D
:1015000040F480403949C8600846C06820F48040F3
:10151000C8602D4808300480001D008842F20C018C
:10152000084329490C3108800846008840F0200013
:101530000880BDE8F09F2DE9F05F05460E463001BA
:1015400000F0FCFF8146284905FB01F000F0F6FFA2
:101550008246494600F090FE0746384601F004F8FE
:1015600084B2204600F0EAFF8346394600F04BFE85
:1015700082464FF0834100F049FE814600F0F4FFBF
:1015800080464FF6FF7000EA041404EB080084B2B2
:101590001648806940F00400144988610846806953
:1015A00040F4003088611248001F006820F4706029
:1015B0000F49091F08600846006840F43060086061
:1015C0000846006816E00000003801400044004072
:1015D00000480040004C00400050004030780000BF
:1015E00080842E413062000040420F000010024013
:1015F0000408014020F4704008600846006840F488
:1016000000400860BA48006840F00800B849086027
:10161000B848006940F40030B649086108460069DE
:1016200020F400300861B4480480001D008842F2B4
:101630000C010843B049091D08800846008840F0A5
:1016400020000880BDE8F09F2DE9F05F05460E46BA
:10165000300100F073FF8146A84905FB01F000F05E
:101660006DFF8246494600F007FE0746384600F007
:101670007BFF84B2204600F061FF8346394600F0CC
:10168000C2FD82464FF0834100F0C0FD814600F06C
:101690006BFF80464FF6FF7000EA041404EB08006D
:1016A00084B29448806940F00800924988610846F5
:1016B000806940F4802088619148006820F470605F
:1016C0008F4908600846006840F4306008600846AA
:1016D000006820F4704008600846006840F400404C
:1016E000086087480830006840F400608449083189
:1016F00008608048C06840F480207E49C860084681
:10170000C06820F48020C8607E480480001D0088E6
:1017100042F20C0108437B49091D088008460088F5
:1017200040F020000880BDE8F09F2DE9F05F0546FD
:101730000E46300100F002FF8146704905FB01F0C2
:1017400000F0FCFE8246494600F096FD074638460A
:1017500000F00AFF84B2204600F0F0FE83463946CE
:1017600000F051FD82464FF0834100F04FFD81466D
:1017700000F0FAFE80464FF6FF7000EA041404EB16
:10178000080084B25B48806940F0100059498861C4
:101790000846806940F4002088615B48406820F476
:1017A0007060594948600846406840F430604860BD
:1017B0000846406820F4704048600846406840F49D
:1017C000004048600846C06840F40060C86049486E
:1017D000C06840F400204749C8600846C06820F44B
:1017E0000020C86049480480001D008842F20C01B6
:1017F00008434649091D08800846008840F020003B
:101800000880BDE8F09F2DE9F05F05460E463001E7
:1018100000F094FE8146394905FB01F000F08EFE90
:101820008246494600F028FD0746384600F09CFEF7
:1018300084B2204600F082FE8346394600F0E3FC85
:1018400082464FF0834100F0E1FC814600F08CFEBF
:1018500080464FF6FF7000EA041404EB080084B2DF
:101860002448806940F01000224988610846806958
:1018700040F0200088610846C06940F48010C861CB
:101880002148406820F470201F494860084640689D
:1018900040F4302048601E48006820F470601C4905
:1018A00008600846006840F40060086018480C3082
:1018B000006840F0040016490C3108600D480069CA
:1018C00040F480100B4908610846006920F480103C
:1018D000086110480481808942F20C0108430D49D7
:1018E00088810846808940F020008881BDE8F09F0B
:1018F0000C080140001002400844004040420F0024
:10190000040C01400848004000100140084C004011
:10191000001401400050004008B54FF4C060FEF7CD
:1019200089FC1C208DF8000001208DF801000020AA
:101930008DF8020001208DF803006846FEF77FFC59
:1019400025208DF8000001208DF801008DF802009F
:101950008DF803006846FEF772FC26208DF8000023
:1019600001208DF8010002208DF8020001208DF881
:1019700003006846FEF763FC27208DF80000012075
:101980008DF8010003208DF8020001208DF803007E
:101990006846FEF754FC34208DF8000001208DF8D5
:1019A000010004208DF8020001208DF80300684634
:1019B000FEF745FC35208DF8000001208DF8010070
:1019C00005208DF8020001208DF803006846FEF71F
:1019D00036FC08BD10B500F073F8FEF7C9FBFFF741
:1019E0009BFF10BD0CB50020019000906B48006873
:1019F00040F480306949086000BF6848006800F41E
:101A0000003000900198401C0190009818B901988E
:101A1000B0F5A06FF1D16148006810F4003F02D02A
:101A20000120009001E0002000900098012842D1A0
:101A30005B48006840F0100059490860084600689B
:101A400020F0030008600846006840F002000860CB
:101A50005248406851494860084640684860084616
:101A6000406840F4806048600846406820F47C107C
:101A700048600846406840F4E8104860084600683E
:101A800040F08070086000BF4448006810F0007F9C
:101A9000FAD04248406820F00300404948600846B8
:101AA000406840F00200486000BF3C48406800F0D9
:101AB0000C000828F9D10CBD10B5FFF793FF10BD3D
:101AC00010B53648006840F0010034490860084607
:101AD0004068344908403149486008460068324946
:101AE00008402E4908600846006820F480200860FD
:101AF0000846406820F4FE0048604FF41F008860EC
:101B0000FFF7DAFF4FF000602849086010BD10B5FC
:101B1000002100200022214B5B6803F00C0121B161
:101B2000042906D0082928D107E0214B214C236045
:101B300027E01F4B1F4C236023E0184B5B6803F426
:101B40007010164B5B6803F48032022303EB904065
:101B500022B9194B4343174C23600DE00F4B5B68D0
:101B600013F4003F04D0144B4343124C236003E0B2
:101B70000F4B43430F4C236003E00D4B0D4C236090
:101B800000BF00BF054B5B68C3F303130B4CE15C64
:101B9000084B1B68CB40074C236010BD001002406F
:101BA000002002400000FFF8FFFFF6FE08ED00E015
:101BB00000127A000800002000093D000C000020FF
:101BC0000648804706480047FEE7FEE7FEE7FEE7D7
:101BD000FEE7FEE7FEE7FEE7FEE7FEE7C11A0008C4
:101BE00031010008F348806940F40060F1498861E0
:101BF0000846806940F004008861EF48006820F0E2
:101C0000FF00ED49086008460068EC490843EA49CE
:101C10000860EB48008840F00100E9490880084668
:101C2000008840F0400008800020E5491C31088011
:101C30004EF66020091D0880E1480C38008820F429
:101C40004070DF490C3908800846008820F06000A9
:101C50000880DB480C30008840F00100D8490C3186
:101C600008800846008840F480700880D44814300A
:101C7000008820F00200D24914310880084600880C
:101C800020F020000880CE480C30008840F0300062
:101C9000CB490C310880CA48001F008840F003007F
:101CA000C749091F088042F21070C54918310880E1
:101CB000C3480C38008840F00100C1490C39088045
:101CC0007047BC48C06940F00100BA49C861084685
:101CD000806940F004008861BA48006820F0FF0085
:101CE000B84908600846006840F044000860C8042D
:101CF000808940F00100C90488810846808940F04D
:101D000040008881002008854EF6602088850846BE
:101D1000008820F4407008800846008820F06000A9
:101D200008800846008B40F0010008830846008BBD
:101D300040F4807008830846008C20F0020008847C
:101D40000846008C20F0200008840846008B40F0F4
:101D5000300008830846008940F00300088142F201
:101D6000107088848006008840F001000880704769
:101D70009048C06940F002008E49C86108468069F9
:101D800040F0040088618F4800688E49086008466A
:101D9000006840F0884008608B48008840F00100EF
:101DA000894908800846008840F0400008800020EB
:101DB00085491C3108804EF66020091D0880824844
:101DC0000C38008820F440707F490C3908800846A0
:101DD000008820F0600008807B480C30008840F0CC
:101DE000010079490C3108800846008840F4807071
:101DF000088075481430008820F0020072491431C0
:101E000008800846008820F0200008804806008BE3
:101E100040F03000490608830846008940F003007E
:101E2000088142F2107088848006008840F001002A
:101E3000088070475F48C06940F004005D49C86190
:101E40000846806940F0080088615B48001F006810
:101E50005949091F08600846006840F0884008603A
:101E60005A48008840F00100584908800846008818
:101E700040F040000880002054491C3108804EF694
:101E80006020091D088051480C38008820F44070FB
:101E90004E490C3908800846008820F06000088010
:101EA0004A480C30008840F0010048490C31088055
:101EB0000846008840F48070088044481430008848
:101EC00020F002004149143108800846008820F0C3
:101ED000200008803D480C30008840F030003B492D
:101EE0000C3108803948001F008840F00300374952
:101EF000091F088042F210703449183108803348B5
:101F00000C38008840F0010030490C3908807047D7
:101F10000146012906D0022909D003290CD0042941
:101F200014D10EE0264A1832128810B210E04FF099
:101F30008042928C10B20BE0234A1832128810B201
:101F400006E0224A1832128810B201E0002000BFD9
:101F500000BF70471A48001D00881948001D0088FE
:101F600020F001001649091D088070474FF080409D
:101F7000008A4FF08040008A20F001004FF080413D
:101F8000088270471048001D00880F48001D008817
:101F900020F001000C49091D088070470B48001D06
:101FA00000880A48001D008820F001000749091D2B
:101FB0000880704700100240040C0140440000FFFC
:101FC0000C2C0140000801400C0400400C080040AB
:101FD0001D49098811F0200F34D01B49091D0988BB
:101FE000C8B21A49098811F4004F2BD11749098842
:101FF00011F4804F0CD00A2803D00021134A11801D
:1020000020E01249098841F40041104A118019E08A
:102010000D2806D10D49098841F480410B4A1180F1
:1020200010E00A490988C1F30D01094A50540749D3
:102030000988491C054A118011460988C72901DD14
:102040000021118070470000003801401C00002072
:10205000240000201D49098811F0200F34D01B49AD
:10206000091D0988C8B21A49098811F4004F2BD1FB
:102070001749098811F4804F0CD00A2803D0002199
:10208000134A118020E01249098841F40041104AA6
:10209000118019E00D2806D10D49098841F48041CD
:1020A0000B4A118010E00A490988C1F30D01094A61
:1020B000505407490988491C054A1180114609886E
:1020C000C72901DD00211180704700000038014060
:1020D0001E000020EC0000201D49098811F0200F8F
:1020E00034D01B49091D0988C8B21A49098811F45E
:1020F000004F2BD11749098811F4804F0CD00A28C2
:1021000003D00021134A118020E01249098841F4CC
:102110000041104A118019E00D2806D10D490988A7
:1021200041F480410B4A118010E00A490988C1F34B
:102130000D01094A505407490988491C054A118074
:1021400011460988C72901DD002111807047000070
:102150000038014020000020B4010020F0B480EAE3
:102160000102D40F4200B2EB410F02D202460846F0
:1021700011464A0042D0C30DDDB2C1F3C752AD1AB9
:10218000202D35DAC1F3160141F4000204B15242A8
:10219000C5F1200602FA06F12A411044B3EBD05FE4
:1021A00023D0C4B1012DA0EBC35009DCF0BC4FF02B
:1021B000004202EAC35200F50000DBB200F072BA3E
:1021C000400000F1807000EBC350A0F1807040EA45
:1021D000D170490009E0490841EAC071A0EBC35041
:1021E00000F50000400800EBC350F0BC00F051BA0D
:1021F0006142012202EB4101001BF6E7F0BC70478F
:1022000081F00041AAE780F00040A7E780EA0102E0
:1022100010B502F00043400026D04A0023D04FEA18
:10222000106101EB1261C0F35600C2F3560240F494
:10223000000042F40002A0FB0220A1F17F014FEA5E
:102240000040140401D000F1010050EA124001D412
:102250004000491EC2B20C0604EBD010401C4008DE
:10226000802A02D003E0002010BD20F001000029E8
:1022700000DA0020184310BD30B480EA010202F0F9
:10228000004530F0004221F0004015D0A0B1C0F36D
:10229000C753C2F3C754C2F31601C0F31600E41AC1
:1022A00041F4000140F400027D34914201D3641CEA
:1022B00000E04900002C02DA30BC002070474FF4E7
:1022C00000000023914201D3891A034340084FEADA
:1022D0004101F7D151B1914202D14FF0004105E0E7
:1022E00002D24FF0010101E06FF0010103EBC45095
:1022F000284430BC00F0CDB92DE9FE4F804681EA7C
:102300000300C00F0C46009021F0004123F000456F
:10231000B8EB0200A94105D24046214690461C4632
:102320000B46024623F00040104304D140462146AC
:1023300003B0BDE8F08F270DC7F30A00C3F30A51BD
:102340000290401A0190402866DAC3F3130040F46B
:10235000801B0098924620B10023D2EB030A63EB66
:102360000B0B01985946C0F14002504600F060F94D
:1023700006460D4650465946019A00F078F910EB92
:1023800008006141002487EA115284EAE7731A4386
:102390003BD0009A3AB3019A012A4FEA075210DC67
:1023A000001B61EB02014FF0004202EA0752CDE947
:1023B0000042001C41F5801132462B4600F0ACF97A
:1023C000B6E7001B61EB0201001C41F58013001809
:1023D0005B412018A2F5001747EB030140EAD570D6
:1023E000B6196D4111E06D084FEA360645EAC07531
:1023F0004FEA0752001B61EB0201001C41F58011FE
:1024000049084FEA30000019514132462B4603B0CB
:10241000BDE8F04F00F073B900980122400000239E
:10242000D0EB020263EBE073009821464FEAE074C0
:10243000B8EB000061EB0401E9E783F000435BE7E0
:1024400081F0004158E72DE9FE4F81EA030404F0D2
:10245000004421F0004100944FF0000B23F00043B2
:1024600050EA010402D052EA030404D100200146DC
:1024700003B0BDE8F08FC3F30A54C1F30A552C44EE
:10248000A4F2F3340194A0FB0254C1F3130141F40C
:102490008011C3F3130343F4801301FB024400FBD8
:1024A000034E840A970A44EA815447EA8357A4FBFF
:1024B000076802958D0A05FB07854FEA932C04FBFC
:1024C0000C542705029D4FEA065847EA1637B5EB2C
:1024D00008056EEB070C870E920E47EA811742EA59
:1024E0008312A7FB0201B6EB0B0164EB00042B0D7A
:1024F00043EA0C335E1844EB1C50DA465146E7FBC6
:102500000201C5F313044FEA0B3343EA14534FEAB5
:102510000432019C43EA0603A4F10C040294009CDB
:10252000CDE900B400F0F8F8A2E7C10F80EAE0704E
:102530000844CA079623002100F0B4B8962300226D
:10254000114600F0AFB80EB5C10F80EAE070084444
:10255000CA07002140F233438DE80E000A460B46BD
:1025600000F0DAF803B000BD20F00040C10DC0F368
:10257000160040F400007F2901DA002070479629F8
:1025800003DCC1F19601C840704796398840704716
:1025900070B5C1F30A5201F000450024C1F31301E4
:1025A00040F2FF3341F480119A4201DA002070BDFD
:1025B00040F233439A42A2F2334203DC524200F02B
:1025C00046F800E090402C43F1D0404270BD00F04E
:1025D000004230F000400AD0C10D01F56071C0F337
:1025E000160042EA0151C20840071143704700201B
:1025F0000146704730B5002904DB4FF000444042EB
:1026000064EB0101002B04DB4FF00044524264EB09
:102610000303994208BF904230BD0000002801DB4F
:10262000C0F10040002901DBC1F100418842704740
:10263000202A04DB203A00FA02F100207047914082
:10264000C2F1200320FA03F3194390407047202A77
:1026500004DB203A21FA02F00021704721FA02F34C
:10266000D040C2F120029140084319467047202A09
:1026700006DBCB17203A41FA02F043EAE07306E0AA
:1026800041FA02F3D040C2F12002914008431946BA
:1026900070470029A8BF7047401C490008BF20F0C0
:1026A0000100704710B4B0FA80FC00FA0CF050EA58
:1026B000010404BF10BC704749B1CCF1200421FAD9
:1026C00004F411FA0CF118BF012121430843A3EBD4
:1026D0000C01CB1D0106000A002BBEBF002010BC60
:1026E000704700EBC35010440029A4BF10BC7047D2
:1026F000401C490008BF20F0010010BC704710B515
:10270000002B08DA401C41F1000192185B411A438A
:1027100001D120F0010010BD2DE9F04D92469B46FD
:1027200011B1B1FA81F202E0B0FA80F220329046A3
:10273000FFF77EFF04460F4640EA0A0041EA0B011C
:1027400053465A46084303D120463946BDE8F08D2A
:10275000114653EA010015D0C8F140025046FFF778
:1027600076FF05460E46504659464246FFF760FF43
:10277000084301D0012000E00020054346EAE0764E
:102780002C4337430A984FEA4453A0EB08004FEA22
:10279000D4240A304FF0000244EA47544FEAD725C8
:1027A00002D500200146D1E7010510196941DDE994
:1027B000084500196941BDE8F04DA0E7064C074DFA
:1027C00006E0E06840F0010394E807009847103401
:1027D000AC42F6D3FDF7B0FC002800082028000822
:1027E00002E008C8121F08C1002AFAD170477047DA
:1027F000002001E001C1121F002AFBD17047000038
:10280000202800080000002024000000E027000825
:1028100044280008240000205C060000F02700087F
:10282000000000000000000000A24A0400000000B8
:102830000000000001020304060708090000000070
:042840000000000094
:0400000508000131BD
:00000001FF
