:020000040800F2
:1000000080060020D91F0008E11F0008E31F000838
:10001000E51F0008E71F0008E91F000800000000B6
:10002000000000000000000000000000EB1F0008BE
:10003000ED1F000800000000EF1F0008F11F00087E
:10004000F31F0008F31F0008F31F0008F31F000848
:10005000F31F0008F31F0008F31F0008F31F000838
:10006000F31F0008F31F0008F31F0008F31F000828
:10007000F31F0008F31F0008F31F0008F31F000818
:10008000F31F0008F31F0008F31F0008F31F000808
:10009000F31F0008F31F0008F31F0008F31F0008F8
:1000A000F31F0008F31F0008F31F0008F31F0008E8
:1000B000F31F0008F31F0008F31F0008F31F0008D8
:1000C000F31F0008F31F0008F31F0008F31F0008C8
:1000D000F31F000845200008C92000084D21000832
:1000E000F31F0008F31F0008F31F0008F31F0008A8
:1000F000F31F0008F31F0008F31F0008F31F000898
:10010000F31F0008F31F0008FD1F0008F31F00087D
:10011000F31F0008F31F0008F31F0008F31F000877
:10012000F31F0008F31F0008F31F0008F31F000867
:10013000DFF80CD002F074FB0048004745010008CE
:10014000800600201CB501F051FE4FF4E13148203B
:1001500001F08BFB01200090034602460349019009
:100160004FF07E5000F0CDF900BFFEE7CDCC4C3E05
:1001700010B56FF0040000F0ADF82A4800682A4975
:10018000B0FBF1F029490870084600784FF47A7105
:1001900048432749086010BD0146244A12784A4363
:1001A0004FF0E0235A6100229A611A46126942F028
:1001B00001021A6100BF4FF0E022106910F0010F38
:1001C00002D010F4803FF6D04FF0E022126922F006
:1001D00001024FF0E0231A6100229A617047014644
:1001E000134A12684A434FF0E0235A6100229A6191
:1001F0001A46126942F001021A6100BF4FF0E02274
:10020000106910F0010F02D010F4803FF6D04FF0CB
:10021000E022126922F001024FF0E0231A6100226D
:100220009A6170470800002000127A000000002048
:100230000400002031490143314A1160704770B514
:10024000002100230F22C4780CB32D4C246804F441
:10025000E064C4F5E064210AC1F10403CA404478B3
:1002600004FA03F18478144021430901254C0678EF
:10027000A155047804F01F050124AC4005786D11E8
:100280004FF0E02606EB8505C5F8004109E004784B
:1002900004F01F050124AC401B4D0678761145F88B
:1002A000264070BD194A0A400243154B1B1F1A60B5
:1002B000704739B1124A121D12680243104B1B1DC0
:1002C0001A6006E00E4A121D126882430C4B1B1D79
:1002D0001A607047042808D14FF0E021096941F005
:1002E00004014FF0E022116107E04FF0E0210969BD
:1002F00021F004014FF0E022116170470000FA057F
:100300000CED00E000E400E080E100E080FFFF1F72
:10031000FE4A926942F40062FC4B9A61FC4A1080EA
:10032000121F1180FA4A1832128842F40042F84B28
:1003300018331A808022F64B2C3B1A801A461288FA
:1003400042F001021A807047F04AD26942F001027D
:10035000EE4BDA619A04908511858022D3051A80CC
:10036000D205128842F001021A807047E74AD2692A
:1003700042F00202E54BDA61E64A1080121F11805A
:100380008022E44B2C3B1A801A46128842F001026C
:100390001A807047DD4AD26942F00402DB4BDA6111
:1003A000DD4A1080121F11808022DB4B2C3B1A800B
:1003B0001A46128842F001021A807047012806D0BE
:1003C00002282BD0032850D0042826D172E0CF4930
:1003D000896941F00401CD4A9161D049096821F051
:1003E0000F01CE4A11601146096841F00B011160FE
:1003F000C7491439098841F06001C54A143A11808F
:100400001146098841F008011180C1490C39098859
:1004100041F00101BE4A0C3A118070E0BB49896984
:1004200041F00401B94A9161BC49096821F0F00129
:10043000BA4A11601146096841F0B0011160B4492F
:100440001439098841F4C041B14A143A1180114667
:10045000098841F400611180AD490C39098841F0E7
:100460001001AB4A0C3A118049E0A849896941F072
:100470000401A64A9161A949096821F47061A74A5B
:1004800011601146096841F430611160A0491039CA
:10049000098841F060019E4A103A1180114609888E
:1004A00041F008011180111D098841F48071121D6D
:1004B000118024E09549896941F00401934A9161D2
:1004C0009649096821F47041944A116011460968FF
:1004D00041F4304111608E491039098841F4C0411E
:1004E0008B4A103A11801146098841F4006111804D
:1004F000111D098841F48051121D118000BF00BFF9
:1005000070472DE9F84F81468A4614461D46DDF8AE
:1005100028B00020009000268149484602F0B0F83B
:100520000BD840F2CF7000907E49484601F0A8FEFB
:10053000074602F04AF886B22DE07B49484602F0B1
:100540009FF80AD8772000907849484601F098FE35
:10055000074602F03AF886B21DE0484602F068F815
:100560000746734A734B02F077F80AD80B200090C5
:100570007149484601F084FE074602F026F886B22B
:1005800009E0002000906D49484601F079FE0746D9
:1005900002F01BF886B2711E88B20099FFF7B8FE10
:1005A000012C0FD10120FFF709FF304601F0F7FFC2
:1005B0008046514601F064FE074602F006F85449B1
:1005C00008310880012D0FD10220FFF7F7FE3046D9
:1005D00001F0E5FF8046514601F052FE074601F06A
:1005E000F4FF4B490C310880BBF1010F0FD1032000
:1005F000FFF7E4FE304601F0D2FF8046514601F09D
:100600003FFE074601F0E1FF4149103108800B9899
:1006100001280FD10420FFF7D1FE304601F0BFFFC3
:100620008046514601F02CFE074601F0CEFF3849C6
:1006300014310880BDE8F88F012806D0022828D0A0
:1006400003284AD0042823D186E03049896941F043
:1006500004012E4A91613149091F096821F00F01F7
:100660002E4A121F11601146096841F00B011160FA
:10067000D104098B41F06001D20411831146098B2A
:1006800041F0080111831146098C41F001011184E8
:1006900084E01E49896941F004011C4A91611F49A7
:1006A000091F096821F0F0011C4A121F1160114650
:1006B000096841F0B0011160D104098B41F4C041D7
:1006C000D20411831146098B41F400611183114654
:1006D000098C41F01001118460E00C49896941F0F6
:1006E00004010A4A91610D49091F096821F47061EA
:1006F0000A4A121F11601146096841F43061116005
:10070000D104898B41F06001D20419E0001002404D
:100710002C2C01402C0400402C080040040801400F
:100720000000C842000010420000204100001644B2
:100730004A0C022B8716ED3F0080BB4500A08C477A
:1007400091831146898B41F0080191831146098CF0
:1007500041F48071118421E0FA49896941F0040172
:10076000F84A9161F849096821F47041F64A11602C
:100770001146096841F430411160D104898B41F47C
:10078000C041D20491831146898B41F40061918369
:100790001146098C41F48051118400BF00BF70479D
:1007A0002DE9F84F81468A4614461D46DDF828B0EB
:1007B000002000900026E549484601F061FF0BD873
:1007C00040F2CF700090E249484601F059FD0746DB
:1007D00001F0FBFE86B22DE0DE49484601F050FFF5
:1007E0000AD877200090DC49484601F049FD0746C9
:1007F00001F0EBFE86B21DE0484601F019FF074606
:10080000D64AD74B01F028FF0AD80B200090D549D3
:10081000484601F035FD074601F0D7FE86B209E0F3
:1008200000200090D049484601F02AFD074601F01B
:10083000CCFE86B2711E88B20099FFF785FD012CAF
:100840000ED10120FFF7F8FE304601F0A8FE8046E9
:10085000514601F015FD074601F0B7FEA107888655
:10086000012D0ED10220FFF7E7FE304601F097FE82
:100870008046514601F004FD074601F0A6FEA90797
:100880000887BBF1010F0FD10320FFF7D5FE3046DB
:1008900001F085FE8046514601F0F2FC074601F06A
:1008A00094FE4FF0804188870B9801280ED10420D8
:1008B000FFF7C2FE304601F072FE8046514601F05D
:1008C000DFFC074601F081FEA8490880BDE8F88FEB
:1008D000012806D0022829D003284CD0042824D18E
:1008E0006EE09849896941F00401964A9161964900
:1008F000096821F07061944A11601146096841F05D
:10090000306111609A49098841F06001984A11806C
:100910001146098841F0080111809549083109887C
:1009200041F00101924A083211806EE085498969DF
:1009300041F00401834A91618349096821F07041C3
:10094000814A11601146096841F0304111608849BF
:10095000098841F4C041864A11801146098841F452
:100960000061118082490831098841F01001804AF4
:100970000832118049E07349896941F00801714AE0
:1009800091617C49096821F00F017A4A1160114692
:10099000096841F00B0111607549091D098841F092
:1009A0006001734A121D11801146098841F0080147
:1009B0001180111D098841F48071121D118024E0FD
:1009C0006049896941F008015E4A91616949096895
:1009D00021F0F001674A11601146096841F0B00149
:1009E00011606349091D098841F4C041604A121D24
:1009F00011801146098841F400611180111D098898
:100A000041F48051121D118000BF00BF70472DE9D5
:100A1000F84F81468A4614461D46DDF828B000206E
:100A2000009000264949484601F02AFE0BD840F2C2
:100A3000CF7000904649484601F022FC074601F07D
:100A4000C4FD86B22DE04349484601F019FE0AD89C
:100A5000772000904049484601F012FC074601F01B
:100A6000B4FD86B21DE0484601F0E2FD07463B4A70
:100A70003B4B01F0F1FD0AD80B2000903949484664
:100A800001F0FEFB074601F0A0FD86B209E0002060
:100A900000903549484601F0F3FB074601F095FD0B
:100AA00086B2711E88B20099FFF760FC012C0FD14D
:100AB0000120FFF70DFF304601F071FD80465146E1
:100AC00001F0DEFB074601F080FD29491C3108805A
:100AD000012D0FD10220FFF7FBFE304601F05FFD34
:100AE0008046514601F0CCFB074601F06EFD2049DF
:100AF00020310880BBF1010F0FD10320FFF7E8FE82
:100B0000304601F04CFD8046514601F0B9FB0746E6
:100B100001F05BFD1649243108800B9801280FD1A4
:100B20000420FFF7D5FE304601F039FD80465146DE
:100B300001F0A6FB074601F048FD0D492831088069
:100B4000BDE8F88F00100240000801400000C842D4
:100B50000000104200002041000016444A0C022B05
:100B60008716ED3F0080BB4500A08C474000004049
:100B700018040040000C0140012806D0022829D0AA
:100B800003284CD0042824D170E0FE49896941F043
:100B90000801FC4A9161FC49096821F07061FA4A38
:100BA00011601146096841F030611160F749098808
:100BB00041F06001F54A11801146098841F00801B1
:100BC0001180F2490831098841F00101EF4A0832E9
:100BD000118072E0EB49896941F00801E94A9161AD
:100BE000E949096821F07041E74A11601146096836
:100BF00041F030411160E549098841F4C041E34AC0
:100C000011801146098841F400611180DF490831E3
:100C1000098841F01001DD4A083211804DE0D949C0
:100C2000896941F00801D74A9161D749091D0968CE
:100C300021F00F01D44A121D11601146096841F0DC
:100C40000B011160D149091D098841F06001CF4AAB
:100C5000121D11801146098841F008011180111DF3
:100C6000098841F48071121D118026E0C549896907
:100C700041F00801C34A9161C349091D096821F087
:100C8000F001C14A121D11601146096841F0B0011E
:100C90001160BE49091D098841F4C041BB4A121DBB
:100CA00011801146098841F400611180111D0988E5
:100CB00041F48051121D118000BF00BF70472DE923
:100CC000F84F81468A4614461D46DDF828B00020BC
:100CD00000900026AE49484601F0D2FC0BD840F205
:100CE000CF700090AB49484601F0CAFA074601F0C0
:100CF0006CFC86B22DE0A849484601F0C1FC0AD838
:100D000077200090A549484601F0BAFA074601F05D
:100D10005CFC86B21DE0484601F08AFC0746A04A0A
:100D2000A04B01F099FC0AD80B2000909E49484640
:100D300001F0A6FA074601F048FC86B209E000205F
:100D400000909A49484601F09BFA074601F03DFCA5
:100D500086B2711E88B20099FFF71CFB012C0FD1DF
:100D60000120FFF709FF304601F019FC804651468B
:100D700001F086FA074601F028FC84491C310880FE
:100D8000012D0FD10220FFF7F7FE304601F007FCDE
:100D90008046514601F074FA074601F016FC7B4983
:100DA00020310880BBF1010F0FD10320FFF7E4FED3
:100DB000304601F0F4FB8046514601F061FA0746E7
:100DC00001F003FC7149243108800B9801280FD1F0
:100DD0000420FFF7D1FE304601F0E1FB804651468A
:100DE00001F04EFA074601F0F0FB6849283108800F
:100DF000BDE8F88F2DE9FC5F0446884615461E467F
:100E0000DDE90C9A0020019000270A2C07D840F257
:100E1000CF70019048F6A040B0FBF4F719E0642CC5
:100E200006D8772001906248B0FBF4F087B210E05A
:100E300040F24C40844206D80B2001905D48B0FB44
:100E4000F4F087B205E0002001905B48B0FBF4F0BD
:100E500087B2791E88B20199FFF75AFA012D0ED197
:100E60000120FFF7ABFA384601F099FB41460090AC
:100E700001F006FA834601F0A8FB50490880012ED4
:100E80000FD10220FFF79AFA384601F088FB41465D
:100E9000009001F0F5F9834601F097FB4749091DE1
:100EA0000880B9F1010F0FD10320FFF787FA384608
:100EB00001F075FB4146009001F0E2F9834601F034
:100EC00084FB3E4908310880BAF1010F0FD104209C
:100ED000FFF774FA384601F062FB4146009001F0DA
:100EE000CFF9834601F071FB34490C310880BDE82D
:100EF000FC9F2DE9FC5F0446884615461E46DDE949
:100F00000C9A0020019000270A2C07D840F2CF70DD
:100F1000019048F6A040B0FBF4F719E0642C06D825
:100F2000772001902248B0FBF4F087B210E040F245
:100F30004C40844206D80B2001901E48B0FBF4F0D0
:100F400087B205E0002001901B48B0FBF4F087B2A7
:100F5000791E88B20199FFF7F7F9012D0ED1012012
:100F6000FFF76AFB384601F01AFB4146009001F09A
:100F700087F9834601F029FBA9078886012E2DD128
:100F800002201DE000100240000C01401808004043
:100F90000000C8420000104200002041000016443A
:100FA0004A0C022B8716ED3F0080BB4500A08C4702
:100FB000C0270900808D5B0000A24A04342C014048
:100FC000FFF73AFB384601F0EAFA4146009001F09B
:100FD00057F9834601F0F9FAB1070887B9F1010F13
:100FE0000FD10320FFF728FB384601F0D8FA41461D
:100FF000009001F045F9834601F0E7FA4FF0804197
:101000008887BAF1010F0ED10420FFF715FB38468F
:1010100001F0C5FA4146009001F032F9834601F033
:10102000D4FAF9490880BDE8FC9F2DE9FC5F04462D
:10103000884615461E46DDE90C9A002001900027DF
:101040000A2C07D840F2CF70019048F6A040B0FBC0
:10105000F4F719E0642C06D877200190EB48B0FB38
:10106000F4F087B210E040F24C40844206D80B20E6
:101070000190E748B0FBF4F087B205E00020019052
:10108000E448B0FBF4F087B2791E88B20199FFF70B
:101090006DF9012D0ED10120FFF71AFC384601F041
:1010A0007EFA4146009001F0EBF8834601F08DFA9C
:1010B000D9490880012E0FD10220FFF709FC3846DC
:1010C00001F06DFA4146009001F0DAF8834601F034
:1010D0007CFAD149091D0880B9F1010F0FD1032015
:1010E000FFF7F6FB384601F05AFA4146009001F04E
:1010F000C7F8834601F069FAC74908310880BAF198
:10110000010F0FD10420FFF7E3FB384601F047FA47
:101110004146009001F0B4F8834601F056FABE490A
:101120000C310880BDE8FC9F2DE9FC5F0446884631
:1011300015461E46DDE90C9A0020019000270A2C76
:1011400007D840F2CF70019048F6A040B0FBF4F70A
:1011500019E0642C06D877200190AC48B0FBF4F07D
:1011600087B210E040F24C40844206D80B20019038
:10117000A748B0FBF4F087B205E000200190A54835
:10118000B0FBF4F087B2791E88B20199FFF702F93B
:10119000012D0ED10120FFF7EFFC384601F0FFF9D9
:1011A0004146009001F06CF8834601F00EFA9B492D
:1011B0000880012E0FD10220FFF7DEFC384601F037
:1011C000EEF94146009001F05BF8834601F0FDF92D
:1011D0009249091D0880B9F1010F0FD10320FFF7D3
:1011E000CBFC384601F0DBF94146009001F048F8AD
:1011F000834601F0EAF9894908310880BAF1010F04
:101200000FD10420FFF7B8FC384601F0C8F9414679
:10121000009001F035F8834601F0D7F97F490C3191
:101220000880BDE8FC9F2DE9F04705460C461646B0
:101230004FF0000800270A2C07DC40F2CF7848F670
:10124000A04090FBF4F087B219E0642C06DC4FF06C
:1012500077086E4890FBF4F087B210E040F24C4003
:10126000844206DC4FF00B08694890FBF4F087B22B
:1012700005E04FF00008674890FBF4F087B2781E55
:1012800067490880081FA0F80080012D0CD138465E
:1012900001F085F98246314600F0F2FF814601F007
:1012A00094F95F4908310880022D0CD1384601F0CD
:1012B00076F98246314600F0E3FF814601F085F978
:1012C00057490C310880032D0CD1384601F067F9DD
:1012D0008246314600F0D4FF814601F076F950494C
:1012E00010310880042D0CD1384601F058F982469F
:1012F000314600F0C5FF814601F067F948491431D5
:101300000880BDE8F0872DE9F04705460C461646F3
:101310004FF0000800270A2C07DC40F2CF7848F68F
:10132000A04090FBF4F087B219E0642C06DC4FF08B
:101330007708364890FBF4F087B210E040F24C405A
:10134000844206DC4FF00B08314890FBF4F087B282
:1013500005E04FF000082F4890FBF4F087B2781EAC
:101360004FF0804188850846A0F82880012D0BD1D8
:10137000384601F014F98246314600F081FF81467B
:1013800001F023F9A9078886022D0BD1384601F018
:1013900006F98246314600F073FF814601F015F9E7
:1013A00069070887032D0CD1384601F0F8F882460A
:1013B000314600F065FF814601F007F94FF08041AA
:1013C0008887042D0BD1384601F0E9F88246314672
:1013D00000F056FF814601F0F8F80B490880BDE89F
:1013E000F0872DE9F04705460C4616464FF00008F9
:1013F00000270A2C16DC40F2CF7848F6A04090FB7C
:10140000F4F087B228E0000040000040C027090047
:10141000808D5B0000A24A04340400403408004080
:101420002C2C0140642C06DC4FF07708644890FBBC
:10143000F4F087B210E040F24C40844206DC4FF0FA
:101440000B08604890FBF4F087B205E04FF000080D
:101450005D4890FBF4F087B2781E5C490880081F55
:10146000A0F80080012D0CD1384601F098F8824692
:10147000314600F005FF814601F0A7F853490831D5
:101480000880022D0CD1384601F089F88246314699
:1014900000F0F6FE814601F098F84C490C310880C6
:1014A000032D0CD1384601F07AF88246314600F01F
:1014B000E7FE814601F089F8444910310880042D87
:1014C0000CD1384601F06BF88246314600F0D8FE68
:1014D000814601F07AF83D4914310880BDE8F08773
:1014E0002DE9F04705460C4616464FF00008002748
:1014F0000A2C07DC40F2CF7848F6A04090FBF4F0CD
:1015000087B219E0642C06DC4FF077082C4890FB7A
:10151000F4F087B210E040F24C40844206DC4FF019
:101520000B08284890FBF4F087B205E04FF0000864
:10153000254890FBF4F087B2781E25490880081FE3
:10154000A0F80080012D0CD1384601F028F8824621
:10155000314600F095FE814601F037F81C4908310C
:101560000880022D0CD1384601F019F88246314628
:1015700000F086FE814601F028F815490C310880FC
:10158000032D0CD1384601F00AF88246314600F0AE
:1015900077FE814601F019F80D4910310880042DBD
:1015A0000CD1384600F0FBFF8246314600F068FE61
:1015B000814601F00AF8064914310880BDE8F08739
:1015C000C0270900808D5B0000A24A042C04004063
:1015D0002C080040062835D2DFE800F034030D1750
:1015E000212B00BFFE4A128812F0400FFAD0FC4AAD
:1015F000121D118026E000BFFA4A128812F0400F37
:10160000FAD0F84A121D11801CE000BFF64A128879
:1016100012F0400FFAD0F44A121D118012E000BF00
:10162000F24A128812F0400FFAD0F04A121D1180CF
:1016300008E000BFEE4A128812F0400FFAD0EC4AE0
:10164000918000BF00BF704770B505460C4604B9D5
:1016500070BD0A2094FBF0F631462846FFF7F4FFF0
:101660000A2094FBF0F100FB11403030C6B2314645
:101670002846FFF7AFFF00BFEAE730B505460C4646
:1016800004E014F8011B2846FFF7A4FF2078002887
:10169000F7D130BD30B505460C4624B9D5A1284652
:1016A000FFF7EBFF30BD21092846FFF7F3FF04F0F9
:1016B0000F000A2807D204F00F0000F1300128467D
:1016C000FFF788FF06E004F00F005730C1B228464C
:1016D000FFF780FF00BFE5E72DE9F047814614469C
:1016E0001D464FF000062046294600F082FF0646C0
:1016F00031464846FFF7A8FF2E214846FFF76AFF0C
:10170000304600F051FF074622462B4600F0D2FE3D
:1017100004460D460022B84B2046294600F0CDFE77
:10172000074600F066FF064631464846FFF78CFF45
:10173000BDE8F08770B506460C4624B9AFA1304627
:10174000FFF79BFF70BD254604EBD5704110304676
:10175000FFF7F0FF04EBD5704010A4EB40003030F1
:10176000C1B23046FFF736FF00BFEBE70FB42DE9FB
:10177000F84F074600BF4FF00008C146C24600249C
:101780000CA800900B9C68E02078252860D1601C94
:1017900004460078632812D008DC25284FD0422860
:1017A0003AD0582842D062284ED134E0642811D073
:1017B000662818D0732825D0782845D135E00098C0
:1017C00010F8041B01F0FF0A009051463846FFF75D
:1017D00001FF3AE0009850F8048B009041463846EB
:1017E000FFF732FF31E00098C01D20F007000090A5
:1017F000D0E90056083000902A4633463846FFF7B5
:101800006BFF22E0009850F8049B00904946384650
:10181000FFF733FF19E000BF009850F8048B0090E9
:1018200041463846FFF786FF0FE000BF009850F8AA
:10183000048B009041463846FFF72CFF05E0252138
:101840003846FFF7C7FE00E000BF00BF641C04E09D
:1018500014F8011B3846FFF7BDFE2078002893D10D
:101860000090BDE8F80F5DF814FB2DE9F05F054628
:101870000E46300100F093FE8146614905FB01F000
:1018800000F08DFE8246494600F030FD074638469E
:1018900000F09BFE84B2204600F081FE834639466C
:1018A00000F0EBFC82464FF0834100F0E9FC8146FA
:1018B00000F08BFE80464FF6FF7000EA041404EB44
:1018C000080084B24F48806940F004004D498861A7
:1018D0000846806940F4804088614B48006820F0E9
:1018E000F000494908600846006840F0B000086010
:1018F0000846006820F4706008600846006840F4FC
:101900000060086040480830006840F480603E494C
:10191000083108603B48C06840F480403949C860DD
:101920000846C06820F48040C8602D480830048014
:10193000001D008842F20C01084329490C3108803F
:101940000846008840F020000880BDE8F09F2DE99F
:10195000F05F05460E46300100F021FE8146284921
:1019600005FB01F000F01BFE8246494600F0BEFC7C
:101970000746384600F029FE84B2204600F00FFEEC
:101980008346394600F079FC82464FF0834100F0EF
:1019900077FC814600F019FE80464FF6FF7000EAA2
:1019A000041404EB080084B21648806940F0040077
:1019B000144988610846806940F400308861124803
:1019C000001F006820F470600F49091F0860084676
:1019D000006840F4306008600846006816E00000C7
:1019E000003801400044004000480040004C0040E6
:1019F000005000403078000080842E4130620000AA
:101A000040420F00001002400408014020F47040E2
:101A100008600846006840F400400860BA48006862
:101A200040F00800B8490860B848006940F4003048
:101A3000B64908610846006920F400300861B448DE
:101A40000480001D008842F20C010843B049091DC2
:101A500008800846008840F020000880BDE8F09F1C
:101A60002DE9F05F05460E46300100F098FD8146F5
:101A7000A84905FB01F000F092FD8246494600F0BE
:101A800035FC0746384600F0A0FD84B2204600F041
:101A900086FD8346394600F0F0FB82464FF08341D5
:101AA00000F0EEFB814600F090FD80464FF6FF709F
:101AB00000EA041404EB080084B29448806940F002
:101AC0000800924988610846806940F48020886156
:101AD0009148006820F470608F49086008460068EB
:101AE00040F4306008600846006820F470400860E8
:101AF0000846006840F400400860874808300068E5
:101B000040F400608449083108608048C06840F4AF
:101B100080207E49C8600846C06820F48020C860E4
:101B20007E480480001D008842F20C0108437B4976
:101B3000091D08800846008840F020000880BDE8A4
:101B4000F09F2DE9F05F05460E46300100F027FDBD
:101B50008146704905FB01F000F021FD82464946AF
:101B600000F0C4FB0746384600F02FFD84B2204643
:101B700000F015FD8346394600F07FFB82464FF0AA
:101B8000834100F07DFB814600F01FFD80464FF64B
:101B9000FF7000EA041404EB080084B25B4880691B
:101BA00040F01000594988610846806940F40020DF
:101BB00088615B48406820F4706059494860084675
:101BC000406840F4306048600846406820F4704047
:101BD00048600846406840F4004048600846C068D5
:101BE00040F40060C8604948C06840F4002047499C
:101BF000C8600846C06820F40020C86049480480D6
:101C0000001D008842F20C0108434649091D088066
:101C10000846008840F020000880BDE8F09F2DE9CC
:101C2000F05F05460E46300100F0B9FC81463949A7
:101C300005FB01F000F0B3FC8246494600F056FB7C
:101C40000746384600F0C1FC84B2204600F0A7FCED
:101C50008346394600F011FB82464FF0834100F085
:101C60000FFB814600F0B1FC80464FF6FF7000EAA2
:101C7000041404EB080084B22448806940F010008A
:101C8000224988610846806940F020008861084642
:101C9000C06940F48010C8612148406820F4702079
:101CA0001F4948600846406840F4302048601E489C
:101CB000006820F470601C4908600846006840F421
:101CC0000060086018480C30006840F004001649B5
:101CD0000C3108600D48006940F480100B49086120
:101CE0000846006920F4801008611048048180894A
:101CF00042F20C0108430D4988810846808940F072
:101D000020008881BDE8F09F0C08014000100240CF
:101D10000844004040420F00040C014008480040C5
:101D200000100140084C00400014014000500040E9
:101D300008B54FF4C060FEF77DFA1C208DF8000056
:101D400001208DF8010000208DF8020001208DF89F
:101D500003006846FEF773FA25208DF80000012085
:101D60008DF801008DF802008DF803006846FEF73B
:101D700066FA26208DF8000001208DF8010002206F
:101D80008DF8020001208DF803006846FEF757FA2F
:101D900027208DF8000001208DF8010003208DF828
:101DA000020001208DF803006846FEF748FA34204F
:101DB0008DF8000001208DF8010004208DF802004C
:101DC00001208DF803006846FEF739FA35208DF8BA
:101DD000000001208DF8010005208DF8020001208F
:101DE0008DF803006846FEF72AFA08BD10B500F02A
:101DF00073F8FEF7BDF9FFF79BFF10BD0CB500208F
:101E0000019000906B48006840F480306949086098
:101E100000BF6848006800F4003000900198401C42
:101E20000190009818B90198B0F5A06FF1D1614800
:101E3000006810F4003F02D00120009001E0002073
:101E400000900098012842D15B48006840F01000E3
:101E5000594908600846006820F0030008600846F9
:101E6000006840F0020008605248406851494860EC
:101E70000846406848600846406840F48060486012
:101E80000846406820F47C1048600846406840F4EA
:101E9000E81048600846006840F08070086000BFA5
:101EA0004448006810F0007FFAD04248406820F0B3
:101EB0000300404948600846406840F0020048601E
:101EC00000BF3C48406800F00C000828F9D10CBD68
:101ED00010B5FFF793FF10BD10B53648006840F00D
:101EE00001003449086008464068344908403149D7
:101EF000486008460068324908402E490860084694
:101F0000006820F4802008600846406820F4FE0045
:101F100048604FF41F008860FFF7DAFF4FF0006061
:101F20002849086010BD10B5002100200022214B77
:101F30005B6803F00C0121B1042906D0082928D1DF
:101F400007E0214B214C236027E01F4B1F4C2360EF
:101F500023E0184B5B6803F47010164B5B6803F4C6
:101F60008032022303EB904022B9194B4343174CB4
:101F700023600DE00F4B5B6813F4003F04D0144B5B
:101F80004343124C236003E00F4B43430F4C236049
:101F900003E00D4B0D4C236000BF00BF054B5B6899
:101FA000C3F303130B4CE15C084B1B68CB40074C9D
:101FB000236010BD00100240002002400000FFF826
:101FC000FFFFF6FE08ED00E000127A000800002096
:101FD00000093D000C0000200648804706480047E5
:101FE000FEE7FEE7FEE7FEE7FEE7FEE7FEE7FEE7C9
:101FF000FEE7FEE7D91E0008310100080E48008800
:1020000010F0010F17D00C48008820F001000A4999
:1020100008800A48006838B90020094908604FF074
:1020200001000649086006E00120054908604FF0FC
:102030000000024908607047100C00401C0000209E
:10204000800121421D49098811F0200F34D01B491D
:10205000091D0988C8B21A49098811F4004F2BD10B
:102060001749098811F4804F0CD00A2803D00021A9
:10207000134A118020E01249098841F40041104AB6
:10208000118019E00D2806D10D49098841F48041DD
:102090000B4A118010E00A490988C1F30D01094A71
:1020A000505407490988491C054A1180114609887E
:1020B000C72901DD00211180704700000038014070
:1020C00020000020280000201D49098811F0200F61
:1020D00034D01B49091D0988C8B21A49098811F46E
:1020E000004F2BD11749098811F4804F0CD00A28D2
:1020F00003D00021134A118020E01249098841F4DD
:102100000041104A118019E00D2806D10D490988B7
:1021100041F480410B4A118010E00A490988C1F35B
:102120000D01094A505407490988491C054A118084
:1021300011460988C72901DD002111807047000080
:102140000038014022000020F00000201D490988CD
:1021500011F0200F34D01B49091D0988C8B21A4953
:10216000098811F4004F2BD11749098811F4804FC9
:102170000CD00A2803D00021134A118020E0124914
:10218000098841F40041104A118019E00D2806D158
:102190000D49098841F480410B4A118010E00A4939
:1021A0000988C1F30D01094A505407490988491C9F
:1021B000054A118011460988C72901DD00211180D7
:1021C000704700000038014024000020B8010020C2
:1021D000F0B480EA0102D40F4200B2EB410F02D208
:1021E0000246084611464A0042D0C30DDDB2C1F393
:1021F000C752AD1A202D35DAC1F3160141F40002A1
:1022000004B15242C5F1200602FA06F12A411044F7
:10221000B3EBD05F23D0C4B1012DA0EBC35009DCD8
:10222000F0BC4FF0004202EAC35200F50000DBB2FE
:1022300000F06ABA400000F1807000EBC350A0F1DA
:10224000807040EAD170490009E0490841EAC07154
:10225000A0EBC35000F50000400800EBC350F0BCF9
:1022600000F049BA6142012202EB4101001BF6E78E
:10227000F0BC704781F00041AAE780F00040A7E77A
:1022800080EA010210B502F00043400026D04A0067
:1022900023D04FEA106101EB1261C0F35600C2F384
:1022A000560240F4000042F40002A0FB0220A1F11B
:1022B0007F014FEA0040140401D000F1010050EA10
:1022C000124001D44000491EC2B20C0604EBD010EB
:1022D000401C4008802A02D003E0002010BD20F0FE
:1022E0000100002900DA0020184310BD30B480EA54
:1022F000010202F0004530F0004221F0004015D00C
:10230000A0B1C0F3C753C2F3C754C2F31601C0F360
:102310001600E41A41F4000140F400027D349142B9
:1023200001D3641C00E04900002C02DA30BC00201C
:1023300070474FF400000023914201D3891A0343F0
:1023400040084FEA4101F7D151B1914202D14FF01B
:10235000004105E002D24FF0010101E06FF0010100
:1023600003EBC450284430BC00F0C5B92DE9FE4F42
:10237000804681EA0300C00F0C46009021F0004126
:1023800023F00045B8EB0200A94105D240462146A2
:1023900090461C460B46024623F00040104304D1F1
:1023A0004046214603B0BDE8F08F270DC7F30A0071
:1023B000C3F30A510290401A0190402866DAC3F331
:1023C000130040F4801B0098924620B10023D2EB0A
:1023D000030A63EB0B0B01985946C0F140025046CB
:1023E00000F058F906460D4650465946019A00F04D
:1023F00070F910EB08006141002487EA115284EA69
:10240000E7731A433BD0009A3AB3019A012A4FEA84
:10241000075210DC001B61EB02014FF0004202EAA0
:102420000752CDE90042001C41F5801132462B468F
:1024300000F0A4F9B6E7001B61EB0201001C41F5B6
:10244000801300185B412018A2F5001747EB030129
:1024500040EAD570B6196D4111E06D084FEA3606B5
:1024600045EAC0754FEA0752001B61EB0201001CF0
:1024700041F5801149084FEA3000001951413246B8
:102480002B4603B0BDE8F04F00F06BB90098012275
:1024900040000023D0EB020263EBE073009821467A
:1024A0004FEAE074B8EB000061EB0401E9E783F068
:1024B00000435BE781F0004158E72DE9FE4F81EAD8
:1024C000030404F0004421F0004100944FF0000B9D
:1024D00023F0004350EA010402D052EA030404D17D
:1024E0000020014603B0BDE8F08FC3F30A54C1F3E6
:1024F0000A552C44A4F2F3340194A0FB0254C1F316
:10250000130141F48011C3F3130343F4801301FB5F
:10251000024400FB034E840A970A44EA815447EAC6
:102520008357A4FB076802958D0A05FB07854FEAD0
:10253000932C04FB0C542705029D4FEA065847EAEA
:102540001637B5EB08056EEB070C870E920E47EABF
:10255000811742EA8312A7FB0201B6EB0B0164EB81
:1025600000042B0D43EA0C335E1844EB1C50DA4692
:102570005146E7FB0201C5F313044FEA0B3343EA6C
:1025800014534FEA0432019C43EA0603A4F10C04FD
:102590000294009CCDE900B400F0F0F8A2E7962385
:1025A0000022114600F0B0B80EB5C10F80EAE0700D
:1025B0000844CA07002140F233438DE80E000A4662
:1025C0000B4600F0DBF803B000BD20F00040C10D69
:1025D000C0F3160040F400007F2901DA00207047A4
:1025E000962903DCC1F19601C840704796398840AE
:1025F000704770B5C1F30A5201F000450024C1F3E1
:10260000130140F2FF3341F480119A4201DA0020B5
:1026100070BD40F233439A42A2F2334203DC52428D
:1026200000F047F800E090402C43F1D0404270BDEC
:1026300000F0004230F000400AD0C10D01F5607199
:10264000C0F3160042EA0151C20840071143704727
:10265000002001467047000030B5002904DB4FF030
:102660000044404264EB0101002B04DB4FF00044C6
:10267000524264EB0303994208BF904230BD000010
:10268000002801DBC0F10040002901DBC1F100415D
:1026900088427047202A04DB203A00FA02F1002029
:1026A00070479140C2F1200320FA03F31943904090
:1026B0007047202A04DB203A21FA02F000217047FB
:1026C00021FA02F3D040C2F120029140084319469A
:1026D0007047202A06DBCB17203A41FA02F043EA82
:1026E000E07306E041FA02F3D040C2F120029140CB
:1026F0000843194670470029A8BF7047401C49008D
:1027000008BF20F00100704710B4B0FA80FC00FA56
:102710000CF050EA010404BF10BC704749B1CCF181
:10272000200421FA04F411FA0CF118BF012121430D
:102730000843A3EB0C01CB1D0106000A002BBEBF12
:10274000002010BC704700EBC35010440029A4BF08
:1027500010BC7047401C490008BF20F0010010BCAD
:10276000704710B5002B08DA401C41F100019218A7
:102770005B411A4301D120F0010010BD2DE9F04D5D
:1027800092469B4611B1B1FA81F202E0B0FA80F2B2
:1027900020329046FFF77EFF04460F4640EA0A00CB
:1027A00041EA0B0153465A46084303D120463946B5
:1027B000BDE8F08D114653EA010015D0C8F1400282
:1027C0005046FFF776FF05460E46504659464246AC
:1027D000FFF760FF084301D0012000E0002005431F
:1027E00046EAE0762C4337430A984FEA4453A0EB7D
:1027F00008004FEAD4240A304FF0000244EA47545C
:102800004FEAD72502D500200146D1E7010510196E
:102810006941DDE9084500196941BDE8F04DA0E7CF
:10282000064C074D06E0E06840F0010394E807001D
:1028300098471034AC42F6D3FDF77EFC64280008BC
:102840008428000802E008C8121F08C1002AFAD133
:1028500070477047002001E001C1121F002AFBD120
:1028600070470000842800080000002028000000B5
:1028700044280008AC280008280000205806000062
:1028800054280008000000000000000000A24A04D4
:102890000000000000000000010203040607080910
:0C28A0000000000000000000000000002C
:0400000508000131BD
:00000001FF
