:020000040800F2
:1000000080060020190D0008210D0008230D0008AE
:10001000250D0008270D0008290D0008000000002C
:100020000000000000000000000000002B0D000890
:100030002D0D0008000000002F0D0008310D0008F4
:10004000330D0008330D0008330D0008330D000890
:10005000330D0008330D0008330D0008330D000880
:10006000330D0008330D0008330D0008330D000870
:10007000330D0008330D0008330D0008330D000860
:10008000330D0008330D0008330D0008330D000850
:10009000330D0008330D0008330D0008330D000840
:1000A000330D0008330D0008330D0008330D000830
:1000B000C5100008DD100008F5100008330D000819
:1000C000330D0008330D0008330D0008330D000810
:1000D000330D000829110008AD1100083112000885
:1000E000330D0008330D0008330D0008330D0008F0
:1000F000330D0008330D0008330D0008330D0008E0
:10010000330D0008330D0008330D0008330D0008CF
:10011000330D0008330D0008330D0008330D0008BF
:10012000330D0008330D0008330D0008330D0008AF
:10013000DFF80CD001F0B4FB00480047450100088F
:100140008006002000F0F2FC4FF4E131482000F07E
:100150002CFA00F062FE0AE04FF4FA7000F041F869
:100160004FF08040828C02A1012000F09FF9F3E75C
:1001700025640A0010B56FF0040000F0ADF82A48BD
:1001800000682A49B0FBF1F0294908700846007858
:100190004FF47A7148432749086010BD0146244A4C
:1001A00012784A434FF0E0235A6100229A611A46BE
:1001B000126942F001021A6100BF4FF0E02210699B
:1001C00010F0010F02D010F4803FF6D04FF0E02283
:1001D000126922F001024FF0E0231A6100229A61B5
:1001E00070470146134A12684A434FF0E0235A61B0
:1001F00000229A611A46126942F001021A6100BF98
:100200004FF0E022106910F0010F02D010F4803F8F
:10021000F6D04FF0E022126922F001024FF0E02305
:100220001A6100229A6170470800002000127A00CB
:10023000000000200400002031490143314A1160D0
:10024000704770B5002100230F22C4780CB32D4CE9
:10025000246804F4E064C4F5E064210AC1F10403F5
:10026000CA40447804FA03F1847814402143090118
:10027000254C0678A155047804F01F050124AC40F4
:1002800005786D114FF0E02606EB8505C5F80041B5
:1002900009E0047804F01F050124AC401B4D0678EA
:1002A000761145F8264070BD194A0A400243154BA5
:1002B0001B1F1A60704739B1124A121D126802439F
:1002C000104B1B1D1A6006E00E4A121D1268824375
:1002D0000C4B1B1D1A607047042808D14FF0E02119
:1002E000096941F004014FF0E022116107E04FF08D
:1002F000E021096921F004014FF0E022116170470B
:100300000000FA050CED00E000E400E080E100E010
:1003100080FFFF1F062835D2DFE800F034030D17F9
:10032000212B00BFFE4A128812F0400FFAD0FC4A7F
:10033000121D118026E000BFFA4A128812F0400F09
:10034000FAD0F84A121D11801CE000BFF64A12884C
:1003500012F0400FFAD0F44A121D118012E000BFD3
:10036000F24A128812F0400FFAD0F04A121D1180A2
:1003700008E000BFEE4A128812F0400FFAD0EC4AB3
:10038000918000BF00BF704770B505460C4604B9A8
:1003900070BD0A2094FBF0F631462846FFF7F4FFC3
:1003A0000A2094FBF0F100FB11403030C6B2314618
:1003B0002846FFF7AFFF00BFEAE730B505460C4619
:1003C00004E014F8011B2846FFF7A4FF207800285A
:1003D000F7D130BD30B505460C4624B9D5A1284625
:1003E000FFF7EBFF30BD21092846FFF7F3FF04F0CC
:1003F0000F000A2807D204F00F0000F13001284650
:10040000FFF788FF06E004F00F005730C1B228461E
:10041000FFF780FF00BFE5E72DE9F047814614466E
:100420001D464FF000062046294601F054F90646C5
:1004300031464846FFF7A8FF2E214846FFF76AFFDE
:10044000304601F023F9074622462B4601F0A4F876
:1004500004460D460022B84B2046294601F09FF87D
:10046000074601F038F9064631464846FFF78CFF4B
:10047000BDE8F08770B506460C4624B9AFA13046FA
:10048000FFF79BFF70BD254604EBD5704110304649
:10049000FFF7F0FF04EBD5704010A4EB40003030C4
:1004A000C1B23046FFF736FF00BFEBE70FB42DE9CE
:1004B000F84F074600BF4FF00008C146C24600246F
:1004C0000CA800900B9C68E02078252860D1601C67
:1004D00004460078632812D008DC25284FD0422833
:1004E0003AD0582842D062284ED134E0642811D046
:1004F000662818D0732825D0782845D135E0009893
:1005000010F8041B01F0FF0A009051463846FFF72F
:1005100001FF3AE0009850F8048B009041463846BD
:10052000FFF732FF31E00098C01D20F00700009077
:10053000D0E90056083000902A4633463846FFF787
:100540006BFF22E0009850F8049B00904946384623
:10055000FFF733FF19E000BF009850F8048B0090BC
:1005600041463846FFF786FF0FE000BF009850F87D
:10057000048B009041463846FFF72CFF05E025210B
:100580003846FFF7C7FE00E000BF00BF641C04E070
:1005900014F8011B3846FFF7BDFE2078002893D1E0
:1005A0000090BDE8F80F5DF814FB2DE9F05F0546FB
:1005B0000E46300101F065F88146614905FB01F006
:1005C00001F05FF88246494600F002FF07463846D0
:1005D00001F06DF884B2204601F053F883463946A5
:1005E00000F0BDFE82464FF0834100F0BBFE814625
:1005F00001F05DF880464FF6FF7000EA041404EB4A
:10060000080084B24F48806940F004004D49886179
:100610000846806940F4804088614B48006820F0BB
:10062000F000494908600846006840F0B0000860E2
:100630000846006820F4706008600846006840F4CE
:100640000060086040480830006840F480603E491F
:10065000083108603B48C06840F480403949C860B0
:100660000846C06820F48040C8602D4808300480E7
:10067000001D008842F20C01084329490C31088012
:100680000846008840F020000880BDE8F09F2DE972
:10069000F05F05460E46300100F0F3FF8146284921
:1006A00005FB01F000F0EDFF8246494600F090FEA8
:1006B0000746384600F0FBFF84B2204600F0E1FF19
:1006C0008346394600F04BFE82464FF0834100F0EE
:1006D00049FE814600F0EBFF80464FF6FF7000EACE
:1006E000041404EB080084B21648806940F004004A
:1006F000144988610846806940F4003088611248D6
:10070000001F006820F470600F49091F0860084648
:10071000006840F4306008600846006816E0000099
:10072000003801400044004000480040004C0040B8
:10073000005000403078000080842E41306200007C
:1007400040420F00001002400408014020F47040B5
:1007500008600846006840F400400860BA48006835
:1007600040F00800B8490860B848006940F400301B
:10077000B64908610846006920F400300861B448B1
:100780000480001D008842F20C010843B049091D95
:1007900008800846008840F020000880BDE8F09FEF
:1007A0002DE9F05F05460E46300100F06AFF8146F4
:1007B000A84905FB01F000F064FF8246494600F0BD
:1007C00007FE0746384600F072FF84B2204600F06C
:1007D00058FF8346394600F0C2FD82464FF0834100
:1007E00000F0C0FD814600F062FF80464FF6FF70CA
:1007F00000EA041404EB080084B29448806940F0D5
:100800000800924988610846806940F48020886128
:100810009148006820F470608F49086008460068BD
:1008200040F4306008600846006820F470400860BA
:100830000846006840F400400860874808300068B7
:1008400040F400608449083108608048C06840F482
:1008500080207E49C8600846C06820F48020C860B7
:100860007E480480001D008842F20C0108437B4949
:10087000091D08800846008840F020000880BDE877
:10088000F09F2DE9F05F05460E46300100F0F9FEBD
:100890008146704905FB01F000F0F3FE82464946AF
:1008A00000F096FD0746384600F001FF84B220466E
:1008B00000F0E7FE8346394600F051FD82464FF0D6
:1008C000834100F04FFD814600F0F1FE80464FF677
:1008D000FF7000EA041404EB080084B25B488069EE
:1008E00040F01000594988610846806940F40020B2
:1008F00088615B48406820F4706059494860084648
:10090000406840F4306048600846406820F4704019
:1009100048600846406840F4004048600846C068A7
:1009200040F40060C8604948C06840F4002047496E
:10093000C8600846C06820F40020C86049480480A8
:10094000001D008842F20C0108434649091D088039
:100950000846008840F020000880BDE8F09F2DE99F
:10096000F05F05460E46300100F08BFE81463949A6
:1009700005FB01F000F085FE8246494600F028FDA7
:100980000746384600F093FE84B2204600F079FE18
:100990008346394600F0E3FC82464FF0834100F085
:1009A000E1FC814600F083FE80464FF6FF7000EACE
:1009B000041404EB080084B22448806940F010005D
:1009C000224988610846806940F020008861084615
:1009D000C06940F48010C8612148406820F470204C
:1009E0001F4948600846406840F4302048601E486F
:1009F000006820F470601C4908600846006840F4F4
:100A00000060086018480C30006840F00400164987
:100A10000C3108600D48006940F480100B490861F2
:100A20000846006920F4801008611048048180891C
:100A300042F20C0108430D4988810846808940F044
:100A400020008881BDE8F09F0C08014000100240A2
:100A50000844004040420F00040C01400848004098
:100A600000100140084C00400014014000500040BC
:100A700008B54FF4C060FFF7DFFB1C208DF80000C5
:100A800001208DF8010000208DF8020001208DF872
:100A900003006846FFF7D5FB25208DF800000120F4
:100AA0008DF801008DF802008DF803006846FFF70D
:100AB000C8FB26208DF8000001208DF801000220DF
:100AC0008DF8020001208DF803006846FFF7B9FB9E
:100AD00027208DF8000001208DF8010003208DF8FB
:100AE000020001208DF803006846FFF7AAFB3420BE
:100AF0008DF8000001208DF8010004208DF802001F
:100B000001208DF803006846FFF79BFB35208DF828
:100B1000000001208DF8010005208DF80200012061
:100B20008DF803006846FFF78CFB08BD10B500F098
:100B300073F8FFF71FFBFFF79BFF10BD0CB50020FC
:100B4000019000906B48006840F48030694908606B
:100B500000BF6848006800F4003000900198401C15
:100B60000190009818B90198B0F5A06FF1D16148D3
:100B7000006810F4003F02D00120009001E0002046
:100B800000900098012842D15B48006840F01000B6
:100B9000594908600846006820F0030008600846CC
:100BA000006840F0020008605248406851494860BF
:100BB0000846406848600846406840F480604860E5
:100BC0000846406820F47C1048600846406840F4BD
:100BD000E81048600846006840F08070086000BF78
:100BE0004448006810F0007FFAD04248406820F086
:100BF0000300404948600846406840F002004860F1
:100C000000BF3C48406800F00C000828F9D10CBD3A
:100C100010B5FFF793FF10BD10B53648006840F0DF
:100C200001003449086008464068344908403149A9
:100C3000486008460068324908402E490860084666
:100C4000006820F4802008600846406820F4FE0018
:100C500048604FF41F008860FFF7DAFF4FF0006034
:100C60002849086010BD10B5002100200022214B4A
:100C70005B6803F00C0121B1042906D0082928D1B2
:100C800007E0214B214C236027E01F4B1F4C2360C2
:100C900023E0184B5B6803F47010164B5B6803F499
:100CA0008032022303EB904022B9194B4343174C87
:100CB00023600DE00F4B5B6813F4003F04D0144B2E
:100CC0004343124C236003E00F4B43430F4C23601C
:100CD00003E00D4B0D4C236000BF00BF054B5B686C
:100CE000C3F303130B4CE15C084B1B68CB40074C70
:100CF000236010BD00100240002002400000FFF8F9
:100D0000FFFFF6FE08ED00E000127A000800002068
:100D100000093D000C0000200648804706480047B7
:100D2000FEE7FEE7FEE7FEE7FEE7FEE7FEE7FEE79B
:100D3000FEE7FEE7190C000831010008F34880695E
:100D400040F40060F14988610846806940F0040081
:100D50008861EF48006820F0FF00ED490860084610
:100D60000068EC490843EA490860EB48008840F015
:100D70000100E94908800846008840F040000880EA
:100D80000020E5491C3108804EF66020091D0880CE
:100D9000E1480C38008820F44070DF490C390880A5
:100DA0000846008820F060000880DB480C3000888E
:100DB00040F00100D8490C3108800846008840F412
:100DC00080700880D4481430008820F00200D24996
:100DD000143108800846008820F020000880CE48A2
:100DE0000C30008840F03000CB490C310880CA48F4
:100DF000001F008840F00300C749091F088042F225
:100E00001070C54918310880C3480C38008840F07C
:100E10000100C1490C3908807047BC48C06940F0E6
:100E20000100BA49C8610846806940F00400886141
:100E3000BA48006820F0FF00B8490860084600681A
:100E400040F044000860C804808940F00100C904F3
:100E500088810846808940F040008881002008850C
:100E60004EF6602088850846008820F4407008808F
:100E70000846008820F0600008800846008B40F09B
:100E8000010008830846008B40F480700883084600
:100E9000008C20F0020008840846008C20F020001E
:100EA00008840846008B40F030000883084600891B
:100EB00040F00300088142F21070888480060088A8
:100EC00040F00100088070479048C06940F002007F
:100ED0008E49C8610846806940F0040088618F48E7
:100EE00000688E4908600846006840F08840086045
:100EF0008B48008840F00100894908800846008836
:100F000040F040000880002085491C3108804EF6E2
:100F10006020091D088082480C38008820F4407049
:100F20007F490C3908800846008820F0600008805E
:100F30007B480C30008840F0010079490C31088072
:100F40000846008840F48070088075481430008896
:100F500020F002007249143108800846008820F011
:100F6000200008804806008B40F0300049060883C6
:100F70000846008940F00300088142F2107088841E
:100F80008006008840F00100088070475F48C06913
:100F900040F004005D49C8610846806940F00800DF
:100FA00088615B48001F00685949091F08600846AE
:100FB000006840F0884008605A48008840F001000E
:100FC000584908800846008840F04000088000200A
:100FD00054491C3108804EF66020091D0880514894
:100FE0000C38008820F440704E490C3908800846BF
:100FF000008820F0600008804A480C30008840F0EB
:10100000010048490C3108800846008840F480708F
:10101000088044481430008820F00200414914310F
:1010200008800846008820F0200008803D480C30E9
:10103000008840F030003B490C3108803948001FDF
:10104000008840F003003749091F088042F2107001
:1010500034491831088033480C38008840F00100CA
:1010600030490C39088070470146012906D0022911
:1010700009D003290CD0042914D10EE0264A1832D5
:10108000128810B210E04FF08042928C10B20BE048
:10109000234A1832128810B206E0224A1832128807
:1010A00010B201E0002000BF00BF70471A48001DC9
:1010B00000881948001D008820F001001649091D0C
:1010C000088070474FF08040008A4FF08040008ACF
:1010D00020F001004FF08041088270471048001D49
:1010E00000880F48001D008820F001000C49091DF0
:1010F000088070470B48001D00880A48001D0088C2
:1011000020F001000749091D0880704700100240C7
:10111000040C0140440000FF0C2C01400008014079
:101120000C0400400C0800401D49098811F0200FF4
:1011300034D01B49091D0988C8B21A49098811F41D
:10114000004F2BD11749098811F4804F0CD00A2881
:1011500003D00021134A118020E01249098841F48C
:101160000041104A118019E00D2806D10D49098867
:1011700041F480410B4A118010E00A490988C1F30B
:101180000D01094A505407490988491C054A118034
:1011900011460988C72901DD002111807047000030
:1011A000003801401C000020240000201D4909884F
:1011B00011F0200F34D01B49091D0988C8B21A4903
:1011C000098811F4004F2BD11749098811F4804F79
:1011D0000CD00A2803D00021134A118020E01249C4
:1011E000098841F40041104A118019E00D2806D108
:1011F0000D49098841F480410B4A118010E00A49E9
:101200000988C1F30D01094A505407490988491C4E
:10121000054A118011460988C72901DD0021118086
:1012200070470000003801401E000020EC00002044
:101230001D49098811F0200F34D01B49091D098868
:10124000C8B21A49098811F4004F2BD117490988EF
:1012500011F4804F0CD00A2803D00021134A1180CA
:1012600020E01249098841F40041104A118019E038
:101270000D2806D10D49098841F480410B4A11809F
:1012800010E00A490988C1F30D01094A5054074981
:101290000988491C054A118011460988C72901DDC2
:1012A000002111807047000000380140200000201C
:1012B000B4010020F0B480EA0102D40F4200B2EB86
:1012C000410F02D20246084611464A0042D0C30DE1
:1012D000DDB2C1F3C752AD1A202D35DAC1F31601C4
:1012E00041F4000204B15242C5F1200602FA06F1AF
:1012F0002A411044B3EBD05F23D0C4B1012DA0EB41
:10130000C35009DCF0BC4FF0004202EAC35200F5C2
:101310000000DBB200F038BA400000F1807000EB52
:10132000C350A0F1807040EAD170490009E049083B
:1013300041EAC071A0EBC35000F50000400800EB8B
:10134000C350F0BC00F017BA6142012202EB410128
:10135000001BF6E7F0BC704781F00041AAE780F07F
:101360000040A7E780EA010210B502F00043400008
:1013700026D04A0023D04FEA106101EB1261C0F37E
:101380005600C2F3560240F4000042F40002A0FBF3
:101390000220A1F17F014FEA0040140401D000F1C6
:1013A000010050EA124001D44000491EC2B20C06AE
:1013B00004EBD010401C4008802A02D003E000203B
:1013C00010BD20F00100002900DA0020184310BDF4
:1013D00030B480EA010202F0004530F0004221F012
:1013E000004015D0A0B1C0F3C753C2F3C754C2F335
:1013F0001601C0F31600E41A41F4000140F40002A3
:101400007D34914201D3641C00E04900002C02DAD3
:1014100030BC002070474FF400000023914201D3FC
:10142000891A034340084FEA4101F7D151B1914273
:1014300002D14FF0004105E002D24FF0010101E07E
:101440006FF0010103EBC450284430BC00F093B9A5
:101450002DE9FE4F804681EA0300C00F0C46009044
:1014600021F0004123F00045B8EB0200A94105D26C
:101470004046214690461C460B46024623F000405B
:10148000104304D14046214603B0BDE8F08F270D3C
:10149000C7F30A00C3F30A510290401A0190402892
:1014A00066DAC3F3130040F4801B0098924620B123
:1014B0000023D2EB030A63EB0B0B01985946C0F1F2
:1014C0004002504600F026F906460D465046594661
:1014D000019A00F03EF910EB08006141002487EA10
:1014E000115284EAE7731A433BD0009A3AB3019A47
:1014F000012A4FEA075210DC001B61EB02014FF09A
:10150000004202EA0752CDE90042001C41F5801179
:1015100032462B4600F072F9B6E7001B61EB020180
:10152000001C41F5801300185B412018A2F500173C
:1015300047EB030140EAD570B6196D4111E06D0823
:101540004FEA360645EAC0754FEA0752001B61EBC9
:101550000201001C41F5801149084FEA30000019D2
:10156000514132462B4603B0BDE8F04F00F039B987
:101570000098012240000023D0EB020263EBE073ED
:10158000009821464FEAE074B8EB000061EB0401DB
:10159000E9E783F000435BE781F0004158E72DE97C
:1015A000FE4F81EA030404F0004421F0004100945E
:1015B0004FF0000B23F0004350EA010402D052EA3E
:1015C000030404D10020014603B0BDE8F08FC3F34B
:1015D0000A54C1F30A552C44A4F2F3340194A0FB3D
:1015E0000254C1F3130141F48011C3F3130343F414
:1015F000801301FB024400FB034E840A970A44EA6D
:10160000815447EA8357A4FB076802958D0A05FBBE
:1016100007854FEA932C04FB0C542705029D4FEAE3
:10162000065847EA1637B5EB08056EEB070C870E30
:10163000920E47EA811742EA8312A7FB0201B6EB3A
:101640000B0164EB00042B0D43EA0C335E1844EBF2
:101650001C50DA465146E7FB0201C5F313044FEA7A
:101660000B3343EA14534FEA0432019C43EA060366
:10167000A4F10C040294009CCDE900B400F0BEF883
:10168000A2E796230022114600F07EB80EB5C10FE6
:1016900080EAE0700844CA07002140F233438DE835
:1016A0000E000A460B4600F0A9F803B000BD20F07A
:1016B0000040C10DC0F3160040F400007F2901DA9C
:1016C00000207047962903DCC1F19601C84070479D
:1016D00096398840704770B5C1F30A5201F0004551
:1016E0000024C1F3130140F2FF3341F480119A4208
:1016F00001DA002070BD40F233439A42A2F2334235
:1017000003DC524200F015F800E090402C43F1D089
:10171000404270BD202A04DB203A00FA02F100208A
:1017200070479140C2F1200320FA03F3194390401F
:101730007047202A04DB203A21FA02F0002170478A
:1017400021FA02F3D040C2F1200291400843194629
:101750007047202A06DBCB17203A41FA02F043EA11
:10176000E07306E041FA02F3D040C2F1200291405A
:101770000843194670470029A8BF7047401C49001C
:1017800008BF20F00100704710B4B0FA80FC00FAE6
:101790000CF050EA010404BF10BC704749B1CCF111
:1017A000200421FA04F411FA0CF118BF012121439D
:1017B0000843A3EB0C01CB1D0106000A002BBEBFA2
:1017C000002010BC704700EBC35010440029A4BF98
:1017D00010BC7047401C490008BF20F0010010BC3D
:1017E000704710B5002B08DA401C41F10001921837
:1017F0005B411A4301D120F0010010BD2DE9F04DED
:1018000092469B4611B1B1FA81F202E0B0FA80F241
:1018100020329046FFF77EFF04460F4640EA0A005A
:1018200041EA0B0153465A46084303D12046394644
:10183000BDE8F08D114653EA010015D0C8F1400211
:101840005046FFF776FF05460E465046594642463B
:10185000FFF760FF084301D0012000E000200543AE
:1018600046EAE0762C4337430A984FEA4453A0EB0C
:1018700008004FEAD4240A304FF0000244EA4754EB
:101880004FEAD72502D500200146D1E701051019FE
:101890006941DDE9084500196941BDE8F04DA0E75F
:1018A000064C074D06E0E06840F0010394E80700AD
:1018B00098471034AC42F6D3FEF73EFCE41800081B
:1018C0000419000802E008C8121F08C1002AFAD152
:1018D00070477047002001E001C1121F002AFBD1B0
:1018E00070470000041900080000002024000000D8
:1018F000C418000828190008240000205C06000015
:10190000D4180008000000000000000000A24A04F3
:10191000000000000000000001020304060708099F
:081920000000000000000000BF
:0400000508000131BD
:00000001FF
