:020000040800F2
:10000000F0060020052700080D2700080F2700082C
:10001000112700081327000815270008000000001A
:10002000000000000000000000000000172700088A
:1000300019270008000000001B2700081D270008E2
:100040001F2700081F2700081F2700081F27000878
:100050001F2700081F270008152E00081D2E000866
:10006000252E00082D2E0008352E00081F27000819
:100070001F2700081F2700081F2700081F27000848
:100080001F2700081F2700081F2700081F27000838
:100090001F2700081F2700081F2700083D2E000803
:1000A0001F270008812E00081F2700081F270008AF
:1000B000C52E00081F270008092F00081F27000869
:1000C0001F2700081F2700081F2700081F270008F8
:1000D0001F2700081D300008A13000082531000846
:1000E000452E00081F2700081F2700081F270008AB
:1000F0001F2700081F2700081F2700081F270008C8
:100100001F2700081F2700081F2700081F270008B7
:100110001F2700081F2700081F2700081F270008A7
:100120001F2700081F2700081F2700081F27000897
:10013000DFF80CD003F00CFC004800474501000834
:10014000F006002002F0E8F94FF4E131482001F018
:10015000DEFE00F0D9FC022301220021032000F082
:100160006CF915E00B4802880BA1012001F050FE4C
:10017000084842880BA1012001F04AFE0548828808
:100180000BA1012001F044FE4FF47A7000F043FD12
:10019000E8E7000002000020616463313A25780A34
:1001A00000000000616463323A25780A0000000014
:1001B000616463333A25780A00000000102815D2E4
:1001C000DFE800F00815222F3C495663707D8A97BE
:1001D000A4B1BECBFE49896941F00401FC4A91619A
:1001E000FC49096821F00F01FA4A1160C2E0F849A0
:1001F000896941F00401F64A9161F649096821F0E4
:10020000F001F44A1160B5E0F149896941F0040157
:10021000EF4A9161EF49096821F47061ED4A11607C
:10022000A8E0EB49896941F00401E94A9161E94993
:10023000096821F47041E74A11609BE0E44989694B
:1002400041F00401E24A9161E249096821F4702118
:10025000E04A11608EE0DE49896941F00401DC4A20
:100260009161DC49096821F47001DA4A116081E08A
:10027000D749896941F00401D54A9161D549096896
:1002800021F07061D34A116074E0D149896941F06D
:100290000401CF4A9161CF49096821F07041CD4AEC
:1002A000116067E0CA49896941F00401C84A916157
:1002B000C949096821F00F01C74A11605AE0C449D1
:1002C000896941F00801C24A9161C349096821F076
:1002D000F001C14A11604DE0BD49896941F010014A
:1002E000BB4A9161BD49096821F00F01BB4A116009
:1002F00040E0B749896941F01001B54A9161B749B9
:10030000096821F0F001B54A116033E0B04989690C
:1003100041F01001AE4A9161B049096821F4706161
:10032000AE4A116026E0AA49896941F01001A84A45
:100330009161AA49096821F47041A84A116019E045
:10034000A349896941F01001A14A9161A349096853
:1003500021F47021A14A11600CE09D49896941F0A6
:1003600010019B4A91619D49096821F470019B4AE3
:10037000116000BF00BF7047052814DC002812DBA5
:100380009749096800EB80031F229A409143944AE1
:1003900011601146096800EB800200FA02F2114375
:1003A0008F4A116048E00B2822DC062820DB06215A
:1003B00090FBF1F201FB120101EB81021F21914040
:1003C000874A121F12688A438549091F0A6006215D
:1003D00090FBF1F201FB120101EB810100FA01F146
:1003E0007F4A121F126811437D4A121F116023E0D9
:1003F0000F2821DC0C281FDB0C2190FBF1F201FB04
:10040000120101EB81021F219140754A083A1268DE
:100410008A43734908390A600C2190FBF1F201FB11
:10042000120101EB810100FA01F16D4A083A1268EC
:1004300011436B4A083A116070470FB438B505A8EC
:1004400000906348806940F4007061498861084603
:10045000C06840F40070C8600846C06820F40070AE
:10046000C8600846406820F440404860084640683C
:1004700040F4004048605A48303800685949084004
:100480005749303908600846006840F480700860B9
:10049000081D006840F00200091D08600846006859
:1004A00040F4801008600846006840F4602008604E
:1004B0000846006820F40060086049480838006871
:1004C00020F470004649083908600846016804981D
:1004D000401E41EA0050424908390860002544E0C6
:1004E000009810C800902046FFF768FE0A2C16DA24
:1004F00004EB440207219140C84339492439096873
:100500000140374A243A11601146096804EB44035C
:1005100007229A401143324A243A116021E00A210D
:1005200094FBF1F201FB124101EB410207219140E2
:10053000C8432B49283909680140294A283A1160E3
:100540000A2194FBF1F201FB124101EB4102072168
:100550009140234A283A12681143214A283A1160EF
:1005600000BF2046FFF708FF6D1C04988542B7DBEB
:10057000002000901A482C38006840F0010018490B
:100580002C3908600846006840F48070086008460E
:10059000006840F00800086000BF11482C3800686F
:1005A00010F0080FF9D10E482C38006840F0040014
:1005B0000B492C39086000BF09482C38006810F03E
:1005C000040FF9D106482C38006840F480000BE095
:1005D0000010024000080140000C014000100140E2
:1005E00034240140FFFFF000FE492C390860084622
:1005F000006840F48010086038BC5DF814FB0FB44C
:1006000038B505A80090F7480838006820F4700055
:10061000F44908390860084601680498401E41EA18
:100620000050F04908390860EF48806940F40070D4
:10063000ED4988610846C06840F40070C86008460B
:10064000C06820F40070C8600846406820F440404C
:1006500048600846406840F400404860E14830384F
:100660000068E2490840DF49303908600846006800
:1006700020F4702008600846006840F4807008602C
:10068000081D006840F00200091D08600846006867
:1006900040F4602008600846006840F4801008605C
:1006A0000846006820F40060086000253FE00098DC
:1006B00010C800902046FFF781FD0A2C11DA04EBE8
:1006C000440207219140C843C649243909680140C2
:1006D000C44A243A11601146096841F4600111606E
:1006E00021E00A2194FBF1F201FB124101EB4102EE
:1006F00007219140C843BB49283909680140B94ADC
:10070000283A11600A2194FBF1F201FB124101EB3E
:10071000410207219140B34A283A12681143B14A75
:10072000283A116000BF2046FFF726FE6D1C049892
:100730008542BCDB00200090AA482C38006840F0BD
:100740000100A8492C3908600846006840F00800FC
:10075000086000BFA3482C38006810F0080FF9D1DA
:10076000A0482C38006840F004009E492C390860ED
:1007700000BF9C482C38006810F0040FF9D138BC39
:100780005DF814FB10B504462046FFF717FD9648A8
:10079000806940F40070944988610846C06840F45C
:1007A0000070C8600846C06820F40070C860084641
:1007B000406820F4404048600846406840F40040EB
:1007C0004860884830380068884908408549303991
:1007D00008600846006820F480700860081D006802
:1007E00040F00200091D08600846006840F46020DF
:1007F00008600846006840F48010086008460068F9
:1008000020F40060086077480838006820F4700021
:100810007449083908600A2C11DA04EB44020721F4
:100820009140C8436F492439096801406D4A243A10
:1008300011601146096841F46001116021E00A214C
:1008400094FBF1F201FB124101EB410207219140BF
:10085000C8436449283909680140624A283A11604E
:100860000A2194FBF1F201FB124101EB4102072145
:1008700091405C4A283A126811435A4A283A11605A
:1008800000BF5848006820F01F005649086008461D
:1008900000682043086053482C38006840F480709A
:1008A00050492C3908600846006840F00100086093
:1008B0000846006840F00800086000BF49482C382E
:1008C000006810F0080FF9D146482C38006840F055
:1008D000040044492C39086000BF42482C380068A5
:1008E00010F0040FF9D110BD10B504462046FFF7F3
:1008F00065FC3D48806940F400703B4988610846CA
:10090000C06840F40070C8600846C06820F40070F9
:10091000C8600846406820F4404048600846406887
:1009200040F4004048602F48303800682F490840A4
:100930002C49303908600846006820F4807008604F
:10094000081D006820F00200091D086008460068C4
:1009500040F4602008600846006840F48010086099
:100960000846006820F4006008601E4808380068E7
:1009700020F470001B49083908600A2C11DA04EBD6
:10098000440207219140C8431649243909680140AF
:10099000144A243A11601146096841F4600111605B
:1009A00028E00A2194FBF1F201FB124101EB410224
:1009B00007219140C8430B49283909680140094A79
:1009C000283A11600A2194FBF1F201FB124101EB7C
:1009D000410207219140034A283A12681143014A13
:1009E000283A05E03424014000100240FFFFF000E7
:1009F000116000BF6748006840F001006549086069
:100A00000846006840F00800086000BF61480068C0
:100A100010F0080FFAD15F48006840F004005D490B
:100A2000086000BF5B48006810F0040FFAD110BDE9
:100A3000014658482C30006820F01F00554A2C32DF
:100A40001060104600680843106000BF5148083825
:100A5000006810F0020FF9D04E484430006880B2B0
:100A6000704770B506460B460024002505E0304669
:100A7000FFF7DEFF0444681CC5B29D42F7DBB4FB00
:100A8000F3F080B270BD10B54348406940F00100FA
:100A900041494861052000F0BEF83E4844303F49D6
:100AA00008613F4848611020C860002088600846FF
:100AB000806888600846806840F0200088600846AA
:100AC000806888600846806888600846806840F4CE
:100AD000807088600846806840F4806088600846BE
:100AE000806840F4805088600846806888600846C6
:100AF000806820F0010088601020C8600846806887
:100B000040F00100886010BD10B52348406940F0F6
:100B1000010021494861052000F07DF81D4844305E
:100B20001E4908611F4848610320C8600020886092
:100B30000846806888600846806840F02000886029
:100B40000846806840F0400088600846806840F0B1
:100B5000800088600846806840F48070886008469D
:100B6000806840F4806088600846806840F4805067
:100B700088600846806888600846806820F0010028
:100B800088600320C8600846806840F001008860E3
:100B900010BD000008240140001002400000024087
:100BA000000000200200002010B56FF0040000F0EB
:100BB000ADF82A4800682A49B0FBF1F029490870CD
:100BC000084600784FF47A7148432749086010BD01
:100BD0000146244A12784A434FF0E0235A6100222A
:100BE0009A611A46126942F001021A6100BF4FF081
:100BF000E022106910F0010F02D010F4803FF6D00F
:100C00004FF0E022126922F001024FF0E0231A6156
:100C100000229A6170470146134A12684A434FF016
:100C2000E0235A6100229A611A46126942F00102D9
:100C30001A6100BF4FF0E022106910F0010F02D0DE
:100C400010F4803FF6D04FF0E022126922F001024A
:100C50004FF0E0231A6100229A61704710000020D3
:100C600000127A00080000200C00002031490143E6
:100C7000314A1160704770B5002100230F22C478FB
:100C80000CB32D4C246804F4E064C4F5E064210A3C
:100C9000C1F10403CA40447804FA03F18478144093
:100CA00021430901254C0678A155047804F01F055D
:100CB0000124AC4005786D114FF0E02606EB850568
:100CC000C5F8004109E0047804F01F050124AC4098
:100CD0001B4D0678761145F8264070BD194A0A402A
:100CE0000243154B1B1F1A60704739B1124A121D7F
:100CF00012680243104B1B1D1A6006E00E4A121DBB
:100D0000126882430C4B1B1D1A607047042808D1DF
:100D10004FF0E021096941F004014FF0E022116138
:100D200007E04FF0E021096921F004014FF0E022D3
:100D3000116170470000FA050CED00E000E400E0EE
:100D400080E100E080FFFF1FFE4A926942F40062EA
:100D5000FC4B9A61FC4A1080121F1180FA4A18322B
:100D6000128842F40042F84B18331A808022F64B66
:100D70002C3B1A801A46128842F001021A807047F2
:100D8000F04AD26942F00102EE4BDA619A04908592
:100D900011858022D3051A80D205128842F0010203
:100DA0001A807047E74AD26942F00202E54BDA61E5
:100DB000E64A1080121F11808022E44B2C3B1A80DF
:100DC0001A46128842F001021A807047DD4AD26941
:100DD00042F00402DB4BDA61DD4A1080121F118001
:100DE0008022DB4B2C3B1A801A46128842F001020B
:100DF0001A807047012806D002282BD0032850D033
:100E0000042826D172E0CF49896941F00401CD4A16
:100E10009161D049096821F00F01CE4A1160114655
:100E2000096841F00B011160C7491439098841F084
:100E30006001C54A143A11801146098841F0080141
:100E40001180C1490C39098841F00101BE4A0C3AB0
:100E5000118070E0BB49896941F00401B94A916190
:100E6000BC49096821F0F001BA4A116011460968CD
:100E700041F0B0011160B4491439098841F4C0410E
:100E8000B14A143A11801146098841F40061118079
:100E9000AD490C39098841F01001AB4A0C3A118078
:100EA00049E0A849896941F00401A64A9161A9492C
:100EB000096821F47061A74A11601146096841F47C
:100EC00030611160A0491039098841F060019E4AE3
:100ED000103A11801146098841F008011180111D56
:100EE000098841F48071121D118024E095498969B7
:100EF00041F00401934A91619649096821F47041D7
:100F0000944A11601146096841F4304111608E49DC
:100F10001039098841F4C0418B4A103A11801146BA
:100F2000098841F400611180111D098841F4805144
:100F3000121D118000BF00BF70472DE9F84F814698
:100F40008A4614461D46DDF828B000200090002691
:100F50008149484602F02CFC0BD840F2CF7000903B
:100F60007E49484602F078F9074602F0ABFB86B2AC
:100F70002DE07B49484602F01BFC0AD87720009000
:100F80007849484602F068F9074602F09BFB86B2B2
:100F90001DE0484602F0C9FB0746734A734B02F056
:100FA000D7FB0AD80B2000907149484602F054F94B
:100FB000074602F087FB86B209E0002000906D49E9
:100FC000484602F049F9074602F07CFB86B2711EE2
:100FD00088B20099FFF7B8FE012C0FD10120FFF76E
:100FE00009FF304602F03FFB8046514602F034F9DB
:100FF000074602F067FB544908310880012D0FD1E4
:101000000220FFF7F7FE304602F02DFB80465146E6
:1010100002F022F9074602F055FB4B490C310880DB
:10102000BBF1010F0FD10320FFF7E4FE304602F0C1
:101030001AFB8046514602F00FF9074602F042FBC8
:101040004149103108800B9801280FD10420FFF787
:10105000D1FE304602F007FB8046514602F0FCF814
:10106000074602F02FFB384914310880BDE8F88F9D
:10107000012806D0022828D003284AD0042823D1EA
:1010800086E03049896941F004012E4A9161314975
:10109000091F096821F00F012E4A121F1160114625
:1010A000096841F00B011160D104098B41F0600126
:1010B000D20411831146098B41F0080111831146B6
:1010C000098C41F00101118484E01E49896941F0D5
:1010D00004011C4A91611F49091F096821F0F001B0
:1010E0001C4A121F11601146096841F0B0011160DD
:1010F000D104098B41F4C041D20411831146098BFC
:1011000041F4006111831146098C41F010011184F2
:1011100060E00C49896941F004010A4A91610D4976
:10112000091F096821F470610A4A121F11601146F3
:10113000096841F430611160D104898B41F060018C
:10114000D20419E0001002402C2C01402C04004075
:101150002C080040040801400000C8420000104272
:1011600000002041000016444A0C022B8716ED3F78
:101170000080BB4500A08C4791831146898B41F0CC
:10118000080191831146098C41F48071118421E09A
:10119000FA49896941F00401F84A9161F8490968FE
:1011A00021F47041F64A11601146096841F430415A
:1011B0001160D104898B41F4C041D204918311465E
:1011C000898B41F4006191831146098C41F480516F
:1011D000118400BF00BF70472DE9F84F81468A4651
:1011E00014461D46DDF828B0002000900026E54991
:1011F000484602F0DDFA0BD840F2CF700090E24989
:10120000484602F029F8074602F05CFA86B22DE063
:10121000DE49484602F0CCFA0AD877200090DC4933
:10122000484602F019F8074602F04CFA86B21DE073
:10123000484602F07AFA0746D64AD74B02F088FAB7
:101240000AD80B200090D549484602F005F8074619
:1012500002F038FA86B209E000200090D0494846F2
:1012600001F0FAFF074602F02DFA86B2711E88B22D
:101270000099FFF785FD012C0ED10120FFF7F8FE44
:10128000304602F0F0F98046514601F0E5FF07468E
:1012900002F018FAA1078886012D0ED10220FFF76F
:1012A000E7FE304602F0DFF98046514601F0D4FFF8
:1012B000074602F007FAA9070887BBF1010F0FD113
:1012C0000320FFF7D5FE304602F0CDF980465146A7
:1012D00001F0C2FF074602F0F5F94FF08041888720
:1012E0000B9801280ED10420FFF7C2FE304602F011
:1012F000BAF98046514601F0AFFF074602F0E2F925
:10130000A8490880BDE8F88F012806D0022829D016
:1013100003284CD0042824D16EE09849896941F013
:101320000401964A91619649096821F07061944AD6
:1013300011601146096841F0306111609A490988CD
:1013400041F06001984A11801146098841F0080176
:10135000118095490831098841F00101924A08320B
:1013600011806EE08549896941F00401834A9161E9
:101370008349096821F07041814A1160114609686A
:1013800041F0304111608849098841F4C041864AE2
:1013900011801146098841F40061118082490831A9
:1013A000098841F01001804A0832118049E07349F0
:1013B000896941F00801714A91617C49096821F00D
:1013C0000F017A4A11601146096841F00B01116062
:1013D0007549091D098841F06001734A121D118089
:1013E0001146098841F008011180111D098841F456
:1013F0008071121D118024E06049896941F0080163
:101400005E4A91616949096821F0F001674A1160FB
:101410001146096841F0B00111606349091D09884E
:1014200041F4C041604A121D11801146098841F4FF
:1014300000611180111D098841F48051121D118035
:1014400000BF00BF70472DE9F84F81468A46144619
:101450001D46DDF828B00020009000264949484686
:1014600002F0A6F90BD840F2CF70009046494846EA
:1014700001F0F2FE074602F025F986B22DE043495D
:10148000484602F095F90AD877200090404948462E
:1014900001F0E2FE074602F015F986B21DE048466B
:1014A00002F043F907463B4A3B4B02F051F90AD898
:1014B0000B2000903949484601F0CEFE074602F065
:1014C00001F986B209E0002000903549484601F054
:1014D000C3FE074602F0F6F886B2711E88B2009984
:1014E000FFF760FC012C0FD10120FFF70DFF304604
:1014F00002F0B9F88046514601F0AEFE074602F010
:10150000E1F829491C310880012D0FD10220FFF795
:10151000FBFE304602F0A7F88046514601F09CFEE3
:10152000074602F0CFF8204920310880BBF1010FB7
:101530000FD10320FFF7E8FE304602F094F8804612
:10154000514601F089FE074602F0BCF816492431E5
:1015500008800B9801280FD10420FFF7D5FE3046F4
:1015600002F081F88046514601F076FE074602F00F
:10157000A9F80D4928310880BDE8F88F0010024015
:10158000000801400000C842000010420000204155
:10159000000016444A0C022B8716ED3F0080BB4525
:1015A00000A08C474000004018040040000C01409F
:1015B000012806D0022829D003284CD0042824D1A1
:1015C00070E0FE49896941F00801FC4A9161FC49DB
:1015D000096821F07061FA4A11601146096841F00A
:1015E00030611160F749098841F06001F54A1180C6
:1015F0001146098841F008011180F2490831098833
:1016000041F00101EF4A0832118072E0EB4989692B
:1016100041F00801E94A9161E949096821F0704106
:10162000E74A11601146096841F030411160E5490F
:10163000098841F4C041E34A11801146098841F408
:1016400000611180DF490831098841F01001DD4A4D
:10165000083211804DE0D949896941F00801D74A23
:101660009161D749091D096821F00F01D44A121D63
:1016700011601146096841F00B011160D149091D43
:10168000098841F06001CF4A121D11801146098876
:1016900041F008011180111D098841F48071121D6B
:1016A000118026E0C549896941F00801C34A91616A
:1016B000C349091D096821F0F001C14A121D1160DA
:1016C0001146096841F0B0011160BE49091D098841
:1016D00041F4C041BB4A121D11801146098841F4F2
:1016E00000611180111D098841F48051121D118083
:1016F00000BF00BF70472DE9F84F81468A46144667
:101700001D46DDF828B0002000900026AE4948466E
:1017100002F04EF80BD840F2CF700090AB4948462B
:1017200001F09AFD074601F0CDFF86B22DE0A849F1
:10173000484602F03DF80AD877200090A54948466F
:1017400001F08AFD074601F0BDFF86B21DE0484664
:1017500001F0EBFF0746A04AA04B01F0F9FF0AD8C1
:101760000B2000909E49484601F076FD074601F0A7
:10177000A9FF86B209E0002000909A49484601F08E
:101780006BFD074601F09EFF86B2711E88B200997C
:10179000FFF71CFB012C0FD10120FFF709FF30469A
:1017A00001F061FF8046514601F056FD074601F009
:1017B00089FF84491C310880012D0FD10220FFF7D9
:1017C000F7FE304601F04FFF8046514601F044FDE0
:1017D000074601F077FF7B4920310880BBF1010FFC
:1017E0000FD10320FFF7E4FE304601F03CFF8046B6
:1017F000514601F031FD074601F064FF7149243183
:1018000008800B9801280FD10420FFF7D1FE304645
:1018100001F029FF8046514601F01EFD074601F008
:1018200051FF684928310880BDE8F88F2DE9FC5F39
:101830000446884615461E46DDE90C9A00200190B4
:1018400000270A2C07D840F2CF70019048F6A0403C
:10185000B0FBF4F719E0642C06D8772001906248B9
:10186000B0FBF4F087B210E040F24C40844206D85E
:101870000B2001905D48B0FBF4F087B205E000203A
:1018800001905B48B0FBF4F087B2791E88B20199F1
:10189000FFF75AFA012D0ED10120FFF7ABFA3846B7
:1018A00001F0E1FE4146009001F0D6FC834601F0D4
:1018B00009FF50490880012E0FD10220FFF79AFA44
:1018C000384601F0D0FE4146009001F0C5FC834649
:1018D00001F0F8FE4749091D0880B9F1010F0FD149
:1018E0000320FFF787FA384601F0BDFE414600901D
:1018F00001F0B2FC834601F0E5FE3E490831088064
:10190000BAF1010F0FD10420FFF774FA384601F045
:10191000AAFE4146009001F09FFC834601F0D2FEF2
:1019200034490C310880BDE8FC9F2DE9FC5F04467A
:10193000884615461E46DDE90C9A002001900027D6
:101940000A2C07D840F2CF70019048F6A040B0FBB7
:10195000F4F719E0642C06D8772001902248B0FBF8
:10196000F4F087B210E040F24C40844206D80B20DD
:1019700001901E48B0FBF4F087B205E00020019012
:101980001B48B0FBF4F087B2791E88B20199FFF7CB
:10199000F7F9012D0ED10120FFF76AFB384601F05F
:1019A00062FE4146009001F057FC834601F08AFE3A
:1019B000A9078886012E2DD102201DE000100240CB
:1019C000000C0140180800400000C842000010420E
:1019D00000002041000016444A0C022B8716ED3F00
:1019E0000080BB4500A08C47C0270900808D5B00AC
:1019F00000A24A04342C0140FFF73AFB384601F0BC
:101A000032FE4146009001F027FC834601F05AFE69
:101A1000B1070887B9F1010F0FD10320FFF728FBA9
:101A2000384601F020FE4146009001F015FC834647
:101A300001F048FE4FF080418887BAF1010F0ED1C6
:101A40000420FFF715FB384601F00DFE41460090DB
:101A500001F002FC834601F035FE81490880BDE8B3
:101A6000FC9F2DE9FC5F0446884615461E46DDE9CD
:101A70000C9A0020019000270A2C07D840F2CF7062
:101A8000019048F6A040B0FBF4F719E0642C06D8AA
:101A9000772001907348B0FBF4F087B210E040F279
:101AA0004C40844206D80B2001906F48B0FBF4F004
:101AB00087B205E0002001906C48B0FBF4F087B2DB
:101AC000791E88B20199FFF76DF9012D0ED1012021
:101AD000FFF71AFC384601F0C6FD4146009001F0C0
:101AE000BBFB834601F0EEFD61490880012E0FD15A
:101AF0000220FFF709FC384601F0B5FD4146009091
:101B000001F0AAFB834601F0DDFD5949091D08805B
:101B1000B9F1010F0FD10320FFF7F6FB384601F0B2
:101B2000A2FD4146009001F097FB834601F0CAFDFB
:101B30004F4908310880BAF1010F0FD10420FFF797
:101B4000E3FB384601F08FFD4146009001F084FB35
:101B5000834601F0B7FD46490C310880BDE8FC9F83
:101B60002DE9FC5F0446884615461E46DDE90C9AC1
:101B70000020019000270A2C07D840F2CF70019076
:101B800048F6A040B0FBF4F719E0642C06D87720A3
:101B900001903448B0FBF4F087B210E040F24C40C2
:101BA000844206D80B2001902F48B0FBF4F087B296
:101BB00005E0002001902D48B0FBF4F087B2791EBB
:101BC00088B20199FFF702F9012D0ED10120FFF72C
:101BD000EFFC384601F047FD4146009001F03CFB28
:101BE000834601F06FFD23490880012E0FD10220AA
:101BF000FFF7DEFC384601F036FD4146009001F06B
:101C00002BFB834601F05EFD1A49091D0880B9F1DE
:101C1000010F0FD10320FFF7CBFC384601F023FD65
:101C20004146009001F018FB834601F04BFD11493D
:101C300008310880BAF1010F0FD10420FFF7B8FC7A
:101C4000384601F010FD4146009001F005FB834647
:101C500001F038FD07490C310880BDE8FC9F000009
:101C600040000040C0270900808D5B0000A24A04AC
:101C70003404004034080040062835D2DFE800F084
:101C800034030D17212B00BFFE4A128812F0400FBB
:101C9000FAD0FC4A121D118026E000BFFA4A1288D1
:101CA00012F0400FFAD0F84A121D11801CE000BF5C
:101CB000F64A128812F0400FFAD0F44A121D118031
:101CC00012E000BFF24A128812F0400FFAD0F04A38
:101CD000121D118008E000BFEE4A128812F0400F7A
:101CE000FAD0EC4A918000BF00BF704770B505463E
:101CF0000C4604B970BD0A2094FBF0F63146284624
:101D0000FFF7F4FF0A2094FBF0F100FB11403030A4
:101D1000C6B231462846FFF7AFFF00BFEAE730B54D
:101D200005460C4604E014F8011B2846FFF7A4FF03
:101D300020780028F7D130BD30B505460C4624B9CF
:101D4000D5A12846FFF7EBFF30BD21092846FFF754
:101D5000F3FF04F00F000A2807D204F00F0000F18F
:101D600030012846FFF788FF06E004F00F005730E7
:101D7000C1B22846FFF780FF00BFE5E72DE9F04735
:101D8000814614461D464FF000062046294601F0C4
:101D9000ADFC064631464846FFF7A8FF2E214846CF
:101DA000FFF76AFF304601F063FC074622462B46E8
:101DB00001F06CFB04460D460022B84B2046294634
:101DC00001F067FB074601F091FC064631464846A4
:101DD000FFF78CFFBDE8F08770B506460C4624B9C6
:101DE000AFA13046FFF79BFF70BD254604EBD570D1
:101DF00041103046FFF7F0FF04EBD5704010A4EB24
:101E000040003030C1B23046FFF736FF00BFEBE78D
:101E10000FB42DE9F84F074600BF4FF00008C14648
:101E2000C24600240CA800900B9C68E0207825286E
:101E300060D1601C04460078632812D008DC252895
:101E40004FD042283AD0582842D062284ED134E0B0
:101E5000642811D0662818D0732825D0782845D159
:101E600035E0009810F8041B01F0FF0A009051467D
:101E70003846FFF701FF3AE0009850F8048B0090D5
:101E800041463846FFF732FF31E00098C01D20F090
:101E900007000090D0E90056083000902A463346EB
:101EA0003846FFF76BFF22E0009850F8049B009043
:101EB00049463846FFF733FF19E000BF009850F855
:101EC000048B009041463846FFF786FF0FE000BFC5
:101ED000009850F8048B009041463846FFF72CFFDD
:101EE00005E025213846FFF7C7FE00E000BF00BF30
:101EF000641C04E014F8011B3846FFF7BDFE20788F
:101F0000002893D10090BDE8F80F5DF814FB2DE98F
:101F1000F05F05460E46300101F0A5FB81466149A0
:101F200005FB01F001F09FFB8246494601F0CAF92A
:101F30000746384601F0C6FB84B2204601F093FB09
:101F40008346394601F085F982464FF0834101F01E
:101F500083F9814601F0B6FB80464FF6FF7000EA38
:101F6000041404EB080084B24F48806940F0040078
:101F70004D4988610846806940F4804088614B483B
:101F8000006820F0F000494908600846006840F009
:101F9000B00008600846006820F4706008600846D9
:101FA000006840F40060086040480830006840F471
:101FB00080603E49083108603B48C06840F480407A
:101FC0003949C8600846C06820F48040C8602D4880
:101FD00008300480001D008842F20C0108432949A2
:101FE0000C3108800846008840F020000880BDE8D9
:101FF000F09F2DE9F05F05460E46300101F033FBFE
:102000008146284905FB01F001F02DFB8246494637
:1020100001F058F90746384601F054FB84B22046D7
:1020200001F021FB8346394601F013F982464FF057
:10203000834101F011F9814601F044FB80464FF6DF
:10204000FF7000EA041404EB080084B216488069AB
:1020500040F00400144988610846806940F400306B
:1020600088611248001F006820F470600F49091F42
:1020700008600846006840F4306008600846006860
:1020800016E00000003801400044004000480040D5
:10209000004C0040005000403078000080842E4109
:1020A0003062000040420F0000100240040801406E
:1020B00020F4704008600846006840F40040086062
:1020C000DB48006840F00800D9490860D948006939
:1020D00040F40030D74908610846006920F4003018
:1020E0000861D5480480001D008842F20C010843B5
:1020F000D149091D08800846008840F0200008806A
:10210000BDE8F09F2DE9F05F05460E46300101F075
:10211000AAFA8146C94905FB01F001F0A4FA8246FA
:10212000494601F0CFF80746384601F0CBFA84B2B1
:10213000204601F098FA8346394601F08AF8824633
:102140004FF0834101F088F8814601F0BBFA8046E8
:102150004FF6FF7000EA041404EB080084B2B5489F
:10216000806940F00800B34988610846806940F4FE
:1021700080208861B248006820F47060B04908602F
:102180000846006840F4306008600846006820F4A3
:10219000704008600846006840F400400860A848A5
:1021A0000830006840F40060A54908310860A14883
:1021B000C06840F480209F49C8600846C06820F489
:1021C0008020C8609F480480001D008842F20C01F6
:1021D00008439C49091D08800846008840F02000FB
:1021E0000880BDE8F09F2DE9F05F05460E463001FE
:1021F00001F039FA8146914905FB01F001F033FA0B
:102200008246494601F05EF80746384601F05AFA20
:1022100084B2204601F027FA8346394601F019F8C6
:1022200082464FF0834101F017F8814601F04AFAE7
:1022300080464FF6FF7000EA041404EB080084B2F5
:102240007C48806940F010007A49886108468069BE
:1022500040F4002088617C48406820F470607A492E
:1022600048600846406840F430604860084640686E
:1022700020F4704048600846406840F400404860E0
:102280000846C06840F40060C8606A48C06840F40E
:1022900000206849C8600846C06820F40020C86073
:1022A0006A480480001D008842F20C010843674917
:1022B000091D08800846008840F020000880BDE81D
:1022C000F09F2DE9F05F05460E46300101F0CBF995
:1022D00081465A4905FB01F001F0C5F9824649469D
:1022E00000F0F0FF0746384601F0ECF984B22046D2
:1022F00001F0B9F98346394600F0ABFF82464FF052
:10230000834100F0A9FF814601F0DCF980464FF6D9
:10231000FF7000EA041404EB080084B245488069A9
:1023200040F01000434988610846806940F0200071
:1023300088610846C06940F48010C861424840681E
:1023400020F47020404948600846406840F430203E
:1023500048603F48006820F470603D4908600846C6
:10236000006840F40060086039480C30006840F0B4
:10237000040037490C3108602E48006940F4801091
:102380002C4908610846006920F480100861314832
:102390000481808942F20C0108432E498881084655
:1023A000808940F020008881BDE8F09F70B5044628
:1023B0000D4616461F48406940F001001D4948611E
:1023C0000520FEF728FC2448C464056586640020C7
:1023D000214948640846406C40F0100048640846B3
:1023E000406C40F0200048640846406C4864084651
:1023F000406C48640846406C48640846406C486439
:102400000846406C40F4805048640846406C48647C
:1024100070BD1148406C20F001000F494864012054
:1024200088640846406C40F0010048647047000032
:102430000C080140001002400844004040420F00D8
:10244000040C01400848004000100140084C0040C6
:1024500000140140005000400000024008B54FF455
:10246000C060FEF703FC19208DF8000001208DF8F4
:10247000010000208DF8020001208DF8030068465D
:10248000FEF7F9FB1C208DF8000001208DF80100FB
:102490008DF802008DF803006846FEF7ECFB25205E
:1024A0008DF8000001208DF8010002208DF8020057
:1024B00001208DF803006846FEF7DDFB27208DF82C
:1024C000000001208DF8010003208DF8020001209A
:1024D0008DF803006846FEF7CEFB34208DF800002F
:1024E00001208DF8010004208DF8020001208DF8F4
:1024F00003006846FEF7BFFB28208DF8000001208E
:102500008DF8010005208DF8020001208DF80300F0
:102510006846FEF7B0FB08BD10B500F073F8FEF793
:1025200043FBFFF79BFF10BD0CB50020019000900E
:102530006B48006840F480306949086000BF684813
:10254000006800F4003000900198401C0190009851
:1025500018B90198B0F5A06FF1D16148006810F486
:10256000003F02D00120009001E000200090009880
:10257000012842D15B48006840F0100059490860CA
:102580000846006820F0030008600846006840F034
:102590000200086052484068514948600846406857
:1025A00048600846406840F48060486008464068DB
:1025B00020F47C1048600846406840F4E810486009
:1025C0000846006840F08070086000BF444800681A
:1025D00010F0007FFAD04248406820F003004049E4
:1025E00048600846406840F00200486000BF3C4830
:1025F000406800F00C000828F9D10CBD10B5FFF7B9
:1026000093FF10BD10B53648006840F00100344912
:102610000860084640683449084031494860084627
:102620000068324908402E4908600846006820F4D6
:10263000802008600846406820F4FE0048604FF49F
:102640001F008860FFF7DAFF4FF00060284908603C
:1026500010BD10B5002100200022214B5B6803F063
:102660000C0121B1042906D0082928D107E0214B0B
:10267000214C236027E01F4B1F4C236023E0184BA5
:102680005B6803F47010164B5B6803F4803202231E
:1026900003EB904022B9194B4343174C23600DE0E4
:1026A0000F4B5B6813F4003F04D0144B4343124CB0
:1026B000236003E00F4B43430F4C236003E00D4BBB
:1026C0000D4C236000BF00BF054B5B68C3F30313D1
:1026D0000B4CE15C084B1B68CB40074C236010BDE2
:1026E00000100240002002400000FFF8FFFFF6FE4D
:1026F00008ED00E000127A001000002000093D0003
:10270000140000200648804706480047FEE7FEE721
:10271000FEE7FEE7FEE7FEE7FEE7FEE7FEE7FEE791
:102720000526000831010008DB48806940F400609C
:10273000D94988610846806940F004008861D7481B
:10274000006820F0FF00D549086008460068D449B9
:102750000843D2490860D348008840F00100D149BD
:1027600008800846008840F0400008800020CD49DD
:102770001C3108804EF66020091D0880C9480C38BD
:10278000008820F44070C7490C390880084600884A
:1027900020F060000880C3480C30008840F0010041
:1027A000C0490C3108800846008840F480700880D9
:1027B000BC481430008820F00200BA491431088067
:1027C0000846008820F020000880B6480C300088B9
:1027D00040F03000B3490C310880B248001F008837
:1027E00040F00300AF49091F088042F21070AD4964
:1027F00018310880AB480C38008840F00100A94926
:102800000C3908807047A448C06940F00100A24913
:10281000C8610846806940F004008861A2480068E9
:1028200020F0FF00A04908600846006840F044001E
:102830000860C804808940F00100C9048881084606
:10284000808940F040008881002008854EF6602095
:1028500088850846008820F4407008800846008873
:1028600020F0600008800846008B40F001000883DB
:102870000846008B40F4807008830846008C20F0E6
:10288000020008840846008C20F0200008840846D6
:10289000008B40F0300008830846008940F00300B8
:1028A000088142F2107088848006008840F00100A0
:1028B000088070477848C06940F002007649C861D6
:1028C0000846806940F004008861774800687649CE
:1028D00008600846006840F0884008607348008837
:1028E00040F00100714908800846008840F040002F
:1028F000088000206D491C3108804EF66020091DBB
:1029000008806A480C38008820F4407067490C3908
:1029100008800846008820F06000088063480C307A
:10292000008840F0010061490C31088008460088A9
:1029300040F4807008805D481430008820F0020068
:102940005A49143108800846008820F02000088089
:102950004806008B40F0300049060883084600898D
:1029600040F00300088142F21070888480060088DD
:1029700040F00100088070474748C06940F00400FB
:102980004549C8610846806940F0080088614348AD
:10299000001F00684149091F08600846006840F0B0
:1029A000884008604248008840F0010040490880A3
:1029B0000846008840F04000088000203C491C3157
:1029C00008804EF66020091D088039480C380088C0
:1029D00020F4407036490C3908800846008820F001
:1029E0006000088032480C30008840F00100304917
:1029F0000C3108800846008840F4807008802C481C
:102A00001430008820F0020029491431088008465B
:102A1000008820F02000088025480C30008840F015
:102A2000300023490C3108802148001F008840F005
:102A300003001F49091F088042F210701C49183119
:102A400008801B480C38008840F0010018490C39F8
:102A5000088070470146012906D0022909D00329C0
:102A60000CD0042914D10EE00E4A1832128810B28C
:102A700010E04FF08042928C10B20BE00B4A1832FB
:102A8000128810B206E00A4A1832128810B201E029
:102A9000002000BF00BF704700100240040C01403E
:102AA000440000FF0C2C0140000801400C040040D1
:102AB0000C08004070B505460C460121284600F080
:102AC0000DF90221204600F009F9022000F055F925
:102AD0006D49087000206D49087011E000BF6C4816
:102AE000008810F0400FFAD06A4868490978405CC5
:102AF0006749091D088065480078401C63490870D3
:102B000062480078604909788842E7DB70BD1CB5EF
:102B10006148806940F008005F4988615F4800684B
:102B200020F470205D4908600846006840F4403099
:102B300008600846006820F47000086008460068D5
:102B400040F440100860012000210B460A46CDE900
:102B500000104FF07C51C820FEF783FF50490888D1
:102B600000214F4A143211801CBD0146002901DAB0
:102B7000484270470846FCE72DE9F04F85B004460F
:102B8000002004902046FFF7F0FF039045480068BE
:102B900000F06EFDCDE90001039800F069FD0746E5
:102BA0000022414B00F075FC8246DDE9002300F075
:102BB000E2FC054600F0E0FD02903C48006800F0B1
:102BC00049FD8046029900F047FB064638480068F8
:102BD00000F040FD0746314600F0E6FA054600F0F9
:102BE00058FD8146002C19DB484600F041FD824625
:102BF00000222D4B00F04DFC074600222D4B00F02B
:102C0000BAFC054600F0B8FD049001202A4908608E
:102C10004FF000002949C1F8B40119E0C9F10000E2
:102C200000F026FD054600221F4B00F032FC07464F
:102C30000022204B00F09FFC824600F09DFD049096
:102C400000201D4908604FF001001C49C1F8B40183
:102C50001348058805F1010000F0FCFC07460499C3
:102C600000F0FAFA064600F02DFD0D4914310880F7
:102C700005B0BDE8F08F704710B5FFF748FF07209B
:102C8000FDF732FE10BD00003800002039000020A2
:102C9000003801406800002000100240040C014090
:102CA0002C0400402C0000200000F03F34000020E5
:102CB0003000002000408F40B0812142008021423E
:102CC00030B503461C788C545D78541C0D559D78A6
:102CD000941C0D55DD78D41C0D5530BD13B50C4634
:102CE0000A2C00DC04B91CBD0B2C43D2DFE804F035
:102CF00042060C12181E242A30363C000122444998
:102D00006846FFF7DDFF35E0052241496846FFF7D9
:102D1000D7FF2FE009223E496846FFF7D1FF29E09F
:102D20000D223B496846FFF7CBFF23E011223849CB
:102D30006846FFF7C5FF1DE0152235496846FFF7D5
:102D4000BFFF17E0192232496846FFF7B9FF11E0CB
:102D50001D222F496846FFF7B3FF0BE021222C49C3
:102D60006846FFF7ADFF05E0252229496846FFF7D1
:102D7000A7FF00BF00BF00BFB5E701460A2900DC7E
:102D800009B9002070472420214A10700B293CD239
:102D9000DFE801F03B060B10151A1F24292F350020
:102DA00005201B4A50710620ECE70920184A507292
:102DB0000A20E7E70D20164A50730E20E2E71120A3
:102DC000134A50741220DDE71520114A5075162061
:102DD000D8E719200E4A50761A20D3E71D200C4A56
:102DE00050771E20CEE72120094A82F821002220B8
:102DF000C8E72520064A82F825002620C2E72920B8
:102E0000034A82F829002A20BCE70020BAE7000024
:102E1000680000200120164908607047022014490C
:102E20000860704704201249086070470820104964
:102E30000860704710200E490860704720200C4938
:102E40000860704710B50B48006860B9C820FDF7EE
:102E5000E2FE00BF074800680028FBD006A14FF043
:102E60000100FEF7D5FF4FF400500149086010BD86
:102E7000140401403481224268656C6C6F000000CC
:102E80000D48008810F0010F0ED00C49086800EBC7
:102E9000D0714910A0EB4101094A11600748006850
:102EA00000F10100054908600348008820F0010096
:102EB0000149088070470000102C01403C000020B0
:102EC000800121424FF08040008A10F0010F0ED0A7
:102ED0000B49086800EBD0714910A0EB4101094A89
:102EE00011600748006800F10100054908604FF0D3
:102EF0008040008A20F001004FF080410882704736
:102F000040000020800121422DE9F041374800882F
:102F100010F0010F68D03548008820F001003349D7
:102F200008800F210720FDF79CFD31490860022031
:102F3000FFF790FD2F4908602D4800682E49096869
:102F4000401A2E4908602E480068096808442C4938
:102F500008602A480068B0F5487F04DC274800680C
:102F600010F5487F06DA274908880021254A1432DF
:102F7000118035E021490968234A1268881A00F057
:102F800069FB074621480168384600F065F90546A7
:102F90001A48006800F05EFB07461D480168384685
:102FA00000F05AF90646294600F0FEF8044600F003
:102FB00070FB1849086008460068B0F5487F03DBDD
:102FC0004FF44870086007E01248006810F5487F29
:102FD00002DC11480F4908600E480068FFF7CCFD7D
:102FE0000648006808490860BDE8F0811008004004
:102FF0002400002028000020440000205000002071
:103000005C0000202C040040580000204C000020F0
:103010004800002054000020E0FCFFFF1D49098803
:1030200011F0200F34D01B49091D0988C8B21A4974
:10303000098811F4004F2BD11749098811F4804FEA
:103040000CD00A2803D00021134A118020E0124935
:10305000098841F40041104A118019E00D2806D179
:103060000D49098841F480410B4A118010E00A495A
:103070000988C1F30D01094A505407490988491CC0
:10308000054A118011460988C72901DD00211180F8
:1030900070470000003801406000002092000020CE
:1030A0001D49098811F0200F34D01B49091D0988DA
:1030B000C8B21A49098811F4004F2BD11749098861
:1030C00011F4804F0CD00A2803D00021134A11803C
:1030D00020E01249098841F40041104A118019E0AA
:1030E0000D2806D10D49098841F480410B4A118011
:1030F00010E00A490988C1F30D01094A50540749F3
:103100000988491C054A118011460988C72901DD33
:10311000002111807047000000380140620000204B
:103120005A0100201D49098811F0200F34D01B4995
:10313000091D0988C8B21A49098811F4004F2BD11A
:103140001749098811F4804F0CD00A2803D00021B8
:10315000134A118020E01249098841F40041104AC5
:10316000118019E00D2806D10D49098841F48041EC
:103170000B4A118010E00A490988C1F30D01094A80
:10318000505407490988491C054A1180114609888D
:10319000C72901DD0021118070470000003801407F
:1031A0006400002022020020F0B480EA0102D40F63
:1031B0004200B2EB410F02D20246084611464A00D5
:1031C00042D0C30DDDB2C1F3C752AD1A202D35DA9E
:1031D000C1F3160141F4000204B15242C5F12006C8
:1031E00002FA06F12A411044B3EBD05F23D0C4B1F8
:1031F000012DA0EBC35009DCF0BC4FF0004202EA05
:10320000C35200F50000DBB200F016BB400000F135
:10321000807000EBC350A0F1807040EAD17049008B
:1032200009E0490841EAC071A0EBC35000F5000075
:10323000400800EBC350F0BC00F0F5BA6142012237
:1032400002EB4101001BF6E7F0BC704781F0004142
:10325000AAE780F00040A7E780EA010210B502F07B
:103260000043400026D04A0023D04FEA106101EB12
:103270001261C0F35600C2F3560240F4000042F45B
:103280000002A0FB0220A1F17F014FEA00401404DC
:1032900001D000F1010050EA124001D44000491E63
:1032A000C2B20C0604EBD010401C4008802A02D0A9
:1032B00003E0002010BD20F00100002900DA00200A
:1032C000184310BD30B480EA010202F0004530F02E
:1032D000004221F0004015D0A0B1C0F3C753C2F3A3
:1032E000C754C2F31601C0F31600E41A41F40001FA
:1032F00040F400027D34914201D3641C00E0490097
:10330000002C02DA30BC002070474FF4000000238C
:10331000914201D3891A034340084FEA4101F7D192
:1033200051B1914202D14FF0004105E002D24FF07D
:10333000010101E06FF0010103EBC450284430BCEF
:1033400000F071BA2DE9FE4F804681EA0300C00FFC
:103350000C46009021F0004123F00045B8EB02003C
:10336000A94105D24046214690461C460B460246DE
:1033700023F00040104304D14046214603B0BDE88D
:10338000F08F270DC7F30A00C3F30A510290401AC9
:103390000190402866DAC3F3130040F4801B0098C4
:1033A000924620B10023D2EB030A63EB0B0B01988A
:1033B0005946C0F14002504600F004FA06460D4658
:1033C00050465946019A00F01CFA10EB0800614182
:1033D000002487EA115284EAE7731A433BD0009A2B
:1033E0003AB3019A012A4FEA075210DC001B61EB45
:1033F00002014FF0004202EA0752CDE90042001CF0
:1034000041F5801132462B4600F050FAB6E7001B1A
:1034100061EB0201001C41F5801300185B4120188C
:10342000A2F5001747EB030140EAD570B6196D41CC
:1034300011E06D084FEA360645EAC0754FEA0752BB
:10344000001B61EB0201001C41F5801149084FEAA5
:1034500030000019514132462B4603B0BDE8F04F11
:1034600000F017BA0098012240000023D0EB0202BE
:1034700063EBE073009821464FEAE074B8EB00007C
:1034800061EB0401E9E783F000435BE781F0004171
:1034900058E72DE9FE4F81EA030404F0004421F0CF
:1034A000004100944FF0000B23F0004350EA010468
:1034B00002D052EA030404D10020014603B0BDE863
:1034C000F08FC3F30A54C1F30A552C44A4F2F33429
:1034D0000194A0FB0254C1F3130141F48011C3F322
:1034E000130343F4801301FB024400FB034E840AE0
:1034F000970A44EA815447EA8357A4FB0768029578
:103500008D0A05FB07854FEA932C04FB0C54270515
:10351000029D4FEA065847EA1637B5EB08056EEBF1
:10352000070C870E920E47EA811742EA8312A7FB27
:103530000201B6EB0B0164EB00042B0D43EA0C33E4
:103540005E1844EB1C50DA465146E7FB0201C5F316
:1035500013044FEA0B3343EA14534FEA0432019C3D
:1035600043EA0603A4F10C040294009CCDE900B4E4
:1035700000F09CF9A2E72DE9F04D81EA030404F084
:10358000004B21F0004514464FF0000A23F00041A3
:1035900050EA050220D054EA01021DD0C5F30A57B3
:1035A0000246C5F31303C1F31300C1F30A5640F4F6
:1035B000801543F48013A7EB0608101BD64608F2CB
:1035C000FD3873EB050002D308F1010801E0921801
:1035D0005B41B8F1000F03DA00200146BDE8F08D31
:1035E00000204FF48011064684460EE0171B73EB53
:1035F000050705D3121B63EB050306434CEA010CD8
:1036000049084FEA300092185B4150EA0107EDD1BA
:1036100052EA030012D082EA040083EA050108435B
:1036200003D100224FF0004308E0101BAB4102D24F
:103630000122002302E06FF0010253101AEB060092
:103640004CEB085110EB0A0041EB0B01BDE8F04DCB
:1036500000F01FB9C10F80EAE0700844CA07962342
:10366000002100F0E9B896230022114600F0E4B8EA
:103670000EB5C10F80EAE0700844CA07002140F28D
:1036800033438DE80E000A460B4600F00FF903B0F5
:1036900000BD00F0004220F00040C10DC0F3160054
:1036A00040F400007F2901DA00207047962903DCEE
:1036B000C1F19601C84001E096398840002AF4D053
:1036C0004042704720F00040C10DC0F3160040F4A6
:1036D00000007F2901DA00207047962903DCC1F140
:1036E0009601C840704796398840704770B5C1F35D
:1036F0000A5201F000450024C1F3130140F2FF33E8
:1037000041F480119A4201DA002070BD40F2334347
:103710009A42A2F2334203DC524200F062F800E027
:1037200090402C43F1D0404270BD00F0004230F098
:1037300000400AD0C10D01F56071C0F3160042EAE5
:103740000151C208400711437047002001467047ED
:1037500030B5002904DB4FF00044404264EB010126
:10376000002B04DB4FF00044524264EB0303994208
:1037700008BF904230BD000001F0004330B421F09A
:10378000004150EA010206D00A0DA2F56072C1F3B1
:103790001301002A02DC30BC00207047440F44EAC9
:1037A000C104C100E01830BC00EBC25000F03BB8CF
:1037B000002801DBC0F10040002901DBC1F100411C
:1037C00088427047202A04DB203A00FA02F10020E8
:1037D00070479140C2F1200320FA03F3194390404F
:1037E0007047202A04DB203A21FA02F000217047BA
:1037F00021FA02F3D040C2F1200291400843194659
:103800007047202A06DBCB17203A41FA02F043EA40
:10381000E07306E041FA02F3D040C2F12002914089
:103820000843194670470029A8BF7047401C49004B
:1038300008BF20F00100704710B4B0FA80FC00FA15
:103840000CF050EA010404BF10BC704749B1CCF140
:10385000200421FA04F411FA0CF118BF01212143CC
:103860000843A3EB0C01CB1D0106000A002BBEBFD1
:10387000002010BC704700EBC35010440029A4BFC7
:1038800010BC7047401C490008BF20F0010010BC6C
:10389000704710B5002B08DA401C41F10001921866
:1038A0005B411A4301D120F0010010BD2DE9F04D1C
:1038B00092469B4611B1B1FA81F202E0B0FA80F271
:1038C00020329046FFF77EFF04460F4640EA0A008A
:1038D00041EA0B0153465A46084303D12046394674
:1038E000BDE8F08D114653EA010015D0C8F1400241
:1038F0005046FFF776FF05460E465046594642466B
:10390000FFF760FF084301D0012000E000200543DD
:1039100046EAE0762C4337430A984FEA4453A0EB3B
:1039200008004FEAD4240A304FF0000244EA47541A
:103930004FEAD72502D500200146D1E7010510192D
:103940006941DDE9084500196941BDE8F04DA0E78E
:10395000064C074D06E0E06840F0010394E80700DC
:1039600098471034AC42F6D3FCF7E6FB94390008D4
:10397000B439000802E008C8121F08C1002AFAD1B1
:1039800070477047002001E001C1121F002AFBD1DF
:1039900070470000B43900080000002068000000F3
:1039A000743900081C3A00086800002088060000EE
:1039B000843900080C0031003100310000000000A3
:1039C0000000000000A24A04000000000000000007
:1039D00001020304060708090A00000009000000AC
:1039E000E803000090010000580200000000000001
:1039F0000000000000000000350C00000000A042A4
:103A0000000048C2000000000000000000000000AC
:0C3A1000000000000000000000000000AA
:0400000508000131BD
:00000001FF
