:020000040800F2
:10000000C0060020B9150008C1150008C315000876
:10001000C5150008C7150008C91500080000000034
:10002000000000000000000000000000CB150008E8
:10003000CD15000800000000CF150008D1150008FC
:10004000D3150008D3150008D3150008D3150008F0
:10005000D3150008D3150008D3150008D3150008E0
:10006000D3150008D3150008D3150008D3150008D0
:10007000D3150008D3150008D3150008D3150008C0
:10008000D3150008D3150008D3150008D3150008B0
:10009000D3150008D3150008D3150008D3150008A0
:1000A000D3150008D3150008D3150008D315000890
:1000B00069180008B5180008FD180008D3150008D5
:1000C000D3150008D3150008D3150008D315000870
:1000D000D31500088D190008111A0008951A000898
:1000E000D3150008D3150008D3150008D315000850
:1000F000D3150008D3150008D3150008D315000840
:10010000D3150008D315000845190008D3150008B9
:10011000D3150008D3150008D3150008D31500081F
:10012000D3150008D3150008D3150008D31500080F
:10013000DFF80CD001F09AFE0048004745010008A6
:10014000C006002001F042F901F0B7FA1BE00E48AA
:1001500000F04DFF4FF47A7000F01FFA0B4800F0EA
:1001600046FF4FF47A7000F018FA094800F03FFF9C
:100170004FF47A7000F011FA064800F038FF4FF49F
:100180007A7000F00AFAE2E7CDCC4C3ECDCCCC3E02
:100190009A99193FCDCC4C3F0146DE48006820F0CB
:1001A0001F00DC4A10601046006808431060D94800
:1001B0002C38006840F48000D64A2C3A106000BF0A
:1001C000D4483438006810F0020FF9D0D148183004
:1001D000006880B27047102815D2DFE800F00815DB
:1001E000222F3C495663707D8A97A4B1BECBCA4981
:1001F000896941F00401C84A9161C849096821F040
:100200000F01C64A1160C2E0C349896941F0040187
:10021000C14A9161C149096821F0F001BF4A1160EA
:10022000B5E0BD49896941F00401BB4A9161BB4910
:10023000096821F47061B94A1160A8E0B64989697A
:1002400041F00401B44A9161B449096821F4704154
:10025000B24A11609BE0B049896941F00401AE4A9D
:100260009161AE49096821F47021AC4A11608EE0B9
:10027000A949896941F00401A74A9161A749096820
:1002800021F47001A54A116081E0A349896941F018
:100290000401A14A9161A149096821F070619F4A56
:1002A000116074E09C49896941F004019A4A9161A6
:1002B0009A49096821F07041984A116067E09649AF
:1002C000896941F00401944A91619549096821F0D6
:1002D0000F01934A11605AE08F49896941F0080182
:1002E0008D4A91618E49096821F0F0018C4A1160B4
:1002F0004DE08949896941F01001874A9161894936
:10030000096821F00F01874A116040E0824989693C
:1003100041F01001804A91618249096821F0F001A1
:10032000804A116033E07C49896941F010017A4AC2
:1003300091617C49096821F470617A4A116026E074
:100340007549896941F01001734A916175490968DD
:1003500021F47041734A116019E06F49896941F0D5
:1003600010016D4A91616F49096821F470216D4A4D
:1003700011600CE06849896941F01001664A916199
:100380006849096821F47001664A116000BF00BF26
:100390006149896941F400715F4A91611146C968F8
:1003A00041F40071D1601146C96821F40071D16037
:1003B0001146496821F4404151601146496841F4B1
:1003C00000415160534930390968574A1140514A38
:1003D000303A11601146096811601146096821F42C
:1003E00080711160111D096821F00201121D116058
:1003F0001146096821F4602111601146096841F431
:10040000602111601146096841F4801111601146A4
:10041000096821F4006111603E490839096821F436
:1004200070013C4A083A11601146096800211160C8
:100430000A2811DA00EB400307229A40D143354ADB
:10044000243A12680A40334B243B1A601A46126859
:1004500042F460021A6021E00A2290FBF2F302FBF0
:10046000130202EB420307229A40D143294A283A59
:1004700012680A40274B283B1A600A2290FBF2F3CD
:1004800002FB130202EB420307229A40214B283B56
:100490001B681A431F4B283B1A6000BF1D492C39AB
:1004A000096841F001011B4A2C3A116011460968A4
:1004B00041F00801116000BF16492C39096811F09C
:1004C000080FF9D113492C39096841F00401114A88
:1004D0002C3A116000BF0F492C39096811F0040F44
:1004E000F9D170472DE9F04107460C46002500265A
:1004F00008E03846FFF750FE0544C82000F02AF80F
:10050000701CC6B2A642F4DBB5FBF4F080B2BDE8C5
:10051000F081000034240140001002400008014036
:10052000000C014000100140FFFFF00010B56FF01B
:10053000040000F0ADF82A4800682A49B0FBF1F049
:1005400029490870084600784FF47A7148432749D2
:10055000086010BD0146244A12784A434FF0E02358
:100560005A6100229A611A46126942F001021A6128
:1005700000BF4FF0E022106910F0010F02D010F41C
:10058000803FF6D04FF0E022126922F001024FF0D6
:10059000E0231A6100229A6170470146134A1268EB
:1005A0004A434FF0E0235A6100229A611A461269C9
:1005B00042F001021A6100BF4FF0E022106910F012
:1005C000010F02D010F4803FF6D04FF0E022126904
:1005D00022F001024FF0E0231A6100229A61704775
:1005E0000800002000127A00000000200400002013
:1005F00031490143314A1160704770B50021002331
:100600000F22C4780CB32D4C246804F4E064C4F5C4
:10061000E064210AC1F10403CA40447804FA03F1FA
:100620008478144021430901254C0678A1550478AB
:1006300004F01F050124AC4005786D114FF0E02651
:1006400006EB8505C5F8004109E0047804F01F05B4
:100650000124AC401B4D0678761145F8264070BD4C
:10066000194A0A400243154B1B1F1A60704739B1E3
:10067000124A121D12680243104B1B1D1A6006E03D
:100680000E4A121D126882430C4B1B1D1A607047E4
:10069000042808D14FF0E021096941F004014FF02E
:1006A000E022116107E04FF0E021096921F0040127
:1006B0004FF0E022116170470000FA050CED00E0F8
:1006C00000E400E080E100E080FFFF1FFE4A926945
:1006D00042F40062FC4B9A61FC4A1080121F1180A8
:1006E000FA4A1832128842F40042F84B18331A8042
:1006F0008022F64B2C3B1A801A46128842F00102E7
:100700001A807047F04AD26942F00102EE4BDA617A
:100710009A04908511858022D3051A80D20512880B
:1007200042F001021A807047E74AD26942F00202A1
:10073000E54BDA61E64A1080121F11808022E44BFB
:100740002C3B1A801A46128842F001021A80704728
:10075000DD4AD26942F00402DB4BDA61DD4A1080E7
:10076000121F11808022DB4B2C3B1A801A46128804
:1007700042F001021A807047012806D002282BD0CF
:10078000032850D0042826D172E0CF49896941F06E
:100790000401CD4A9161D049096821F00F01CE4A88
:1007A00011601146096841F00B011160C749143905
:1007B000098841F06001C54A143A11801146098840
:1007C00041F008011180C1490C39098841F001014B
:1007D000BE4A0C3A118070E0BB49896941F00401BE
:1007E000B94A9161BC49096821F0F001BA4A116027
:1007F0001146096841F0B0011160B4491439098803
:1008000041F4C041B14A143A11801146098841F4BB
:1008100000611180AD490C39098841F01001AB4AE3
:100820000C3A118049E0A849896941F00401A64ABF
:100830009161A949096821F47061A74A11601146C4
:10084000096841F430611160A0491039098841F00C
:1008500060019E4A103A11801146098841F0080152
:100860001180111D098841F48071121D118024E04E
:100870009549896941F00401934A91619649096853
:1008800021F47041944A11601146096841F43041E5
:1008900011608E491039098841F4C0418B4A103AE1
:1008A00011801146098841F400611180111D0988E9
:1008B00041F48051121D118000BF00BF70472DE927
:1008C000FF5F834614469946584601F008FA0746EA
:1008D0000022824B01F056F9054601F0E7F91FFAB4
:1008E00080FAAAF1010188B241F61F41FFF7EEFE3E
:1008F000012C0FD10120FFF73FFF504601F0BDF959
:100900000646019901F008F9054601F0BBF96F4967
:1009100008310880B9F1010F0FD10220FFF72CFF39
:10092000504601F0AAF90646019901F0F5F805468E
:1009300001F0A8F965490C3108800E9801280FD103
:100940000320FFF719FF504601F097F90646019979
:1009500001F0E2F8054601F095F95C491031088094
:100960000F9801280FD10420FFF706FF504601F031
:1009700084F90646019901F0CFF8054601F082F9A5
:10098000524914310880BDE8FF9F012806D0022893
:1009900022D003283ED0042878D159E04E49091FBF
:1009A000096821F00F014C4A121F116011460968B5
:1009B00041F00B011160D104098B41F06001D204B8
:1009C00011831146098B41F0080111831146098CEE
:1009D00041F00101118459E03F49091F096821F0E4
:1009E000F0013D4A121F11601146096841F0B00143
:1009F0001160D104098B41F4C041D2041183114626
:100A0000098B41F4006111831146098C41F01001FA
:100A100011843BE03049091F096821F470612E4AB6
:100A2000121F11601146096841F430611160D10450
:100A3000898B41F06001D20491831146898B41F08A
:100A4000080191831146098C41F4807111841DE0E5
:100A50002149091F096821F470411F4A121F1160C2
:100A60001146096841F430411160D104898B41F489
:100A7000C041D20491831146898B41F40061918376
:100A80001146098C41F48051118400BF00BF7047AA
:100A90002DE9FF5F834614469946584601F01FF939
:100AA000074600220D4B01F06DF8054601F0FEF8F7
:100AB0001FFA80FAAAF1010188B241F61F41FFF73F
:100AC00021FE012C1BD10BE0001002402C2C014018
:100AD0002C0400402C080040040801400000244081
:100AE0000120FFF752FF504601F0C7F80646019972
:100AF00001F012F8054601F0C5F8A1078886B9F1A2
:100B0000010F0FD10220FFF740FF504601F0B5F86A
:100B10000646019901F000F8054601F0B3F84FF0E0
:100B2000804108870E9801280FD10320FFF72DFF81
:100B3000504601F0A2F80646019900F0EDFF054687
:100B400001F0A0F84FF0804188870F9801280ED15E
:100B50000420FFF71AFF504601F08FF8064601996E
:100B600000F0DAFF054601F08DF8FB490880BDE88A
:100B7000FF9F012806D0022823D0032840D0042854
:100B80007CD15CE0F549096821F07061F34A11609D
:100B90001146096841F030611160F149098841F05E
:100BA0006001EF4A11801146098841F00801118067
:100BB000EB490831098841F00101E94A0832118006
:100BC0005CE0E649096821F07041E44A1160114691
:100BD000096841F030411160E149098841F4C041A0
:100BE000DF4A11801146098841F400611180DC4917
:100BF0000831098841F01001D94A083211803DE0DE
:100C0000D849096821F00F01D64A116011460968D8
:100C100041F00B011160D249091D098841F06001C2
:100C2000CF4A121D11801146098841F00801118038
:100C3000111D098841F48071121D11801EE0C949FF
:100C4000096821F0F001C74A11601146096841F0B6
:100C5000B0011160C249091D098841F4C041C04A70
:100C6000121D11801146098841F400611180111D87
:100C7000098841F48051121D118000BF00BF7047E8
:100C80002DE9FF5F834614469946584601F027F840
:100C900007460022B44B00F075FF054601F006F848
:100CA0001FFA80FAAAF1010188B241F61F41FFF74D
:100CB0003BFD012C0FD10120FFF75BFF504600F0F8
:100CC000DCFF0646019900F027FF054600F0DAFF39
:100CD000A3491C310880B9F1010F0FD10220FFF7A1
:100CE00048FF504600F0C9FF0646019900F014FF86
:100CF000054600F0C7FF9A49203108800E98012868
:100D00000FD10320FFF735FF504600F0B6FF06462F
:100D1000019900F001FF054600F0B4FF904924312D
:100D200008800F9801280FD10420FFF722FF5046BA
:100D300000F0A3FF0646019900F0EEFE054600F024
:100D4000A1FF874928310880BDE8FF9F012806D010
:100D5000022823D0032840D004281ED15EE0814918
:100D6000096821F070617F4A11601146096841F0FD
:100D7000306111607D49098841F060017B4A118032
:100D80001146098841F00801118078490831098825
:100D900041F00101754A0832118060E0714909682B
:100DA00021F070416F4A11601146096841F03041ED
:100DB00011606E49098841F4C0416C4A11801146A6
:100DC000098841F40061118068490831098841F0BF
:100DD0001001664A0832118041E06249091D096824
:100DE00021F00F015F4A121D11601146096841F0A0
:100DF0000B0111605D49091D098841F060015B4AE2
:100E0000121D11801146098841F008011180111D41
:100E1000098841F48071121D118020E05149091D9B
:100E2000096821F0F0014F4A121D1160114609684E
:100E300041F0B00111604D49091D098841F4C041DC
:100E40004A4A121D11801146098841F4006111803F
:100E5000111D098841F48051121D118000BF00BF8F
:100E600070472DE9FF5F834614469946584600F0C7
:100E700036FF074600223C4B00F084FE054600F09A
:100E800015FF1FFA80FAAAF1010188B241F61F414D
:100E9000FFF75EFC012C0FD10120FFF757FF5046F2
:100EA00000F0EBFE0646019900F036FE054600F024
:100EB000E9FE2E491C310880B9F1010F0FD1022043
:100EC000FFF744FF504600F0D8FE0646019900F0B7
:100ED00023FE054600F0D6FE2449203108800E98F6
:100EE00001280FD10320FFF731FF504600F0C5FE67
:100EF0000646019900F010FE054600F0C3FE1B49AE
:100F0000243108800F9801280FD10420FFF71EFF1D
:100F1000504600F0B2FE0646019900F0FDFD054680
:100F200000F0B0FE114928310880BDE8FF9F2DE98F
:100F3000F04180460C460E480588681C00F094FE7F
:100F40000746214600F0E8FD064600F09BFE0849F2
:100F500008310880BDE8F0814000004000080140F1
:100F600018040040000C0140000024401808004014
:100F70002C2C01402DE9F0410446E0480588681C0E
:100F800000F072FE0746214600F0C6FD064600F05E
:100F900079FEDA4908310880BDE8F0812DE9F04199
:100FA0000446D6480588681C00F05EFE07462146C8
:100FB00000F0B2FD064600F065FED0490C31088015
:100FC000BDE8F0812DE9F0410446CC480588681C55
:100FD00000F04AFE8046214600F09EFD074600F0E4
:100FE00051FE86B2C54810300680BDE8F0812DE97B
:100FF000F0410446C1480588681C00F035FE0746EC
:10100000214600F089FD064600F03CFEBB49143144
:101010000880BDE8F0812DE9F84F04468846154662
:101020001E46DDE90A9AB64890FBF4F087B2791EB5
:1010300088B240F2CF21FFF749FB012D0ED10120EC
:10104000FFF79AFB384600F018FE4146009000F08A
:1010500063FD834600F016FEAA490880012E0FD1D9
:101060000220FFF789FB384600F007FE414600905A
:1010700000F052FD834600F005FEA249091D0880DC
:10108000B9F1010F0FD10320FFF776FB384600F0CE
:10109000F4FD4146009000F03FFD834600F0F2FD74
:1010A000984908310880BAF1010F0FD10420FFF7E9
:1010B00063FB384600F0E1FD4146009000F02CFD56
:1010C000834600F0DFFD8F490C310880BDE8F88FC2
:1010D0002DE9F84F0446884615461E46DDE90A9A72
:1010E000874890FBF4F087B2791E88B240F2CF2196
:1010F000FFF708FB012D0ED10120FFF746FC384613
:1011000000F0BBFD4146009000F006FD834600F074
:10111000B9FDA9078886012E0ED10220FFF735FC04
:10112000384600F0AAFD4146009000F0F5FC8346E9
:1011300000F0A8FDB1070887B9F1010F0FD1032016
:10114000FFF723FC384600F098FD4146009000F080
:10115000E3FC834600F096FD4FF080418887BAF1AA
:10116000010F0ED10420FFF710FC384600F085FD7A
:101170004146009000F0D0FC834600F083FD6249B8
:101180000880BDE8F88F2DE9F84F044688461546DB
:101190001E46DDE90A9A5A4890FBF4F087B2791EA0
:1011A00088B240F2CF21FFF7BFFA012D0FD1012005
:1011B000FFF7DFFC384600F060FD4146009000F08C
:1011C000ABFC834600F05EFD4C4908310880012EDF
:1011D0000FD10220FFF7CDFC384600F04EFD41460E
:1011E000009000F099FC834600F04CFD43490C311F
:1011F0000880B9F1010F0FD10320FFF7BAFC384680
:1012000000F03BFD4146009000F086FC834600F074
:1012100039FD3A4910310880BAF1010F0FD104208D
:10122000FFF7A7FC384600F028FD4146009000F08B
:1012300073FC834600F026FD304914310880BDE878
:10124000F88F2DE9F84F0446884615461E46DDE91D
:101250000A9A2B4890FBF4F087B2791E88B240F2CC
:10126000CF21FFF775FA012D0ED10120FFF76EFD9A
:10127000384600F002FD4146009000F04DFC8346E8
:1012800000F000FD21490880012E0FD10220FFF758
:101290005DFD384600F0F1FC4146009000F03CFC5A
:1012A000834600F0EFFC1949091D0880B9F1010FD0
:1012B0000FD10320FFF74AFD384600F0DEFC41461F
:1012C000009000F029FC834600F0DCFC0F49083157
:1012D0000880BAF1010F0FD10420FFF737FD38461F
:1012E00000F0CBFC4146009000F016FC834600F075
:1012F000C9FC06490C310880BDE8F88F2C04004079
:10130000A0860100342C0140400000403408004019
:1013100008B54FF4C060FFF76BF932208DF800007C
:1013200001208DF8010000208DF8020001208DF8C9
:1013300003006846FFF761F925208DF800000120C1
:101340008DF801008DF802008DF803006846FFF764
:1013500054F926208DF8000001208DF801000220AC
:101360008DF8020001208DF803006846FFF745F96B
:1013700027208DF8000001208DF8010003208DF852
:10138000020001208DF803006846FFF736F934208B
:101390008DF8000001208DF8010004208DF8020076
:1013A00001208DF803006846FFF727F935208DF8F6
:1013B000000001208DF8010005208DF802000120B9
:1013C0008DF803006846FFF718F908BD10B500F066
:1013D00073F8FFF7ABF8FFF79BFF10BD0CB50020CB
:1013E000019000906B48006840F4803069490860C3
:1013F00000BF6848006800F4003000900198401C6D
:101400000190009818B90198B0F5A06FF1D161482A
:10141000006810F4003F02D00120009001E000209D
:1014200000900098012842D15B48006840F010000D
:10143000594908600846006820F003000860084623
:10144000006840F002000860524840685149486016
:101450000846406848600846406840F4806048603C
:101460000846406820F47C1048600846406840F414
:10147000E81048600846006840F08070086000BFCF
:101480004448006810F0007FFAD04248406820F0DD
:101490000300404948600846406840F00200486048
:1014A00000BF3C48406800F00C000828F9D10CBD92
:1014B00010B5FFF793FF10BD10B53648006840F037
:1014C0000100344908600846406834490840314901
:1014D000486008460068324908402E4908600846BE
:1014E000006820F4802008600846406820F4FE0070
:1014F00048604FF41F008860FFF7DAFF4FF000608C
:101500002849086010BD10B5002100200022214BA1
:101510005B6803F00C0121B1042906D0082928D109
:1015200007E0214B214C236027E01F4B1F4C236019
:1015300023E0184B5B6803F47010164B5B6803F4F0
:101540008032022303EB904022B9194B4343174CDE
:1015500023600DE00F4B5B6813F4003F04D0144B85
:101560004343124C236003E00F4B43430F4C236073
:1015700003E00D4B0D4C236000BF00BF054B5B68C3
:10158000C3F303130B4CE15C084B1B68CB40074CC7
:10159000236010BD00100240002002400000FFF850
:1015A000FFFFF6FE08ED00E000127A0008000020C0
:1015B00000093D000C00002006488047064800470F
:1015C000FEE7FEE7FEE7FEE7FEE7FEE7FEE7FEE7F3
:1015D000FEE7FEE7B91400083101000810B5044623
:1015E0000121204600F0A4F8012000F0F0F83F4966
:1015F000087000203E49087011E000BF3D48008897
:1016000010F0400FFAD03C4839490978405C39491C
:10161000091D088036480078401C35490870344858
:101620000078324909788842E7DB10BD1CB53348A1
:10163000806940F00800314988613148006820F431
:1016400070202F4908600846006840F44030086068
:101650000846006820F4700008600846006840F4FE
:10166000401008600020012103460246CDE9001029
:101670002449C820FFF787FD2148006820F07060EA
:101680001F4908600846006840F04070086008463E
:10169000006820F0704008600846006840F0405044
:1016A0000860012000210B460A46CDE900104FF0EA
:1016B0007C51C820FFF767FD1CBD10B5FFF7B6FFD2
:1016C0000020114908604FF001001049C1F8B40131
:1016D0004FF000000E4908604FF001000B49C1F8BF
:1016E000BC014FF00700FEF776FD10BD1C00002086
:1016F0001D0000200038014038000020001002408A
:10170000040C0140CDCC4C3EB081214200802142EE
:10171000B881214230B503461C788C545D78541C46
:101720000D559D78941C0D55DD78D41C0D5530BD9C
:1017300013B50C460A2C00DC04B91CBD0B2C43D29B
:10174000DFE804F042060C12181E242A30363C0052
:10175000012244496846FFF7DDFF35E00522414993
:101760006846FFF7D7FF2FE009223E496846FFF79A
:10177000D1FF29E00D223B496846FFF7CBFF23E06C
:10178000112238496846FFF7C5FF1DE0152235498B
:101790006846FFF7BFFF17E0192232496846FFF796
:1017A000B9FF11E01D222F496846FFF7B3FF0BE098
:1017B00021222C496846FFF7ADFF05E02522294983
:1017C0006846FFF7A7FF00BF00BF00BFB5E70146AF
:1017D0000A2900DC09B9002070472420214A107032
:1017E0000B293CD2DFE801F03B060B10151A1F2431
:1017F000292F350005201B4A50710620ECE70920EF
:10180000184A50720A20E7E70D20164A50730E203E
:10181000E2E71120134A50741220DDE71520114A27
:1018200050751620D8E719200E4A50761A20D3E7B3
:101830001D200C4A50771E20CEE72120094A82F84D
:1018400021002220C8E72520064A82F8250026200C
:10185000C2E72920034A82F829002A20BCE7002099
:10186000BAE70000380000204FF08040008A10F0F6
:10187000010F19D04FF08040008A20F001004FF096
:10188000804108820948006838B90020084908608A
:101890004FF001000549086006E001200449086096
:1018A0004FF0000001490860704700002000002050
:1018B000800121420E48008810F0010F17D00C481B
:1018C000008820F001000A4908800A48006838B9F9
:1018D0000020094908604FF001000649086006E051
:1018E0000120054908604FF0000002490860704778
:1018F0001004004024000020800121420E4800888E
:1019000010F0010F17D00C48008820F001000A49A0
:1019100008800A48006838B90020094908604FF07B
:1019200001000649086006E00120054908604FF003
:10193000000002490860704710080040280000209D
:10194000800121420E48008810F0010F17D00C488A
:10195000008820F001000A4908800A48006838B968
:101960000020094908604FF001000649086006E0C0
:101970000120054908604FF00000024908607047E7
:10198000100C00402C000020800121421D490988D4
:1019900011F0200F34D01B49091D0988C8B21A491B
:1019A000098811F4004F2BD11749098811F4804F91
:1019B0000CD00A2803D00021134A118020E01249DC
:1019C000098841F40041104A118019E00D2806D120
:1019D0000D49098841F480410B4A118010E00A4901
:1019E0000988C1F30D01094A505407490988491C67
:1019F000054A118011460988C72901DD002111809F
:101A000070470000003801403000002062000020D4
:101A10001D49098811F0200F34D01B49091D098880
:101A2000C8B21A49098811F4004F2BD11749098807
:101A300011F4804F0CD00A2803D00021134A1180E2
:101A400020E01249098841F40041104A118019E050
:101A50000D2806D10D49098841F480410B4A1180B7
:101A600010E00A490988C1F30D01094A5054074999
:101A70000988491C054A118011460988C72901DDDA
:101A80000021118070470000003801403200002022
:101A90002A0100201D49098811F0200F34D01B496C
:101AA000091D0988C8B21A49098811F4004F2BD1C1
:101AB0001749098811F4804F0CD00A2803D000215F
:101AC000134A118020E01249098841F40041104A6C
:101AD000118019E00D2806D10D49098841F4804193
:101AE0000B4A118010E00A490988C1F30D01094A27
:101AF000505407490988491C054A11801146098834
:101B0000C72901DD00211180704700000038014025
:101B100034000020F201002080EA010210B502F03A
:101B20000043400026D04A0023D04FEA106101EB69
:101B30001261C0F35600C2F3560240F4000042F4B2
:101B40000002A0FB0220A1F17F014FEA0040140433
:101B500001D000F1010050EA124001D44000491EBA
:101B6000C2B20C0604EBD010401C4008802A02D000
:101B700003E0002010BD20F00100002900DA002061
:101B8000184310BD2DE9FE4F81EA030404F0004420
:101B900021F0004100944FF0000B23F0004350EA85
:101BA000010402D052EA030404D10020014603B02C
:101BB000BDE8F08FC3F30A54C1F30A552C44A4F2D4
:101BC000F3340194A0FB0254C1F3130141F48011DA
:101BD000C3F3130343F4801301FB024400FB034EE1
:101BE000840A970A44EA815447EA8357A4FB0768AA
:101BF00002958D0A05FB07854FEA932C04FB0C54D4
:101C00002705029D4FEA065847EA1637B5EB080547
:101C10006EEB070C870E920E47EA811742EA831299
:101C2000A7FB0201B6EB0B0164EB00042B0D43EAAA
:101C30000C335E1844EB1C50DA465146E7FB0201B8
:101C4000C5F313044FEA0B3343EA14534FEA04324B
:101C5000019C43EA0603A4F10C040294009CCDE924
:101C600000B400F0B1F8A2E7C10F80EAE0700844C8
:101C7000CA079623002100F06DB896230022114672
:101C800000F068B820F00040C10DC0F3160040F429
:101C900000007F2901DA00207047962903DCC1F19A
:101CA0009601C8407047963988407047C1F30A5280
:101CB00010B5C1F3130140F2FF3341F480119A4291
:101CC00001DA002010BD40F233439A42A2F23342BF
:101CD00003DC524200F025F810BD904010BD00F02A
:101CE000004230F000400AD0C10D01F56071C0F330
:101CF000160042EA0151C208400711437047002014
:101D000001467047202A04DB203A00FA02F1002045
:101D100070479140C2F1200320FA03F31943904029
:101D20007047202A04DB203A21FA02F00021704794
:101D300021FA02F3D040C2F1200291400843194633
:101D400070470029A8BF7047401C490008BF20F019
:101D50000100704710B4B0FA80FC00FA0CF050EAB1
:101D6000010404BF10BC704749B1CCF1200421FA32
:101D700004F411FA0CF118BF012121430843A3EB2D
:101D80000C01CB1D0106000A002BBEBF002010BCB9
:101D9000704700EBC35010440029A4BF10BC70472B
:101DA000401C490008BF20F0010010BC704710B56E
:101DB000002B08DA401C41F1000192185B411A43E4
:101DC00001D120F0010010BD2DE9F04D92469B4657
:101DD00011B1B1FA81F202E0B0FA80F220329046FD
:101DE000FFF790FF04460F4640EA0A0041EA0B0164
:101DF00053465A46084303D120463946BDE8F08D84
:101E0000114653EA010015D0C8F140025046FFF7D1
:101E100088FF05460E46504659464246FFF772FF78
:101E2000084301D0012000E00020054346EAE076A7
:101E30002C4337430A984FEA4453A0EB08004FEA7B
:101E4000D4240A304FF0000244EA47544FEAD72521
:101E500002D500200146D1E7010510196941DDE9ED
:101E6000084500196941BDE8F04DA0E7064C074D53
:101E700006E0E06840F0010394E80700984710345A
:101E8000AC42F6D3FEF758F9B01E0008D01E000889
:101E900002E008C8121F08C1002AFAD17047704733
:101EA000002001E001C1121F002AFBD17047000091
:101EB000D01E00080000002038000000901E00081E
:101EC000081F00083800002088060000A01E000837
:101ED000000000000000000000A24A040000000012
:101EE00000000000010203040607080900000000CA
:101EF00000000000000000000000000000000000E2
:081F00000000000000000000D9
:0400000508000131BD
:00000001FF
